{
  "_format": "hh-sol-artifact-1",
  "contractName": "VeChainQuoraUltraMinimal",
  "sourceName": "contracts/VeChainQuoraUltraMinimal.sol",
  "abi": [
    {
      "inputs": [],
      "stateMutability": "nonpayable",
      "type": "constructor"
    },
    {
      "anonymous": false,
      "inputs": [
        {
          "indexed": true,
          "internalType": "uint256",
          "name": "answerId",
          "type": "uint256"
        },
        {
          "indexed": true,
          "internalType": "uint256",
          "name": "questionId",
          "type": "uint256"
        },
        {
          "indexed": true,
          "internalType": "address",
          "name": "author",
          "type": "address"
        }
      ],
      "name": "AnswerPosted",
      "type": "event"
    },
    {
      "anonymous": false,
      "inputs": [
        {
          "indexed": true,
          "internalType": "uint256",
          "name": "questionId",
          "type": "uint256"
        },
        {
          "indexed": true,
          "internalType": "address",
          "name": "asker",
          "type": "address"
        },
        {
          "indexed": false,
          "internalType": "string",
          "name": "title",
          "type": "string"
        }
      ],
      "name": "QuestionAsked",
      "type": "event"
    },
    {
      "inputs": [],
      "name": "answerCounter",
      "outputs": [
        {
          "internalType": "uint256",
          "name": "",
          "type": "uint256"
        }
      ],
      "stateMutability": "view",
      "type": "function"
    },
    {
      "inputs": [
        {
          "internalType": "uint256",
          "name": "",
          "type": "uint256"
        }
      ],
      "name": "answers",
      "outputs": [
        {
          "internalType": "uint256",
          "name": "id",
          "type": "uint256"
        },
        {
          "internalType": "uint256",
          "name": "questionId",
          "type": "uint256"
        },
        {
          "internalType": "address",
          "name": "author",
          "type": "address"
        },
        {
          "internalType": "string",
          "name": "content",
          "type": "string"
        },
        {
          "internalType": "uint256",
          "name": "timestamp",
          "type": "uint256"
        }
      ],
      "stateMutability": "view",
      "type": "function"
    },
    {
      "inputs": [
        {
          "internalType": "uint256",
          "name": "questionId",
          "type": "uint256"
        },
        {
          "internalType": "uint256",
          "name": "answerId",
          "type": "uint256"
        }
      ],
      "name": "approveAnswer",
      "outputs": [],
      "stateMutability": "nonpayable",
      "type": "function"
    },
    {
      "inputs": [
        {
          "internalType": "string",
          "name": "title",
          "type": "string"
        },
        {
          "internalType": "uint256",
          "name": "bounty",
          "type": "uint256"
        }
      ],
      "name": "askQuestion",
      "outputs": [],
      "stateMutability": "payable",
      "type": "function"
    },
    {
      "inputs": [
        {
          "internalType": "uint256",
          "name": "answerId",
          "type": "uint256"
        }
      ],
      "name": "getAnswer",
      "outputs": [
        {
          "internalType": "uint256",
          "name": "id",
          "type": "uint256"
        },
        {
          "internalType": "uint256",
          "name": "questionId",
          "type": "uint256"
        },
        {
          "internalType": "address",
          "name": "author",
          "type": "address"
        },
        {
          "internalType": "string",
          "name": "content",
          "type": "string"
        },
        {
          "internalType": "uint256",
          "name": "timestamp",
          "type": "uint256"
        }
      ],
      "stateMutability": "view",
      "type": "function"
    },
    {
      "inputs": [
        {
          "internalType": "uint256",
          "name": "questionId",
          "type": "uint256"
        }
      ],
      "name": "getQuestion",
      "outputs": [
        {
          "internalType": "uint256",
          "name": "id",
          "type": "uint256"
        },
        {
          "internalType": "address",
          "name": "asker",
          "type": "address"
        },
        {
          "internalType": "string",
          "name": "title",
          "type": "string"
        },
        {
          "internalType": "uint256",
          "name": "timestamp",
          "type": "uint256"
        },
        {
          "internalType": "uint256",
          "name": "bounty",
          "type": "uint256"
        }
      ],
      "stateMutability": "view",
      "type": "function"
    },
    {
      "inputs": [],
      "name": "getStats",
      "outputs": [
        {
          "internalType": "uint256",
          "name": "questions",
          "type": "uint256"
        },
        {
          "internalType": "uint256",
          "name": "answers",
          "type": "uint256"
        }
      ],
      "stateMutability": "view",
      "type": "function"
    },
    {
      "inputs": [
        {
          "internalType": "address",
          "name": "user",
          "type": "address"
        }
      ],
      "name": "getUserReputation",
      "outputs": [
        {
          "internalType": "uint256",
          "name": "",
          "type": "uint256"
        }
      ],
      "stateMutability": "view",
      "type": "function"
    },
    {
      "inputs": [],
      "name": "owner",
      "outputs": [
        {
          "internalType": "address",
          "name": "",
          "type": "address"
        }
      ],
      "stateMutability": "view",
      "type": "function"
    },
    {
      "inputs": [
        {
          "internalType": "uint256",
          "name": "questionId",
          "type": "uint256"
        },
        {
          "internalType": "string",
          "name": "content",
          "type": "string"
        }
      ],
      "name": "postAnswer",
      "outputs": [],
      "stateMutability": "nonpayable",
      "type": "function"
    },
    {
      "inputs": [],
      "name": "questionCounter",
      "outputs": [
        {
          "internalType": "uint256",
          "name": "",
          "type": "uint256"
        }
      ],
      "stateMutability": "view",
      "type": "function"
    },
    {
      "inputs": [
        {
          "internalType": "uint256",
          "name": "",
          "type": "uint256"
        }
      ],
      "name": "questions",
      "outputs": [
        {
          "internalType": "uint256",
          "name": "id",
          "type": "uint256"
        },
        {
          "internalType": "address",
          "name": "asker",
          "type": "address"
        },
        {
          "internalType": "string",
          "name": "title",
          "type": "string"
        },
        {
          "internalType": "uint256",
          "name": "timestamp",
          "type": "uint256"
        },
        {
          "internalType": "uint256",
          "name": "bounty",
          "type": "uint256"
        }
      ],
      "stateMutability": "view",
      "type": "function"
    },
    {
      "inputs": [
        {
          "internalType": "address",
          "name": "",
          "type": "address"
        }
      ],
      "name": "reputation",
      "outputs": [
        {
          "internalType": "uint256",
          "name": "",
          "type": "uint256"
        }
      ],
      "stateMutability": "view",
      "type": "function"
    }
  ],
  "bytecode": "0x608060405234801561001057600080fd5b50600280546001600160a01b03191633179055610e84806100326000396000f3fe6080604052600436106100c25760003560e01c8063b9f794511161007f578063c921d66c11610059578063c921d66c1461024f578063db88176f14610271578063e3f541ee14610291578063f5d6b5d1146102a457600080fd5b8063b9f79451146101c4578063baccbfdb146101f1578063c59d48471461022757600080fd5b806317599cc5146100c757806331b1b978146101015780635898852c146101325780638da5cb5b14610156578063b5ab58dc1461018e578063b7b064a8146101ae575b600080fd5b3480156100d357600080fd5b506100e76100e2366004610a4e565b6102c4565b6040516100f8959493929190610aad565b60405180910390f35b34801561010d57600080fd5b5061012161011c366004610a4e565b610387565b6040516100f8959493929190610aec565b34801561013e57600080fd5b5061014860015481565b6040519081526020016100f8565b34801561016257600080fd5b50600254610176906001600160a01b031681565b6040516001600160a01b0390911681526020016100f8565b34801561019a57600080fd5b506100e76101a9366004610a4e565b610448565b3480156101ba57600080fd5b5061014860005481565b3480156101d057600080fd5b506101486101df366004610b2a565b60056020526000908152604090205481565b3480156101fd57600080fd5b5061014861020c366004610b2a565b6001600160a01b031660009081526005602052604090205490565b34801561023357600080fd5b50600054600154604080519283526020830191909152016100f8565b34801561025b57600080fd5b5061026f61026a366004610bfd565b610528565b005b34801561027d57600080fd5b5061012161028c366004610a4e565b6106b8565b61026f61029f366004610c44565b610796565b3480156102b057600080fd5b5061026f6102bf366004610c89565b610904565b6004602052600090815260409020805460018201546002830154600384018054939492936001600160a01b0390921692916102fe90610cab565b80601f016020809104026020016040519081016040528092919081815260200182805461032a90610cab565b80156103775780601f1061034c57610100808354040283529160200191610377565b820191906000526020600020905b81548152906001019060200180831161035a57829003601f168201915b5050505050908060040154905085565b60036020526000908152604090208054600182015460028301805492936001600160a01b03909216926103b990610cab565b80601f01602080910402602001604051908101604052809291908181526020018280546103e590610cab565b80156104325780601f1061040757610100808354040283529160200191610432565b820191906000526020600020905b81548152906001019060200180831161041557829003601f168201915b5050505050908060030154908060040154905085565b60008181526004602081905260408220805460018201546002830154938301546003840180548796879660609688969195909491936001600160a01b0390931692829061049490610cab565b80601f01602080910402602001604051908101604052809291908181526020018280546104c090610cab565b801561050d5780601f106104e25761010080835404028352916020019161050d565b820191906000526020600020905b8154815290600101906020018083116104f057829003601f168201915b50505050509150955095509550955095505091939590929450565b600082815260036020526040812054900361057f5760405162461bcd60e51b8152602060048201526012602482015271145d595cdd1a5bdb881b9bdd08199bdd5b9960721b60448201526064015b60405180910390fd5b60008151116105c35760405162461bcd60e51b815260206004820152601060248201526f10dbdb9d195b9d081c995c5d5a5c995960821b6044820152606401610576565b600180549060006105d383610cfb565b90915550506040805160a081018252600180548083526020808401878152338587019081526060860188815242608088015260009485526004909352959092208451815591519282019290925592516002840180546001600160a01b0319166001600160a01b039092169190911790555190919060038201906106569082610d62565b506080919091015160049091015533600090815260056020526040812080549161067f83610cfb565b9091555050600154604051339184917f964e54a7e8b7511417d5a627b6471cfb7bc6c100a2bdfa074dcecf03f9edc0c790600090a45050565b6000818152600360208190526040822080546001820154928201546004830154600284018054879660609688968796919590946001600160a01b0390931693839061070290610cab565b80601f016020809104026020016040519081016040528092919081815260200182805461072e90610cab565b801561077b5780601f106107505761010080835404028352916020019161077b565b820191906000526020600020905b81548152906001019060200180831161075e57829003601f168201915b50505050509250955095509550955095505091939590929450565b60008251116107d85760405162461bcd60e51b815260206004820152600e60248201526d151a5d1b19481c995c5d5a5c995960921b6044820152606401610576565b8034101561081e5760405162461bcd60e51b8152602060048201526013602482015272496e73756666696369656e7420626f756e747960681b6044820152606401610576565b60008054908061082d83610cfb565b90915550506040805160a081018252600080548083523360208085019182528486018881524260608701526080860188905292845260039052939091208251815592516001840180546001600160a01b0319166001600160a01b039092169190911790555190919060028201906108a49082610d62565b506060820151816003015560808201518160040155905050336001600160a01b03166000547f724d3b631ec34a8cc50d6cb24d48320be0dd9b88cdcfb04e1fa4a0d38ebc5d43846040516108f89190610e22565b60405180910390a35050565b6000828152600360205260409020600101546001600160a01b031633146109625760405162461bcd60e51b81526020600482015260126024820152712737ba1038bab2b9ba34b7b71030b9b5b2b960711b6044820152606401610576565b60008181526004602052604090206001015482146109b35760405162461bcd60e51b815260206004820152600e60248201526d24b73b30b634b21030b739bbb2b960911b6044820152606401610576565b6000818152600460209081526040808320600201546001600160a01b0316835260059182905282208054919290916109ec908490610e35565b909155505060008181526004602081815260408084206002015486855260039092528084209092015491516001600160a01b039091169282156108fc02929190818181858888f19350505050158015610a49573d6000803e3d6000fd5b505050565b600060208284031215610a6057600080fd5b5035919050565b6000815180845260005b81811015610a8d57602081850181015186830182015201610a71565b506000602082860101526020601f19601f83011685010191505092915050565b85815284602082015260018060a01b038416604082015260a060608201526000610ada60a0830185610a67565b90508260808301529695505050505050565b8581526001600160a01b038516602082015260a060408201819052600090610b1690830186610a67565b606083019490945250608001529392505050565b600060208284031215610b3c57600080fd5b81356001600160a01b0381168114610b5357600080fd5b9392505050565b634e487b7160e01b600052604160045260246000fd5b600082601f830112610b8157600080fd5b813567ffffffffffffffff80821115610b9c57610b9c610b5a565b604051601f8301601f19908116603f01168101908282118183101715610bc457610bc4610b5a565b81604052838152866020858801011115610bdd57600080fd5b836020870160208301376000602085830101528094505050505092915050565b60008060408385031215610c1057600080fd5b82359150602083013567ffffffffffffffff811115610c2e57600080fd5b610c3a85828601610b70565b9150509250929050565b60008060408385031215610c5757600080fd5b823567ffffffffffffffff811115610c6e57600080fd5b610c7a85828601610b70565b95602094909401359450505050565b60008060408385031215610c9c57600080fd5b50508035926020909101359150565b600181811c90821680610cbf57607f821691505b602082108103610cdf57634e487b7160e01b600052602260045260246000fd5b50919050565b634e487b7160e01b600052601160045260246000fd5b600060018201610d0d57610d0d610ce5565b5060010190565b601f821115610a4957600081815260208120601f850160051c81016020861015610d3b5750805b601f850160051c820191505b81811015610d5a57828155600101610d47565b505050505050565b815167ffffffffffffffff811115610d7c57610d7c610b5a565b610d9081610d8a8454610cab565b84610d14565b602080601f831160018114610dc55760008415610dad5750858301515b600019600386901b1c1916600185901b178555610d5a565b600085815260208120601f198616915b82811015610df457888601518255948401946001909101908401610dd5565b5085821015610e125787850151600019600388901b60f8161c191681555b5050505050600190811b01905550565b602081526000610b536020830184610a67565b80820180821115610e4857610e48610ce5565b9291505056fea26469706673582212206b03b0fcb042ee5250c0b9b7d6c85b1033b2fce99bdcd4df1ae481b2e7ec55bd64736f6c63430008140033",
  "linkReferences": {},
  "deployedLinkReferences": {}
}