{
  "_format": "hh-sol-artifact-1",
  "contractName": "VeChainQuoraMinimal",
  "sourceName": "contracts/VeChainQuoraMinimal.sol",
  "abi": [
    {
      "inputs": [],
      "stateMutability": "nonpayable",
      "type": "constructor"
    },
    {
      "anonymous": false,
      "inputs": [
        {
          "indexed": true,
          "internalType": "uint256",
          "name": "questionId",
          "type": "uint256"
        },
        {
          "indexed": true,
          "internalType": "uint256",
          "name": "answerId",
          "type": "uint256"
        },
        {
          "indexed": true,
          "internalType": "address",
          "name": "asker",
          "type": "address"
        }
      ],
      "name": "AnswerApproved",
      "type": "event"
    },
    {
      "anonymous": false,
      "inputs": [
        {
          "indexed": true,
          "internalType": "uint256",
          "name": "answerId",
          "type": "uint256"
        },
        {
          "indexed": true,
          "internalType": "uint256",
          "name": "questionId",
          "type": "uint256"
        },
        {
          "indexed": true,
          "internalType": "address",
          "name": "author",
          "type": "address"
        }
      ],
      "name": "AnswerPosted",
      "type": "event"
    },
    {
      "anonymous": false,
      "inputs": [
        {
          "indexed": true,
          "internalType": "uint256",
          "name": "answerId",
          "type": "uint256"
        },
        {
          "indexed": true,
          "internalType": "address",
          "name": "voter",
          "type": "address"
        }
      ],
      "name": "AnswerUpvoted",
      "type": "event"
    },
    {
      "anonymous": false,
      "inputs": [
        {
          "indexed": true,
          "internalType": "uint256",
          "name": "questionId",
          "type": "uint256"
        },
        {
          "indexed": true,
          "internalType": "address",
          "name": "asker",
          "type": "address"
        },
        {
          "indexed": false,
          "internalType": "string",
          "name": "title",
          "type": "string"
        },
        {
          "indexed": false,
          "internalType": "uint256",
          "name": "bounty",
          "type": "uint256"
        }
      ],
      "name": "QuestionAsked",
      "type": "event"
    },
    {
      "inputs": [],
      "name": "answerCounter",
      "outputs": [
        {
          "internalType": "uint256",
          "name": "",
          "type": "uint256"
        }
      ],
      "stateMutability": "view",
      "type": "function"
    },
    {
      "inputs": [
        {
          "internalType": "uint256",
          "name": "",
          "type": "uint256"
        }
      ],
      "name": "answers",
      "outputs": [
        {
          "internalType": "uint256",
          "name": "id",
          "type": "uint256"
        },
        {
          "internalType": "uint256",
          "name": "questionId",
          "type": "uint256"
        },
        {
          "internalType": "address",
          "name": "author",
          "type": "address"
        },
        {
          "internalType": "string",
          "name": "content",
          "type": "string"
        },
        {
          "internalType": "uint256",
          "name": "timestamp",
          "type": "uint256"
        },
        {
          "internalType": "uint256",
          "name": "upvotes",
          "type": "uint256"
        }
      ],
      "stateMutability": "view",
      "type": "function"
    },
    {
      "inputs": [
        {
          "internalType": "uint256",
          "name": "questionId",
          "type": "uint256"
        },
        {
          "internalType": "uint256",
          "name": "answerId",
          "type": "uint256"
        }
      ],
      "name": "approveAnswer",
      "outputs": [],
      "stateMutability": "nonpayable",
      "type": "function"
    },
    {
      "inputs": [
        {
          "internalType": "string",
          "name": "title",
          "type": "string"
        },
        {
          "internalType": "string",
          "name": "content",
          "type": "string"
        },
        {
          "internalType": "uint256",
          "name": "bounty",
          "type": "uint256"
        }
      ],
      "name": "askQuestion",
      "outputs": [],
      "stateMutability": "payable",
      "type": "function"
    },
    {
      "inputs": [
        {
          "internalType": "uint256",
          "name": "answerId",
          "type": "uint256"
        }
      ],
      "name": "getAnswer",
      "outputs": [
        {
          "internalType": "uint256",
          "name": "id",
          "type": "uint256"
        },
        {
          "internalType": "uint256",
          "name": "questionId",
          "type": "uint256"
        },
        {
          "internalType": "address",
          "name": "author",
          "type": "address"
        },
        {
          "internalType": "string",
          "name": "content",
          "type": "string"
        },
        {
          "internalType": "uint256",
          "name": "timestamp",
          "type": "uint256"
        },
        {
          "internalType": "uint256",
          "name": "upvotes",
          "type": "uint256"
        }
      ],
      "stateMutability": "view",
      "type": "function"
    },
    {
      "inputs": [],
      "name": "getPlatformStats",
      "outputs": [
        {
          "internalType": "uint256",
          "name": "questions",
          "type": "uint256"
        },
        {
          "internalType": "uint256",
          "name": "answers",
          "type": "uint256"
        },
        {
          "internalType": "uint256",
          "name": "totalBounty",
          "type": "uint256"
        }
      ],
      "stateMutability": "view",
      "type": "function"
    },
    {
      "inputs": [
        {
          "internalType": "uint256",
          "name": "questionId",
          "type": "uint256"
        }
      ],
      "name": "getQuestion",
      "outputs": [
        {
          "internalType": "uint256",
          "name": "id",
          "type": "uint256"
        },
        {
          "internalType": "address",
          "name": "asker",
          "type": "address"
        },
        {
          "internalType": "string",
          "name": "title",
          "type": "string"
        },
        {
          "internalType": "string",
          "name": "content",
          "type": "string"
        },
        {
          "internalType": "uint256",
          "name": "timestamp",
          "type": "uint256"
        },
        {
          "internalType": "uint256",
          "name": "bounty",
          "type": "uint256"
        },
        {
          "internalType": "bool",
          "name": "isResolved",
          "type": "bool"
        }
      ],
      "stateMutability": "view",
      "type": "function"
    },
    {
      "inputs": [
        {
          "internalType": "address",
          "name": "user",
          "type": "address"
        }
      ],
      "name": "getUserAnswers",
      "outputs": [
        {
          "internalType": "uint256[]",
          "name": "",
          "type": "uint256[]"
        }
      ],
      "stateMutability": "view",
      "type": "function"
    },
    {
      "inputs": [
        {
          "internalType": "address",
          "name": "user",
          "type": "address"
        }
      ],
      "name": "getUserQuestions",
      "outputs": [
        {
          "internalType": "uint256[]",
          "name": "",
          "type": "uint256[]"
        }
      ],
      "stateMutability": "view",
      "type": "function"
    },
    {
      "inputs": [
        {
          "internalType": "address",
          "name": "user",
          "type": "address"
        }
      ],
      "name": "getUserReputation",
      "outputs": [
        {
          "internalType": "uint256",
          "name": "",
          "type": "uint256"
        }
      ],
      "stateMutability": "view",
      "type": "function"
    },
    {
      "inputs": [],
      "name": "isActive",
      "outputs": [
        {
          "internalType": "bool",
          "name": "",
          "type": "bool"
        }
      ],
      "stateMutability": "view",
      "type": "function"
    },
    {
      "inputs": [],
      "name": "owner",
      "outputs": [
        {
          "internalType": "address",
          "name": "",
          "type": "address"
        }
      ],
      "stateMutability": "view",
      "type": "function"
    },
    {
      "inputs": [
        {
          "internalType": "uint256",
          "name": "questionId",
          "type": "uint256"
        },
        {
          "internalType": "string",
          "name": "content",
          "type": "string"
        }
      ],
      "name": "postAnswer",
      "outputs": [],
      "stateMutability": "nonpayable",
      "type": "function"
    },
    {
      "inputs": [],
      "name": "questionCounter",
      "outputs": [
        {
          "internalType": "uint256",
          "name": "",
          "type": "uint256"
        }
      ],
      "stateMutability": "view",
      "type": "function"
    },
    {
      "inputs": [
        {
          "internalType": "uint256",
          "name": "",
          "type": "uint256"
        }
      ],
      "name": "questions",
      "outputs": [
        {
          "internalType": "uint256",
          "name": "id",
          "type": "uint256"
        },
        {
          "internalType": "address",
          "name": "asker",
          "type": "address"
        },
        {
          "internalType": "string",
          "name": "title",
          "type": "string"
        },
        {
          "internalType": "string",
          "name": "content",
          "type": "string"
        },
        {
          "internalType": "uint256",
          "name": "timestamp",
          "type": "uint256"
        },
        {
          "internalType": "uint256",
          "name": "bounty",
          "type": "uint256"
        },
        {
          "internalType": "bool",
          "name": "isResolved",
          "type": "bool"
        }
      ],
      "stateMutability": "view",
      "type": "function"
    },
    {
      "inputs": [],
      "name": "togglePlatform",
      "outputs": [],
      "stateMutability": "nonpayable",
      "type": "function"
    },
    {
      "inputs": [
        {
          "internalType": "uint256",
          "name": "answerId",
          "type": "uint256"
        }
      ],
      "name": "upvoteAnswer",
      "outputs": [],
      "stateMutability": "nonpayable",
      "type": "function"
    },
    {
      "inputs": [
        {
          "internalType": "address",
          "name": "",
          "type": "address"
        },
        {
          "internalType": "uint256",
          "name": "",
          "type": "uint256"
        }
      ],
      "name": "userAnswers",
      "outputs": [
        {
          "internalType": "uint256",
          "name": "",
          "type": "uint256"
        }
      ],
      "stateMutability": "view",
      "type": "function"
    },
    {
      "inputs": [
        {
          "internalType": "address",
          "name": "",
          "type": "address"
        },
        {
          "internalType": "uint256",
          "name": "",
          "type": "uint256"
        }
      ],
      "name": "userQuestions",
      "outputs": [
        {
          "internalType": "uint256",
          "name": "",
          "type": "uint256"
        }
      ],
      "stateMutability": "view",
      "type": "function"
    },
    {
      "inputs": [
        {
          "internalType": "address",
          "name": "",
          "type": "address"
        }
      ],
      "name": "userReputation",
      "outputs": [
        {
          "internalType": "uint256",
          "name": "",
          "type": "uint256"
        }
      ],
      "stateMutability": "view",
      "type": "function"
    },
    {
      "inputs": [],
      "name": "withdraw",
      "outputs": [],
      "stateMutability": "nonpayable",
      "type": "function"
    }
  ],
  "bytecode": "0x608060405234801561001057600080fd5b506002805460ff60a01b1933166001600160a81b031990911617600160a01b179055611904806100416000396000f3fe60806040526004361061012a5760003560e01c80635898852c116100ab578063baccbfdb1161006f578063baccbfdb1461035b578063c921d66c14610391578063db88176f146103b1578063e503bb05146103d1578063f5d6b5d1146103fe578063faf99c871461041e57600080fd5b80635898852c146102b75780637df88f24146102cd5780638da5cb5b146102ed578063b5ab58dc14610325578063b7b064a81461034557600080fd5b80632af3d7ed116100f25780632af3d7ed1461020e5780632f068cfa1461022e57806331b1b9781461025c5780633ccfd60b1461028f578063516fa910146102a457600080fd5b806301c2a6fe1461012f57806311a7ddf514610165578063136d88831461017c57806317599cc5146101ab57806322f3e2d4146101dd575b600080fd5b34801561013b57600080fd5b5061014f61014a3660046113e3565b61043e565b60405161015c9190611405565b60405180910390f35b34801561017157600080fd5b5061017a6104aa565b005b34801561018857600080fd5b50600054600154476040805193845260208401929092529082015260600161015c565b3480156101b757600080fd5b506101cb6101c6366004611449565b61052a565b60405161015c969594939291906114a8565b3480156101e957600080fd5b506002546101fe90600160a01b900460ff1681565b604051901515815260200161015c565b34801561021a57600080fd5b5061014f6102293660046113e3565b6105f3565b34801561023a57600080fd5b5061024e6102493660046114ea565b61065d565b60405190815260200161015c565b34801561026857600080fd5b5061027c610277366004611449565b61068e565b60405161015c9796959493929190611514565b34801561029b57600080fd5b5061017a6107e8565b61017a6102b2366004611615565b61087e565b3480156102c357600080fd5b5061024e60015481565b3480156102d957600080fd5b5061017a6102e8366004611449565b610ac8565b3480156102f957600080fd5b5060025461030d906001600160a01b031681565b6040516001600160a01b03909116815260200161015c565b34801561033157600080fd5b506101cb610340366004611449565b610c42565b34801561035157600080fd5b5061024e60005481565b34801561036757600080fd5b5061024e6103763660046113e3565b6001600160a01b031660009081526005602052604090205490565b34801561039d57600080fd5b5061017a6103ac366004611682565b610d35565b3480156103bd57600080fd5b5061027c6103cc366004611449565b610f82565b3480156103dd57600080fd5b5061024e6103ec3660046113e3565b60056020526000908152604090205481565b34801561040a57600080fd5b5061017a6104193660046116c9565b611116565b34801561042a57600080fd5b5061024e6104393660046114ea565b6113ab565b6001600160a01b03811660009081526006602090815260409182902080548351818402810184019094528084526060939283018282801561049e57602002820191906000526020600020905b81548152602001906001019080831161048a575b50505050509050919050565b6002546001600160a01b031633146105095760405162461bcd60e51b815260206004820152601e60248201527f4f6e6c79206f776e65722063616e20746f67676c6520706c6174666f726d000060448201526064015b60405180910390fd5b6002805460ff60a01b198116600160a01b9182900460ff1615909102179055565b6004602052600090815260409020805460018201546002830154600384018054939492936001600160a01b039092169291610564906116eb565b80601f0160208091040260200160405190810160405280929190818152602001828054610590906116eb565b80156105dd5780601f106105b2576101008083540402835291602001916105dd565b820191906000526020600020905b8154815290600101906020018083116105c057829003601f168201915b5050505050908060040154908060050154905086565b6001600160a01b03811660009081526007602090815260409182902080548351818402810184019094528084526060939283018282801561049e576020028201919060005260206000209081548152602001906001019080831161048a5750505050509050919050565b6006602052816000526040600020818154811061067957600080fd5b90600052602060002001600091509150505481565b60036020526000908152604090208054600182015460028301805492936001600160a01b03909216926106c0906116eb565b80601f01602080910402602001604051908101604052809291908181526020018280546106ec906116eb565b80156107395780601f1061070e57610100808354040283529160200191610739565b820191906000526020600020905b81548152906001019060200180831161071c57829003601f168201915b50505050509080600301805461074e906116eb565b80601f016020809104026020016040519081016040528092919081815260200182805461077a906116eb565b80156107c75780601f1061079c576101008083540402835291602001916107c7565b820191906000526020600020905b8154815290600101906020018083116107aa57829003601f168201915b50505050600483015460058401546006909401549293909290915060ff1687565b6002546001600160a01b031633146108425760405162461bcd60e51b815260206004820152601760248201527f4f6e6c79206f776e65722063616e2077697468647261770000000000000000006044820152606401610500565b6002546040516001600160a01b03909116904780156108fc02916000818181858888f1935050505015801561087b573d6000803e3d6000fd5b50565b600254600160a01b900460ff166108a75760405162461bcd60e51b815260040161050090611725565b60008351116108f05760405162461bcd60e51b81526020600482015260156024820152745469746c652063616e6e6f7420626520656d70747960581b6044820152606401610500565b60008251116109415760405162461bcd60e51b815260206004820152601760248201527f436f6e74656e742063616e6e6f7420626520656d7074790000000000000000006044820152606401610500565b803410156109875760405162461bcd60e51b8152602060048201526013602482015272496e73756666696369656e7420626f756e747960681b6044820152606401610500565b6000805490806109968361176b565b9091555050600080546040805160e0810182528281523360208083019182528284018981526060840189905242608085015260a0840188905260c084018790528587526003909152929094208151815593516001850180546001600160a01b0319166001600160a01b039092169190911790559051919290916002820190610a1e90826117d3565b5060608201516003820190610a3390826117d3565b506080820151600482015560a0820151600582015560c0909101516006918201805460ff191691151591909117905533600081815260209283526040808220805460018101825590835293909120909201839055905182907fd9b9e1b916e7a6ed83ba10035a29fbe9306132df4c0b225c9223727dabf5acfa90610aba9088908790611893565b60405180910390a350505050565b600254600160a01b900460ff16610af15760405162461bcd60e51b815260040161050090611725565b6000818152600460205260408120549003610b465760405162461bcd60e51b8152602060048201526015602482015274105b9cddd95c88191bd95cc81b9bdd08195e1a5cdd605a1b6044820152606401610500565b600081815260046020526040902060020154336001600160a01b0390911603610bb15760405162461bcd60e51b815260206004820152601860248201527f43616e6e6f74207570766f7465206f776e20616e7377657200000000000000006044820152606401610500565b6000818152600460205260408120600501805491610bce8361176b565b909155505060008181526004602090815260408083206002908101546001600160a01b0316845260059092528220805491929091610c0d9084906118b5565b9091555050604051339082907fa51aa6e7a66a37c406e61e829ea3777e503276b5b5706aa6b22cc6cfd568370c90600090a350565b600080600060606000806000600460008981526020019081526020016000209050806000015481600101548260020160009054906101000a90046001600160a01b03168360030184600401548560050154828054610c9f906116eb565b80601f0160208091040260200160405190810160405280929190818152602001828054610ccb906116eb565b8015610d185780601f10610ced57610100808354040283529160200191610d18565b820191906000526020600020905b815481529060010190602001808311610cfb57829003601f168201915b505050505092509650965096509650965096505091939550919395565b600254600160a01b900460ff16610d5e5760405162461bcd60e51b815260040161050090611725565b6000828152600360205260408120549003610db55760405162461bcd60e51b8152602060048201526017602482015276145d595cdd1a5bdb88191bd95cc81b9bdd08195e1a5cdd604a1b6044820152606401610500565b60008281526003602052604090206006015460ff1615610e0e5760405162461bcd60e51b8152602060048201526014602482015273145d595cdd1a5bdb881a5cc81c995cdbdb1d995960621b6044820152606401610500565b6000815111610e585760405162461bcd60e51b8152602060048201526016602482015275416e737765722063616e6e6f7420626520656d70747960501b6044820152606401610500565b60018054906000610e688361176b565b9091555050600180546040805160c08101825282815260208082018781523383850190815260608401888152426080860152600060a0860181905287815260049094529490922083518155905195810195909555516002850180546001600160a01b0319166001600160a01b039092169190911790559051919290916003820190610ef390826117d3565b506080820151600482015560a09091015160059182015533600081815260076020908152604080832080546001818101835591855283852001879055938352939052918220805491929091610f499084906118b5565b90915550506040513390849083907f964e54a7e8b7511417d5a627b6471cfb7bc6c100a2bdfa074dcecf03f9edc0c790600090a4505050565b600080606080600080600080600360008a8152602001908152602001600020905080600001548160010160009054906101000a90046001600160a01b03168260020183600301846004015485600501548660060160009054906101000a900460ff16848054610ff0906116eb565b80601f016020809104026020016040519081016040528092919081815260200182805461101c906116eb565b80156110695780601f1061103e57610100808354040283529160200191611069565b820191906000526020600020905b81548152906001019060200180831161104c57829003601f168201915b5050505050945083805461107c906116eb565b80601f01602080910402602001604051908101604052809291908181526020018280546110a8906116eb565b80156110f55780601f106110ca576101008083540402835291602001916110f5565b820191906000526020600020905b8154815290600101906020018083116110d857829003601f168201915b50505050509350975097509750975097509750975050919395979092949650565b600254600160a01b900460ff1661113f5760405162461bcd60e51b815260040161050090611725565b6000828152600360205260409020600101546001600160a01b031633146111a85760405162461bcd60e51b815260206004820152601f60248201527f4f6e6c79207175657374696f6e2061736b65722063616e20617070726f7665006044820152606401610500565b60008281526003602052604081205490036111ff5760405162461bcd60e51b8152602060048201526017602482015276145d595cdd1a5bdb88191bd95cc81b9bdd08195e1a5cdd604a1b6044820152606401610500565b60008181526004602052604090206001015482146112695760405162461bcd60e51b815260206004820152602160248201527f416e7377657220646f65736e27742062656c6f6e6720746f207175657374696f6044820152603760f91b6064820152608401610500565b60008281526003602052604090206006015460ff16156112cb5760405162461bcd60e51b815260206004820152601960248201527f5175657374696f6e20616c7265616479207265736f6c766564000000000000006044820152606401610500565b6000828152600360209081526040808320600601805460ff1916600117905583835260048252808320600201546001600160a01b03168352600590915281208054600a929061131b9084906118b5565b909155505060008181526004602090815260408083206002015485845260039092528083206005015490516001600160a01b039092169281156108fc029290818181858888f19350505050158015611377573d6000803e3d6000fd5b506040513390829084907fe00c2d74241dff737fec8af60c5033479f9254ac0be931e2cd0cb9d3d781bdb890600090a45050565b6007602052816000526040600020818154811061067957600080fd5b80356001600160a01b03811681146113de57600080fd5b919050565b6000602082840312156113f557600080fd5b6113fe826113c7565b9392505050565b6020808252825182820181905260009190848201906040850190845b8181101561143d57835183529284019291840191600101611421565b50909695505050505050565b60006020828403121561145b57600080fd5b5035919050565b6000815180845260005b818110156114885760208185018101518683018201520161146c565b506000602082860101526020601f19601f83011685010191505092915050565b86815285602082015260018060a01b038516604082015260c0606082015260006114d560c0830186611462565b60808301949094525060a00152949350505050565b600080604083850312156114fd57600080fd5b611506836113c7565b946020939093013593505050565b8781526001600160a01b038716602082015260e06040820181905260009061153e90830188611462565b82810360608401526115508188611462565b6080840196909652505060a0810192909252151560c090910152949350505050565b634e487b7160e01b600052604160045260246000fd5b600082601f83011261159957600080fd5b813567ffffffffffffffff808211156115b4576115b4611572565b604051601f8301601f19908116603f011681019082821181831017156115dc576115dc611572565b816040528381528660208588010111156115f557600080fd5b836020870160208301376000602085830101528094505050505092915050565b60008060006060848603121561162a57600080fd5b833567ffffffffffffffff8082111561164257600080fd5b61164e87838801611588565b9450602086013591508082111561166457600080fd5b5061167186828701611588565b925050604084013590509250925092565b6000806040838503121561169557600080fd5b82359150602083013567ffffffffffffffff8111156116b357600080fd5b6116bf85828601611588565b9150509250929050565b600080604083850312156116dc57600080fd5b50508035926020909101359150565b600181811c908216806116ff57607f821691505b60208210810361171f57634e487b7160e01b600052602260045260246000fd5b50919050565b602080825260169082015275506c6174666f726d206973206e6f742061637469766560501b604082015260600190565b634e487b7160e01b600052601160045260246000fd5b60006001820161177d5761177d611755565b5060010190565b601f8211156117ce57600081815260208120601f850160051c810160208610156117ab5750805b601f850160051c820191505b818110156117ca578281556001016117b7565b5050505b505050565b815167ffffffffffffffff8111156117ed576117ed611572565b611801816117fb84546116eb565b84611784565b602080601f831160018114611836576000841561181e5750858301515b600019600386901b1c1916600185901b1785556117ca565b600085815260208120601f198616915b8281101561186557888601518255948401946001909101908401611846565b50858210156118835787850151600019600388901b60f8161c191681555b5050505050600190811b01905550565b6040815260006118a66040830185611462565b90508260208301529392505050565b808201808211156118c8576118c8611755565b9291505056fea26469706673582212203b07b7a12493edfe4db19f275144d2548c315dedd795b7148bb13d62ad9262b664736f6c63430008140033",
  "linkReferences": {},
  "deployedLinkReferences": {}
}