{
  "_format": "hh-sol-artifact-1",
  "contractName": "VeChainQuoraSimple",
  "sourceName": "contracts/VeChainQuoraSimple.sol",
  "abi": [
    {
      "anonymous": false,
      "inputs": [
        {
          "indexed": true,
          "internalType": "uint256",
          "name": "questionId",
          "type": "uint256"
        },
        {
          "indexed": true,
          "internalType": "uint256",
          "name": "answerId",
          "type": "uint256"
        },
        {
          "indexed": true,
          "internalType": "address",
          "name": "asker",
          "type": "address"
        }
      ],
      "name": "AnswerApproved",
      "type": "event"
    },
    {
      "anonymous": false,
      "inputs": [
        {
          "indexed": true,
          "internalType": "uint256",
          "name": "answerId",
          "type": "uint256"
        },
        {
          "indexed": true,
          "internalType": "uint256",
          "name": "questionId",
          "type": "uint256"
        },
        {
          "indexed": true,
          "internalType": "address",
          "name": "author",
          "type": "address"
        },
        {
          "indexed": false,
          "internalType": "string",
          "name": "content",
          "type": "string"
        }
      ],
      "name": "AnswerPosted",
      "type": "event"
    },
    {
      "anonymous": false,
      "inputs": [
        {
          "indexed": true,
          "internalType": "uint256",
          "name": "answerId",
          "type": "uint256"
        },
        {
          "indexed": true,
          "internalType": "address",
          "name": "voter",
          "type": "address"
        },
        {
          "indexed": true,
          "internalType": "address",
          "name": "author",
          "type": "address"
        }
      ],
      "name": "AnswerUpvoted",
      "type": "event"
    },
    {
      "anonymous": false,
      "inputs": [
        {
          "indexed": true,
          "internalType": "uint256",
          "name": "questionId",
          "type": "uint256"
        },
        {
          "indexed": true,
          "internalType": "address",
          "name": "asker",
          "type": "address"
        },
        {
          "indexed": false,
          "internalType": "string",
          "name": "title",
          "type": "string"
        },
        {
          "indexed": false,
          "internalType": "uint256",
          "name": "bounty",
          "type": "uint256"
        }
      ],
      "name": "QuestionAsked",
      "type": "event"
    },
    {
      "anonymous": false,
      "inputs": [
        {
          "indexed": true,
          "internalType": "address",
          "name": "user",
          "type": "address"
        },
        {
          "indexed": false,
          "internalType": "uint256",
          "name": "newReputation",
          "type": "uint256"
        },
        {
          "indexed": false,
          "internalType": "uint256",
          "name": "change",
          "type": "uint256"
        }
      ],
      "name": "ReputationUpdated",
      "type": "event"
    },
    {
      "inputs": [],
      "name": "MIN_ANSWER_INTERVAL",
      "outputs": [
        {
          "internalType": "uint256",
          "name": "",
          "type": "uint256"
        }
      ],
      "stateMutability": "view",
      "type": "function"
    },
    {
      "inputs": [],
      "name": "MIN_QUESTION_INTERVAL",
      "outputs": [
        {
          "internalType": "uint256",
          "name": "",
          "type": "uint256"
        }
      ],
      "stateMutability": "view",
      "type": "function"
    },
    {
      "inputs": [],
      "name": "MIN_REPUTATION_TO_ASK",
      "outputs": [
        {
          "internalType": "uint256",
          "name": "",
          "type": "uint256"
        }
      ],
      "stateMutability": "view",
      "type": "function"
    },
    {
      "inputs": [],
      "name": "answerCounter",
      "outputs": [
        {
          "internalType": "uint256",
          "name": "",
          "type": "uint256"
        }
      ],
      "stateMutability": "view",
      "type": "function"
    },
    {
      "inputs": [
        {
          "internalType": "uint256",
          "name": "",
          "type": "uint256"
        },
        {
          "internalType": "address",
          "name": "",
          "type": "address"
        }
      ],
      "name": "answerUpvoters",
      "outputs": [
        {
          "internalType": "bool",
          "name": "",
          "type": "bool"
        }
      ],
      "stateMutability": "view",
      "type": "function"
    },
    {
      "inputs": [
        {
          "internalType": "uint256",
          "name": "",
          "type": "uint256"
        }
      ],
      "name": "answers",
      "outputs": [
        {
          "internalType": "uint256",
          "name": "id",
          "type": "uint256"
        },
        {
          "internalType": "uint256",
          "name": "questionId",
          "type": "uint256"
        },
        {
          "internalType": "address",
          "name": "author",
          "type": "address"
        },
        {
          "internalType": "string",
          "name": "content",
          "type": "string"
        },
        {
          "internalType": "uint256",
          "name": "timestamp",
          "type": "uint256"
        },
        {
          "internalType": "uint256",
          "name": "upvotes",
          "type": "uint256"
        },
        {
          "internalType": "bool",
          "name": "isApproved",
          "type": "bool"
        }
      ],
      "stateMutability": "view",
      "type": "function"
    },
    {
      "inputs": [
        {
          "internalType": "uint256",
          "name": "questionId",
          "type": "uint256"
        },
        {
          "internalType": "uint256",
          "name": "answerId",
          "type": "uint256"
        }
      ],
      "name": "approveAnswer",
      "outputs": [],
      "stateMutability": "nonpayable",
      "type": "function"
    },
    {
      "inputs": [
        {
          "internalType": "string",
          "name": "title",
          "type": "string"
        },
        {
          "internalType": "string",
          "name": "content",
          "type": "string"
        },
        {
          "internalType": "string[]",
          "name": "tags",
          "type": "string[]"
        },
        {
          "internalType": "uint256",
          "name": "bounty",
          "type": "uint256"
        }
      ],
      "name": "askQuestion",
      "outputs": [],
      "stateMutability": "payable",
      "type": "function"
    },
    {
      "inputs": [
        {
          "internalType": "uint256",
          "name": "answerId",
          "type": "uint256"
        }
      ],
      "name": "getAnswer",
      "outputs": [
        {
          "internalType": "uint256",
          "name": "id",
          "type": "uint256"
        },
        {
          "internalType": "uint256",
          "name": "questionId",
          "type": "uint256"
        },
        {
          "internalType": "address",
          "name": "author",
          "type": "address"
        },
        {
          "internalType": "string",
          "name": "content",
          "type": "string"
        },
        {
          "internalType": "uint256",
          "name": "timestamp",
          "type": "uint256"
        },
        {
          "internalType": "uint256",
          "name": "upvotes",
          "type": "uint256"
        },
        {
          "internalType": "bool",
          "name": "isApproved",
          "type": "bool"
        }
      ],
      "stateMutability": "view",
      "type": "function"
    },
    {
      "inputs": [
        {
          "internalType": "uint256",
          "name": "questionId",
          "type": "uint256"
        }
      ],
      "name": "getQuestion",
      "outputs": [
        {
          "internalType": "uint256",
          "name": "id",
          "type": "uint256"
        },
        {
          "internalType": "address",
          "name": "asker",
          "type": "address"
        },
        {
          "internalType": "string",
          "name": "title",
          "type": "string"
        },
        {
          "internalType": "string",
          "name": "content",
          "type": "string"
        },
        {
          "internalType": "string[]",
          "name": "tags",
          "type": "string[]"
        },
        {
          "internalType": "uint256",
          "name": "timestamp",
          "type": "uint256"
        },
        {
          "internalType": "uint256",
          "name": "bounty",
          "type": "uint256"
        },
        {
          "internalType": "bool",
          "name": "isResolved",
          "type": "bool"
        },
        {
          "internalType": "address",
          "name": "approvedAnswer",
          "type": "address"
        },
        {
          "internalType": "uint256",
          "name": "totalAnswers",
          "type": "uint256"
        }
      ],
      "stateMutability": "view",
      "type": "function"
    },
    {
      "inputs": [
        {
          "internalType": "address",
          "name": "user",
          "type": "address"
        }
      ],
      "name": "getUserAnswers",
      "outputs": [
        {
          "internalType": "uint256[]",
          "name": "",
          "type": "uint256[]"
        }
      ],
      "stateMutability": "view",
      "type": "function"
    },
    {
      "inputs": [
        {
          "internalType": "address",
          "name": "user",
          "type": "address"
        }
      ],
      "name": "getUserProfile",
      "outputs": [
        {
          "internalType": "uint256",
          "name": "questionsAsked",
          "type": "uint256"
        },
        {
          "internalType": "uint256",
          "name": "answersGiven",
          "type": "uint256"
        },
        {
          "internalType": "uint256",
          "name": "totalUpvotes",
          "type": "uint256"
        },
        {
          "internalType": "uint256",
          "name": "reputation",
          "type": "uint256"
        }
      ],
      "stateMutability": "view",
      "type": "function"
    },
    {
      "inputs": [
        {
          "internalType": "address",
          "name": "user",
          "type": "address"
        }
      ],
      "name": "getUserQuestions",
      "outputs": [
        {
          "internalType": "uint256[]",
          "name": "",
          "type": "uint256[]"
        }
      ],
      "stateMutability": "view",
      "type": "function"
    },
    {
      "inputs": [],
      "name": "initializeUser",
      "outputs": [],
      "stateMutability": "nonpayable",
      "type": "function"
    },
    {
      "inputs": [
        {
          "internalType": "address",
          "name": "",
          "type": "address"
        }
      ],
      "name": "lastAnswerTime",
      "outputs": [
        {
          "internalType": "uint256",
          "name": "",
          "type": "uint256"
        }
      ],
      "stateMutability": "view",
      "type": "function"
    },
    {
      "inputs": [
        {
          "internalType": "address",
          "name": "",
          "type": "address"
        }
      ],
      "name": "lastQuestionTime",
      "outputs": [
        {
          "internalType": "uint256",
          "name": "",
          "type": "uint256"
        }
      ],
      "stateMutability": "view",
      "type": "function"
    },
    {
      "inputs": [
        {
          "internalType": "uint256",
          "name": "questionId",
          "type": "uint256"
        },
        {
          "internalType": "string",
          "name": "content",
          "type": "string"
        }
      ],
      "name": "postAnswer",
      "outputs": [],
      "stateMutability": "nonpayable",
      "type": "function"
    },
    {
      "inputs": [],
      "name": "questionCounter",
      "outputs": [
        {
          "internalType": "uint256",
          "name": "",
          "type": "uint256"
        }
      ],
      "stateMutability": "view",
      "type": "function"
    },
    {
      "inputs": [
        {
          "internalType": "uint256",
          "name": "",
          "type": "uint256"
        }
      ],
      "name": "questions",
      "outputs": [
        {
          "internalType": "uint256",
          "name": "id",
          "type": "uint256"
        },
        {
          "internalType": "address",
          "name": "asker",
          "type": "address"
        },
        {
          "internalType": "string",
          "name": "title",
          "type": "string"
        },
        {
          "internalType": "string",
          "name": "content",
          "type": "string"
        },
        {
          "internalType": "uint256",
          "name": "timestamp",
          "type": "uint256"
        },
        {
          "internalType": "uint256",
          "name": "bounty",
          "type": "uint256"
        },
        {
          "internalType": "bool",
          "name": "isResolved",
          "type": "bool"
        },
        {
          "internalType": "address",
          "name": "approvedAnswer",
          "type": "address"
        },
        {
          "internalType": "uint256",
          "name": "totalAnswers",
          "type": "uint256"
        }
      ],
      "stateMutability": "view",
      "type": "function"
    },
    {
      "inputs": [
        {
          "internalType": "uint256",
          "name": "answerId",
          "type": "uint256"
        }
      ],
      "name": "upvoteAnswer",
      "outputs": [],
      "stateMutability": "nonpayable",
      "type": "function"
    },
    {
      "inputs": [
        {
          "internalType": "address",
          "name": "",
          "type": "address"
        },
        {
          "internalType": "uint256",
          "name": "",
          "type": "uint256"
        }
      ],
      "name": "userAnswers",
      "outputs": [
        {
          "internalType": "uint256",
          "name": "",
          "type": "uint256"
        }
      ],
      "stateMutability": "view",
      "type": "function"
    },
    {
      "inputs": [
        {
          "internalType": "address",
          "name": "",
          "type": "address"
        }
      ],
      "name": "userProfiles",
      "outputs": [
        {
          "internalType": "address",
          "name": "user",
          "type": "address"
        },
        {
          "internalType": "uint256",
          "name": "questionsAsked",
          "type": "uint256"
        },
        {
          "internalType": "uint256",
          "name": "answersGiven",
          "type": "uint256"
        },
        {
          "internalType": "uint256",
          "name": "totalUpvotes",
          "type": "uint256"
        },
        {
          "internalType": "uint256",
          "name": "reputation",
          "type": "uint256"
        }
      ],
      "stateMutability": "view",
      "type": "function"
    },
    {
      "inputs": [
        {
          "internalType": "address",
          "name": "",
          "type": "address"
        },
        {
          "internalType": "uint256",
          "name": "",
          "type": "uint256"
        }
      ],
      "name": "userQuestions",
      "outputs": [
        {
          "internalType": "uint256",
          "name": "",
          "type": "uint256"
        }
      ],
      "stateMutability": "view",
      "type": "function"
    }
  ],
  "bytecode": "0x608060405234801561001057600080fd5b50612089806100206000396000f3fe6080604052600436106101405760003560e01c80635898852c116100b6578063b7b064a81161006f578063b7b064a814610475578063c3180cef1461048b578063c921d66c146104a1578063db88176f146104c1578063f5d6b5d1146104f7578063faf99c871461051757600080fd5b80635898852c1461033a578063663cc040146103505780637df88f241461037d578063987ee1561461039d578063b0508a621461040a578063b5ab58dc1461045557600080fd5b80632af3d7ed116101085780632af3d7ed146102145780632f068cfa1461023457806331b1b97814610254578063332d56d7146102895780634b3538881461031057806354b8d6be1461032757600080fd5b806301c2a6fe1461014557806310aa0be81461017b57806317599cc5146101b6578063203bfd2c146101e95780632776a444146101fe575b600080fd5b34801561015157600080fd5b5061016561016036600461199e565b610537565b60405161017291906119c0565b60405180910390f35b34801561018757600080fd5b506101a861019636600461199e565b60086020526000908152604090205481565b604051908152602001610172565b3480156101c257600080fd5b506101d66101d1366004611a04565b6105a3565b6040516101729796959493929190611a63565b3480156101f557600080fd5b506101a8600a81565b34801561020a57600080fd5b506101a861070881565b34801561022057600080fd5b5061016561022f36600461199e565b610678565b34801561024057600080fd5b506101a861024f366004611ab1565b6106e2565b34801561026057600080fd5b5061027461026f366004611a04565b610713565b60405161017299989796959493929190611adb565b34801561029557600080fd5b506102de6102a436600461199e565b6004602081905260009182526040909120805460018201546002830154600384015493909401546001600160a01b03909216939092909185565b604080516001600160a01b0390961686526020860194909452928401919091526060830152608082015260a001610172565b34801561031c57600080fd5b50610325610884565b005b610325610335366004611c00565b610903565b34801561034657600080fd5b506101a860015481565b34801561035c57600080fd5b506101a861036b36600461199e565b60096020526000908152604090205481565b34801561038957600080fd5b50610325610398366004611a04565b610cee565b3480156103a957600080fd5b506103ea6103b836600461199e565b6001600160a01b0316600090815260046020819052604090912060018101546002820154600383015492909301549093565b604080519485526020850193909352918301526060820152608001610172565b34801561041657600080fd5b50610445610425366004611d10565b600760209081526000928352604080842090915290825290205460ff1681565b6040519015158152602001610172565b34801561046157600080fd5b506101d6610470366004611a04565b610f74565b34801561048157600080fd5b506101a860005481565b34801561049757600080fd5b506101a8610e1081565b3480156104ad57600080fd5b506103256104bc366004611d3c565b611070565b3480156104cd57600080fd5b506104e16104dc366004611a04565b611360565b6040516101729a99989796959493929190611d83565b34801561050357600080fd5b50610325610512366004611e58565b6115f5565b34801561052357600080fd5b506101a8610532366004611ab1565b6118a1565b6001600160a01b03811660009081526005602090815260409182902080548351818402810184019094528084526060939283018282801561059757602002820191906000526020600020905b815481526020019060010190808311610583575b50505050509050919050565b60036020819052600091825260409091208054600182015460028301549383018054929491936001600160a01b03909216926105de90611e7a565b80601f016020809104026020016040519081016040528092919081815260200182805461060a90611e7a565b80156106575780601f1061062c57610100808354040283529160200191610657565b820191906000526020600020905b81548152906001019060200180831161063a57829003601f168201915b50505050600483015460058401546006909401549293909290915060ff1687565b6001600160a01b03811660009081526006602090815260409182902080548351818402810184019094528084526060939283018282801561059757602002820191906000526020600020908154815260200190600101908083116105835750505050509050919050565b600560205281600052604060002081815481106106fe57600080fd5b90600052602060002001600091509150505481565b600260208190526000918252604090912080546001820154928201805491936001600160a01b0316929161074690611e7a565b80601f016020809104026020016040519081016040528092919081815260200182805461077290611e7a565b80156107bf5780601f10610794576101008083540402835291602001916107bf565b820191906000526020600020905b8154815290600101906020018083116107a257829003601f168201915b5050505050908060030180546107d490611e7a565b80601f016020809104026020016040519081016040528092919081815260200182805461080090611e7a565b801561084d5780601f106108225761010080835404028352916020019161084d565b820191906000526020600020905b81548152906001019060200180831161083057829003601f168201915b505050506005830154600684015460078501546008909501549394919390925060ff82169161010090046001600160a01b03169089565b3360009081526004602081905260409091200154156108ea5760405162461bcd60e51b815260206004820152601860248201527f5573657220616c726561647920696e697469616c697a6564000000000000000060448201526064015b60405180910390fd5b3360009081526004602081905260409091206032910155565b600084511161094c5760405162461bcd60e51b81526020600482015260156024820152745469746c652063616e6e6f7420626520656d70747960581b60448201526064016108e1565b600083511161099d5760405162461bcd60e51b815260206004820152601760248201527f436f6e74656e742063616e6e6f7420626520656d70747900000000000000000060448201526064016108e1565b60008251116109ee5760405162461bcd60e51b815260206004820152601960248201527f4174206c65617374206f6e65207461672072657175697265640000000000000060448201526064016108e1565b80341015610a345760405162461bcd60e51b8152602060048201526013602482015272496e73756666696369656e7420626f756e747960681b60448201526064016108e1565b3360009081526004602081905260409091200154600a1115610aa95760405162461bcd60e51b815260206004820152602860248201527f496e73756666696369656e742072657075746174696f6e20746f2061736b207160448201526775657374696f6e7360c01b60648201526084016108e1565b33600090815260086020526040902054610e1090610ac79042611eca565b1015610b155760405162461bcd60e51b815260206004820181905260248201527f546f6f20736f6f6e20746f2061736b20616e6f74686572207175657374696f6e60448201526064016108e1565b600080549080610b2483611ee3565b90915550506000805460408051610140810182528281523360208083019182528284018a8152606084018a9052608084018990524260a085015260c0840188905260e0840187905261010084018790526101208401879052858752600291829052939095208251815590516001820180546001600160a01b0319166001600160a01b0390921691909117905591519293909290820190610bc49082611f4b565b5060608201516003820190610bd99082611f4b565b5060808201518051610bf59160048401916020909101906118bd565b5060a0820151600582015560c0820151600682015560e0820151600782018054610100808601516001600160a01b031602610100600160a81b0319931515939093166001600160a81b03199091161791909117905561012090910151600890910155336000908152600460205260408120600101805491610c7583611ee3565b90915550503360008181526005602090815260408083208054600181018255908452828420018590558383526008909152908190204290555182907fd9b9e1b916e7a6ed83ba10035a29fbe9306132df4c0b225c9223727dabf5acfa90610cdf908990879061200b565b60405180910390a35050505050565b6000818152600360205260408120549003610d435760405162461bcd60e51b8152602060048201526015602482015274105b9cddd95c88191bd95cc81b9bdd08195e1a5cdd605a1b60448201526064016108e1565b600081815260076020908152604080832033845290915290205460ff1615610d9f5760405162461bcd60e51b815260206004820152600f60248201526e105b1c9958591e481d5c1d9bdd1959608a1b60448201526064016108e1565b600081815260036020526040902060020154336001600160a01b0390911603610e0a5760405162461bcd60e51b815260206004820152601860248201527f43616e6e6f74207570766f7465206f776e20616e73776572000000000000000060448201526064016108e1565b6000818152600360205260408120600501805491610e2783611ee3565b909155505060008181526007602090815260408083203384528252808320805460ff191660011790558383526003808352818420600201546001600160a01b031684526004909252822001805491610e7e83611ee3565b90915550506000818152600360209081526040808320600201546001600160a01b03168352600491829052822001805460059290610ebd90849061202d565b90915550506000818152600360205260408082206002015490516001600160a01b0390911691339184917fe2a4e74b41d2573dc39ea73d8299312308dc994f1ee2b52b57004211b0f285a191a46000818152600360209081526040808320600201546001600160a01b03168084526004808452938290209093015481519081526005928101929092527f5b88a2e3fc1a53234357ab78c104df11c33ccfa79886793654565ad70b8afb6e910160405180910390a250565b600081815260036020819052604082208054600182015460028301546004840154600585015460068601549686018054899889986060988a98899889989397929691956001600160a01b03909116949193929160ff16908490610fd690611e7a565b80601f016020809104026020016040519081016040528092919081815260200182805461100290611e7a565b801561104f5780601f106110245761010080835404028352916020019161104f565b820191906000526020600020905b81548152906001019060200180831161103257829003601f168201915b50505050509350975097509750975097509750975050919395979092949650565b60008281526002602052604081205490036110c75760405162461bcd60e51b8152602060048201526017602482015276145d595cdd1a5bdb88191bd95cc81b9bdd08195e1a5cdd604a1b60448201526064016108e1565b60008281526002602052604090206007015460ff16156111205760405162461bcd60e51b8152602060048201526014602482015273145d595cdd1a5bdb881a5cc81c995cdbdb1d995960621b60448201526064016108e1565b600081511161116a5760405162461bcd60e51b8152602060048201526016602482015275416e737765722063616e6e6f7420626520656d70747960501b60448201526064016108e1565b33600090815260096020526040902054610708906111889042611eca565b10156111d65760405162461bcd60e51b815260206004820152601f60248201527f546f6f20736f6f6e20746f20706f737420616e6f7468657220616e737765720060448201526064016108e1565b600180549060006111e683611ee3565b9091555050600180546040805160e08101825282815260208082018781523383850190815260608401888152426080860152600060a0860181905260c08601819052878152600394859052959095208451815591519682019690965594516002860180546001600160a01b0319166001600160a01b03909216919091179055915192939092909182019061127a9082611f4b565b506080820151600482015560a0820151600582015560c0909101516006909101805460ff191691151591909117905560008381526002602052604081206008018054916112c683611ee3565b90915550503360009081526004602052604081206002018054916112e983611ee3565b909155505033600081815260066020908152604080832080546001810182559084528284200185905583835260099091529081902042905551849083907f203cd81921ba41181acd244c01f051f0b3cb6fbcccbc6683f614abee95757d6f90611353908790612040565b60405180910390a4505050565b6000806060806060600080600080600080600260008d8152602001908152602001600020905080600001548160010160009054906101000a90046001600160a01b0316826002018360030184600401856005015486600601548760070160009054906101000a900460ff168860070160019054906101000a90046001600160a01b031689600801548780546113f490611e7a565b80601f016020809104026020016040519081016040528092919081815260200182805461142090611e7a565b801561146d5780601f106114425761010080835404028352916020019161146d565b820191906000526020600020905b81548152906001019060200180831161145057829003601f168201915b5050505050975086805461148090611e7a565b80601f01602080910402602001604051908101604052809291908181526020018280546114ac90611e7a565b80156114f95780601f106114ce576101008083540402835291602001916114f9565b820191906000526020600020905b8154815290600101906020018083116114dc57829003601f168201915b5050505050965085805480602002602001604051908101604052809291908181526020016000905b828210156115cd57838290600052602060002001805461154090611e7a565b80601f016020809104026020016040519081016040528092919081815260200182805461156c90611e7a565b80156115b95780601f1061158e576101008083540402835291602001916115b9565b820191906000526020600020905b81548152906001019060200180831161159c57829003601f168201915b505050505081526020019060010190611521565b5050505095509a509a509a509a509a509a509a509a509a509a50509193959799509193959799565b6000828152600260205260409020600101546001600160a01b0316331461165e5760405162461bcd60e51b815260206004820152601f60248201527f4f6e6c79207175657374696f6e2061736b65722063616e20617070726f76650060448201526064016108e1565b60008281526002602052604081205490036116b55760405162461bcd60e51b8152602060048201526017602482015276145d595cdd1a5bdb88191bd95cc81b9bdd08195e1a5cdd604a1b60448201526064016108e1565b600081815260036020526040902060010154821461171f5760405162461bcd60e51b815260206004820152602160248201527f416e7377657220646f65736e27742062656c6f6e6720746f207175657374696f6044820152603760f91b60648201526084016108e1565b60008281526002602052604090206007015460ff16156117815760405162461bcd60e51b815260206004820152601960248201527f5175657374696f6e20616c7265616479207265736f6c7665640000000000000060448201526064016108e1565b60008281526002602081815260408084206007018054600160ff19808316821784558888526003865284882096870180546001600160a81b03199094166101006001600160a01b039586160217831790945560069096018054909616179094555490921683526004908190529082200180546014929061180290849061202d565b90915550506040513390829084907fe00c2d74241dff737fec8af60c5033479f9254ac0be931e2cd0cb9d3d781bdb890600090a46000818152600360209081526040808320600201546001600160a01b03168084526004808452938290209093015481519081526014928101929092527f5b88a2e3fc1a53234357ab78c104df11c33ccfa79886793654565ad70b8afb6e910160405180910390a25050565b600660205281600052604060002081815481106106fe57600080fd5b828054828255906000526020600020908101928215611903579160200282015b8281111561190357825182906118f39082611f4b565b50916020019190600101906118dd565b5061190f929150611913565b5090565b8082111561190f5760006119278282611930565b50600101611913565b50805461193c90611e7a565b6000825580601f1061194c575050565b601f01602090049060005260206000209081019061196a919061196d565b50565b5b8082111561190f576000815560010161196e565b80356001600160a01b038116811461199957600080fd5b919050565b6000602082840312156119b057600080fd5b6119b982611982565b9392505050565b6020808252825182820181905260009190848201906040850190845b818110156119f8578351835292840192918401916001016119dc565b50909695505050505050565b600060208284031215611a1657600080fd5b5035919050565b6000815180845260005b81811015611a4357602081850181015186830182015201611a27565b506000602082860101526020601f19601f83011685010191505092915050565b87815286602082015260018060a01b038616604082015260e060608201526000611a9060e0830187611a1d565b60808301959095525060a0810192909252151560c090910152949350505050565b60008060408385031215611ac457600080fd5b611acd83611982565b946020939093013593505050565b8981526001600160a01b03898116602083015261012060408301819052600091611b078483018c611a1d565b91508382036060850152611b1b828b611a1d565b608085019990995260a0840197909752505092151560c0840152921660e08201526101000152949350505050565b634e487b7160e01b600052604160045260246000fd5b604051601f8201601f1916810167ffffffffffffffff81118282101715611b8857611b88611b49565b604052919050565b600082601f830112611ba157600080fd5b813567ffffffffffffffff811115611bbb57611bbb611b49565b611bce601f8201601f1916602001611b5f565b818152846020838601011115611be357600080fd5b816020850160208301376000918101602001919091529392505050565b60008060008060808587031215611c1657600080fd5b843567ffffffffffffffff80821115611c2e57600080fd5b611c3a88838901611b90565b9550602091508187013581811115611c5157600080fd5b611c5d89828a01611b90565b955050604087013581811115611c7257600080fd5b8701601f81018913611c8357600080fd5b803582811115611c9557611c95611b49565b8060051b611ca4858201611b5f565b918252828101850191858101908c841115611cbe57600080fd5b86850192505b83831015611cfa57823586811115611cdc5760008081fd5b611cea8e8983890101611b90565b8352509186019190860190611cc4565b999c989b50989960600135985050505050505050565b60008060408385031215611d2357600080fd5b82359150611d3360208401611982565b90509250929050565b60008060408385031215611d4f57600080fd5b82359150602083013567ffffffffffffffff811115611d6d57600080fd5b611d7985828601611b90565b9150509250929050565b60006101408c8352602060018060a01b038d1681850152816040850152611dac8285018d611a1d565b91508382036060850152611dc0828c611a1d565b91508382036080850152818a518084528284019150828160051b850101838d0160005b83811015611e1157601f19878403018552611dff838351611a1d565b94860194925090850190600101611de3565b505080955050505050508660a08301528560c0830152611e3560e083018615159052565b6001600160a01b0393909316610100820152610120015298975050505050505050565b60008060408385031215611e6b57600080fd5b50508035926020909101359150565b600181811c90821680611e8e57607f821691505b602082108103611eae57634e487b7160e01b600052602260045260246000fd5b50919050565b634e487b7160e01b600052601160045260246000fd5b81810381811115611edd57611edd611eb4565b92915050565b600060018201611ef557611ef5611eb4565b5060010190565b601f821115611f4657600081815260208120601f850160051c81016020861015611f235750805b601f850160051c820191505b81811015611f4257828155600101611f2f565b5050505b505050565b815167ffffffffffffffff811115611f6557611f65611b49565b611f7981611f738454611e7a565b84611efc565b602080601f831160018114611fae5760008415611f965750858301515b600019600386901b1c1916600185901b178555611f42565b600085815260208120601f198616915b82811015611fdd57888601518255948401946001909101908401611fbe565b5085821015611ffb5787850151600019600388901b60f8161c191681555b5050505050600190811b01905550565b60408152600061201e6040830185611a1d565b90508260208301529392505050565b80820180821115611edd57611edd611eb4565b6020815260006119b96020830184611a1d56fea26469706673582212203b4e990d1d838b2a37e1c97ac686ad87e3e9616bb1ea507cf0a5b59ebd97645c64736f6c63430008140033",
  "linkReferences": {},
  "deployedLinkReferences": {}
}