{
  "_format": "hh-sol-artifact-1",
  "contractName": "VeChainQuoraOptimized",
  "sourceName": "contracts/VeChainQuoraOptimized.sol",
  "abi": [
    {
      "inputs": [],
      "stateMutability": "nonpayable",
      "type": "constructor"
    },
    {
      "anonymous": false,
      "inputs": [
        {
          "indexed": true,
          "internalType": "uint256",
          "name": "questionId",
          "type": "uint256"
        },
        {
          "indexed": true,
          "internalType": "uint256",
          "name": "answerId",
          "type": "uint256"
        },
        {
          "indexed": true,
          "internalType": "address",
          "name": "asker",
          "type": "address"
        }
      ],
      "name": "AnswerApproved",
      "type": "event"
    },
    {
      "anonymous": false,
      "inputs": [
        {
          "indexed": true,
          "internalType": "uint256",
          "name": "answerId",
          "type": "uint256"
        },
        {
          "indexed": true,
          "internalType": "uint256",
          "name": "questionId",
          "type": "uint256"
        },
        {
          "indexed": true,
          "internalType": "address",
          "name": "author",
          "type": "address"
        },
        {
          "indexed": false,
          "internalType": "string",
          "name": "content",
          "type": "string"
        }
      ],
      "name": "AnswerPosted",
      "type": "event"
    },
    {
      "anonymous": false,
      "inputs": [
        {
          "indexed": true,
          "internalType": "uint256",
          "name": "answerId",
          "type": "uint256"
        },
        {
          "indexed": true,
          "internalType": "address",
          "name": "voter",
          "type": "address"
        },
        {
          "indexed": true,
          "internalType": "address",
          "name": "author",
          "type": "address"
        }
      ],
      "name": "AnswerUpvoted",
      "type": "event"
    },
    {
      "anonymous": false,
      "inputs": [
        {
          "indexed": true,
          "internalType": "uint256",
          "name": "questionId",
          "type": "uint256"
        },
        {
          "indexed": true,
          "internalType": "address",
          "name": "asker",
          "type": "address"
        },
        {
          "indexed": false,
          "internalType": "string",
          "name": "title",
          "type": "string"
        },
        {
          "indexed": false,
          "internalType": "uint256",
          "name": "bounty",
          "type": "uint256"
        }
      ],
      "name": "QuestionAsked",
      "type": "event"
    },
    {
      "anonymous": false,
      "inputs": [
        {
          "indexed": true,
          "internalType": "address",
          "name": "user",
          "type": "address"
        },
        {
          "indexed": false,
          "internalType": "uint256",
          "name": "newReputation",
          "type": "uint256"
        },
        {
          "indexed": false,
          "internalType": "uint256",
          "name": "change",
          "type": "uint256"
        }
      ],
      "name": "ReputationUpdated",
      "type": "event"
    },
    {
      "anonymous": false,
      "inputs": [
        {
          "indexed": true,
          "internalType": "address",
          "name": "user",
          "type": "address"
        },
        {
          "indexed": false,
          "internalType": "uint256",
          "name": "timestamp",
          "type": "uint256"
        }
      ],
      "name": "UserRegistered",
      "type": "event"
    },
    {
      "inputs": [],
      "name": "MAX_DAILY_ANSWERS",
      "outputs": [
        {
          "internalType": "uint256",
          "name": "",
          "type": "uint256"
        }
      ],
      "stateMutability": "view",
      "type": "function"
    },
    {
      "inputs": [],
      "name": "MAX_DAILY_QUESTIONS",
      "outputs": [
        {
          "internalType": "uint256",
          "name": "",
          "type": "uint256"
        }
      ],
      "stateMutability": "view",
      "type": "function"
    },
    {
      "inputs": [],
      "name": "MIN_ANSWER_INTERVAL",
      "outputs": [
        {
          "internalType": "uint256",
          "name": "",
          "type": "uint256"
        }
      ],
      "stateMutability": "view",
      "type": "function"
    },
    {
      "inputs": [],
      "name": "MIN_QUESTION_INTERVAL",
      "outputs": [
        {
          "internalType": "uint256",
          "name": "",
          "type": "uint256"
        }
      ],
      "stateMutability": "view",
      "type": "function"
    },
    {
      "inputs": [],
      "name": "MIN_REPUTATION_TO_ASK",
      "outputs": [
        {
          "internalType": "uint256",
          "name": "",
          "type": "uint256"
        }
      ],
      "stateMutability": "view",
      "type": "function"
    },
    {
      "inputs": [],
      "name": "answerCounter",
      "outputs": [
        {
          "internalType": "uint256",
          "name": "",
          "type": "uint256"
        }
      ],
      "stateMutability": "view",
      "type": "function"
    },
    {
      "inputs": [
        {
          "internalType": "uint256",
          "name": "",
          "type": "uint256"
        },
        {
          "internalType": "address",
          "name": "",
          "type": "address"
        }
      ],
      "name": "answerUpvoters",
      "outputs": [
        {
          "internalType": "bool",
          "name": "",
          "type": "bool"
        }
      ],
      "stateMutability": "view",
      "type": "function"
    },
    {
      "inputs": [
        {
          "internalType": "uint256",
          "name": "",
          "type": "uint256"
        }
      ],
      "name": "answers",
      "outputs": [
        {
          "internalType": "uint256",
          "name": "id",
          "type": "uint256"
        },
        {
          "internalType": "uint256",
          "name": "questionId",
          "type": "uint256"
        },
        {
          "internalType": "address",
          "name": "author",
          "type": "address"
        },
        {
          "internalType": "string",
          "name": "content",
          "type": "string"
        },
        {
          "internalType": "uint256",
          "name": "timestamp",
          "type": "uint256"
        },
        {
          "internalType": "uint256",
          "name": "upvotes",
          "type": "uint256"
        },
        {
          "internalType": "bool",
          "name": "isApproved",
          "type": "bool"
        }
      ],
      "stateMutability": "view",
      "type": "function"
    },
    {
      "inputs": [
        {
          "internalType": "uint256",
          "name": "questionId",
          "type": "uint256"
        },
        {
          "internalType": "uint256",
          "name": "answerId",
          "type": "uint256"
        }
      ],
      "name": "approveAnswer",
      "outputs": [],
      "stateMutability": "nonpayable",
      "type": "function"
    },
    {
      "inputs": [
        {
          "internalType": "string",
          "name": "title",
          "type": "string"
        },
        {
          "internalType": "string",
          "name": "content",
          "type": "string"
        },
        {
          "internalType": "string[]",
          "name": "tags",
          "type": "string[]"
        },
        {
          "internalType": "uint256",
          "name": "bounty",
          "type": "uint256"
        }
      ],
      "name": "askQuestion",
      "outputs": [],
      "stateMutability": "payable",
      "type": "function"
    },
    {
      "inputs": [
        {
          "internalType": "address",
          "name": "",
          "type": "address"
        }
      ],
      "name": "dailyAnswers",
      "outputs": [
        {
          "internalType": "uint256",
          "name": "",
          "type": "uint256"
        }
      ],
      "stateMutability": "view",
      "type": "function"
    },
    {
      "inputs": [
        {
          "internalType": "address",
          "name": "",
          "type": "address"
        }
      ],
      "name": "dailyQuestions",
      "outputs": [
        {
          "internalType": "uint256",
          "name": "",
          "type": "uint256"
        }
      ],
      "stateMutability": "view",
      "type": "function"
    },
    {
      "inputs": [
        {
          "internalType": "uint256",
          "name": "answerId",
          "type": "uint256"
        }
      ],
      "name": "getAnswer",
      "outputs": [
        {
          "internalType": "uint256",
          "name": "id",
          "type": "uint256"
        },
        {
          "internalType": "uint256",
          "name": "questionId",
          "type": "uint256"
        },
        {
          "internalType": "address",
          "name": "author",
          "type": "address"
        },
        {
          "internalType": "string",
          "name": "content",
          "type": "string"
        },
        {
          "internalType": "uint256",
          "name": "timestamp",
          "type": "uint256"
        },
        {
          "internalType": "uint256",
          "name": "upvotes",
          "type": "uint256"
        },
        {
          "internalType": "bool",
          "name": "isApproved",
          "type": "bool"
        }
      ],
      "stateMutability": "view",
      "type": "function"
    },
    {
      "inputs": [],
      "name": "getPlatformStats",
      "outputs": [
        {
          "internalType": "uint256",
          "name": "users",
          "type": "uint256"
        },
        {
          "internalType": "uint256",
          "name": "questions",
          "type": "uint256"
        },
        {
          "internalType": "uint256",
          "name": "answers",
          "type": "uint256"
        },
        {
          "internalType": "uint256",
          "name": "rewards",
          "type": "uint256"
        }
      ],
      "stateMutability": "view",
      "type": "function"
    },
    {
      "inputs": [
        {
          "internalType": "uint256",
          "name": "questionId",
          "type": "uint256"
        }
      ],
      "name": "getQuestion",
      "outputs": [
        {
          "internalType": "uint256",
          "name": "id",
          "type": "uint256"
        },
        {
          "internalType": "address",
          "name": "asker",
          "type": "address"
        },
        {
          "internalType": "string",
          "name": "title",
          "type": "string"
        },
        {
          "internalType": "string",
          "name": "content",
          "type": "string"
        },
        {
          "internalType": "string[]",
          "name": "tags",
          "type": "string[]"
        },
        {
          "internalType": "uint256",
          "name": "timestamp",
          "type": "uint256"
        },
        {
          "internalType": "uint256",
          "name": "bounty",
          "type": "uint256"
        },
        {
          "internalType": "bool",
          "name": "isResolved",
          "type": "bool"
        },
        {
          "internalType": "address",
          "name": "approvedAnswer",
          "type": "address"
        },
        {
          "internalType": "uint256",
          "name": "totalAnswers",
          "type": "uint256"
        }
      ],
      "stateMutability": "view",
      "type": "function"
    },
    {
      "inputs": [
        {
          "internalType": "address",
          "name": "user",
          "type": "address"
        }
      ],
      "name": "getUserAnswers",
      "outputs": [
        {
          "internalType": "uint256[]",
          "name": "",
          "type": "uint256[]"
        }
      ],
      "stateMutability": "view",
      "type": "function"
    },
    {
      "inputs": [
        {
          "internalType": "address",
          "name": "user",
          "type": "address"
        }
      ],
      "name": "getUserProfile",
      "outputs": [
        {
          "internalType": "uint256",
          "name": "questionsAsked",
          "type": "uint256"
        },
        {
          "internalType": "uint256",
          "name": "answersGiven",
          "type": "uint256"
        },
        {
          "internalType": "uint256",
          "name": "totalUpvotes",
          "type": "uint256"
        },
        {
          "internalType": "uint256",
          "name": "reputation",
          "type": "uint256"
        },
        {
          "internalType": "bool",
          "name": "isVerified",
          "type": "bool"
        }
      ],
      "stateMutability": "view",
      "type": "function"
    },
    {
      "inputs": [
        {
          "internalType": "address",
          "name": "user",
          "type": "address"
        }
      ],
      "name": "getUserQuestions",
      "outputs": [
        {
          "internalType": "uint256[]",
          "name": "",
          "type": "uint256[]"
        }
      ],
      "stateMutability": "view",
      "type": "function"
    },
    {
      "inputs": [],
      "name": "isActive",
      "outputs": [
        {
          "internalType": "bool",
          "name": "",
          "type": "bool"
        }
      ],
      "stateMutability": "view",
      "type": "function"
    },
    {
      "inputs": [
        {
          "internalType": "address",
          "name": "",
          "type": "address"
        }
      ],
      "name": "lastAnswerTime",
      "outputs": [
        {
          "internalType": "uint256",
          "name": "",
          "type": "uint256"
        }
      ],
      "stateMutability": "view",
      "type": "function"
    },
    {
      "inputs": [
        {
          "internalType": "address",
          "name": "",
          "type": "address"
        }
      ],
      "name": "lastDailyReset",
      "outputs": [
        {
          "internalType": "uint256",
          "name": "",
          "type": "uint256"
        }
      ],
      "stateMutability": "view",
      "type": "function"
    },
    {
      "inputs": [
        {
          "internalType": "address",
          "name": "",
          "type": "address"
        }
      ],
      "name": "lastQuestionTime",
      "outputs": [
        {
          "internalType": "uint256",
          "name": "",
          "type": "uint256"
        }
      ],
      "stateMutability": "view",
      "type": "function"
    },
    {
      "inputs": [],
      "name": "owner",
      "outputs": [
        {
          "internalType": "address",
          "name": "",
          "type": "address"
        }
      ],
      "stateMutability": "view",
      "type": "function"
    },
    {
      "inputs": [
        {
          "internalType": "uint256",
          "name": "questionId",
          "type": "uint256"
        },
        {
          "internalType": "string",
          "name": "content",
          "type": "string"
        }
      ],
      "name": "postAnswer",
      "outputs": [],
      "stateMutability": "nonpayable",
      "type": "function"
    },
    {
      "inputs": [],
      "name": "questionCounter",
      "outputs": [
        {
          "internalType": "uint256",
          "name": "",
          "type": "uint256"
        }
      ],
      "stateMutability": "view",
      "type": "function"
    },
    {
      "inputs": [
        {
          "internalType": "uint256",
          "name": "",
          "type": "uint256"
        }
      ],
      "name": "questions",
      "outputs": [
        {
          "internalType": "uint256",
          "name": "id",
          "type": "uint256"
        },
        {
          "internalType": "address",
          "name": "asker",
          "type": "address"
        },
        {
          "internalType": "string",
          "name": "title",
          "type": "string"
        },
        {
          "internalType": "string",
          "name": "content",
          "type": "string"
        },
        {
          "internalType": "uint256",
          "name": "timestamp",
          "type": "uint256"
        },
        {
          "internalType": "uint256",
          "name": "bounty",
          "type": "uint256"
        },
        {
          "internalType": "bool",
          "name": "isResolved",
          "type": "bool"
        },
        {
          "internalType": "address",
          "name": "approvedAnswer",
          "type": "address"
        },
        {
          "internalType": "uint256",
          "name": "totalAnswers",
          "type": "uint256"
        }
      ],
      "stateMutability": "view",
      "type": "function"
    },
    {
      "inputs": [],
      "name": "registerUser",
      "outputs": [],
      "stateMutability": "nonpayable",
      "type": "function"
    },
    {
      "inputs": [
        {
          "internalType": "address",
          "name": "user",
          "type": "address"
        },
        {
          "internalType": "bool",
          "name": "status",
          "type": "bool"
        }
      ],
      "name": "setUserVerified",
      "outputs": [],
      "stateMutability": "nonpayable",
      "type": "function"
    },
    {
      "inputs": [],
      "name": "togglePlatform",
      "outputs": [],
      "stateMutability": "nonpayable",
      "type": "function"
    },
    {
      "inputs": [
        {
          "internalType": "uint256",
          "name": "answerId",
          "type": "uint256"
        }
      ],
      "name": "upvoteAnswer",
      "outputs": [],
      "stateMutability": "nonpayable",
      "type": "function"
    },
    {
      "inputs": [
        {
          "internalType": "address",
          "name": "",
          "type": "address"
        },
        {
          "internalType": "uint256",
          "name": "",
          "type": "uint256"
        }
      ],
      "name": "userAnswers",
      "outputs": [
        {
          "internalType": "uint256",
          "name": "",
          "type": "uint256"
        }
      ],
      "stateMutability": "view",
      "type": "function"
    },
    {
      "inputs": [
        {
          "internalType": "address",
          "name": "",
          "type": "address"
        }
      ],
      "name": "userProfiles",
      "outputs": [
        {
          "internalType": "address",
          "name": "user",
          "type": "address"
        },
        {
          "internalType": "uint256",
          "name": "questionsAsked",
          "type": "uint256"
        },
        {
          "internalType": "uint256",
          "name": "answersGiven",
          "type": "uint256"
        },
        {
          "internalType": "uint256",
          "name": "totalUpvotes",
          "type": "uint256"
        },
        {
          "internalType": "uint256",
          "name": "reputation",
          "type": "uint256"
        },
        {
          "internalType": "bool",
          "name": "isVerified",
          "type": "bool"
        }
      ],
      "stateMutability": "view",
      "type": "function"
    },
    {
      "inputs": [
        {
          "internalType": "address",
          "name": "",
          "type": "address"
        },
        {
          "internalType": "uint256",
          "name": "",
          "type": "uint256"
        }
      ],
      "name": "userQuestions",
      "outputs": [
        {
          "internalType": "uint256",
          "name": "",
          "type": "uint256"
        }
      ],
      "stateMutability": "view",
      "type": "function"
    }
  ],
  "bytecode": "0x608060405234801561001057600080fd5b50600d805460ff60a01b1933166001600160a81b031990911617600160a01b1790556127ad806100416000396000f3fe6080604052600436106101ee5760003560e01c8063663cc0401161010d578063b5ab58dc116100a0578063c921d66c1161006f578063c921d66c146106af578063da076840146106cf578063db88176f146106fc578063f5d6b5d114610732578063faf99c871461075257600080fd5b8063b5ab58dc1461064e578063b7b064a81461066e578063c3180cef14610684578063c581c4231461069a57600080fd5b80638fd56938116100dc5780638fd569381461031857806398581e6e1461056f578063987ee1561461058f578063b0508a621461061357600080fd5b8063663cc040146104bd5780637813d782146104ea5780637df88f24146105175780638da5cb5b1461053757600080fd5b80632776a44411610185578063332d56d711610154578063332d56d7146103e95780634d3820eb1461047f57806354b8d6be146104945780635898852c146104a757600080fd5b80632776a4441461035e5780632af3d7ed146103745780632f068cfa1461039457806331b1b978146103b457600080fd5b806317599cc5116101c157806317599cc5146102b85780631fe1881c146102eb578063203bfd2c1461031857806322f3e2d41461032d57600080fd5b806301c2a6fe146101f357806310aa0be81461022957806311a7ddf514610264578063136d88831461027b575b600080fd5b3480156101ff57600080fd5b5061021361020e36600461203a565b610772565b604051610220919061205c565b60405180910390f35b34801561023557600080fd5b5061025661024436600461203a565b60086020526000908152604090205481565b604051908152602001610220565b34801561027057600080fd5b506102796107de565b005b34801561028757600080fd5b506102986000805460015490918293565b604080519485526020850193909352918301526060820152608001610220565b3480156102c457600080fd5b506102d86102d33660046120a0565b61085e565b60405161022097969594939291906120ff565b3480156102f757600080fd5b5061025661030636600461203a565b600a6020526000908152604090205481565b34801561032457600080fd5b50610256600a81565b34801561033957600080fd5b50600d5461034e90600160a01b900460ff1681565b6040519015158152602001610220565b34801561036a57600080fd5b5061025661070881565b34801561038057600080fd5b5061021361038f36600461203a565b610933565b3480156103a057600080fd5b506102566103af36600461214d565b61099d565b3480156103c057600080fd5b506103d46103cf3660046120a0565b6109ce565b60405161022099989796959493929190612177565b3480156103f557600080fd5b5061044661040436600461203a565b60046020819052600091825260409091208054600182015460028301546003840154948401546005909401546001600160a01b03909316949193909260ff1686565b604080516001600160a01b03909716875260208701959095529385019290925260608401526080830152151560a082015260c001610220565b34801561048b57600080fd5b50610279610b3f565b6102796104a236600461229c565b610c90565b3480156104b357600080fd5b5061025660015481565b3480156104c957600080fd5b506102566104d836600461203a565b60096020526000908152604090205481565b3480156104f657600080fd5b5061025661050536600461203a565b600c6020526000908152604090205481565b34801561052357600080fd5b506102796105323660046120a0565b61112d565b34801561054357600080fd5b50600d54610557906001600160a01b031681565b6040516001600160a01b039091168152602001610220565b34801561057b57600080fd5b5061027961058a3660046123ac565b61135c565b34801561059b57600080fd5b506105e96105aa36600461203a565b6001600160a01b031660009081526004602081905260409091206001810154600282015460038301549383015460059093015491949093929160ff1690565b6040805195865260208601949094529284019190915260608301521515608082015260a001610220565b34801561061f57600080fd5b5061034e61062e3660046123e8565b600760209081526000928352604080842090915290825290205460ff1681565b34801561065a57600080fd5b506102d86106693660046120a0565b6113e4565b34801561067a57600080fd5b5061025660005481565b34801561069057600080fd5b50610256610e1081565b3480156106a657600080fd5b50610256603281565b3480156106bb57600080fd5b506102796106ca366004612414565b6114e0565b3480156106db57600080fd5b506102566106ea36600461203a565b600b6020526000908152604090205481565b34801561070857600080fd5b5061071c6107173660046120a0565b61188b565b6040516102209a9998979695949392919061245b565b34801561073e57600080fd5b5061027961074d366004612530565b611b20565b34801561075e57600080fd5b5061025661076d36600461214d565b611dcd565b6001600160a01b0381166000908152600560209081526040918290208054835181840281018401909452808452606093928301828280156107d257602002820191906000526020600020905b8154815260200190600101908083116107be575b50505050509050919050565b600d546001600160a01b0316331461083d5760405162461bcd60e51b815260206004820152601e60248201527f4f6e6c79206f776e65722063616e20746f67676c6520706c6174666f726d000060448201526064015b60405180910390fd5b600d805460ff60a01b198116600160a01b9182900460ff1615909102179055565b60036020819052600091825260409091208054600182015460028301549383018054929491936001600160a01b039092169261089990612552565b80601f01602080910402602001604051908101604052809291908181526020018280546108c590612552565b80156109125780601f106108e757610100808354040283529160200191610912565b820191906000526020600020905b8154815290600101906020018083116108f557829003601f168201915b50505050600483015460058401546006909401549293909290915060ff1687565b6001600160a01b0381166000908152600660209081526040918290208054835181840281018401909452808452606093928301828280156107d257602002820191906000526020600020908154815260200190600101908083116107be5750505050509050919050565b600560205281600052604060002081815481106109b957600080fd5b90600052602060002001600091509150505481565b600260208190526000918252604090912080546001820154928201805491936001600160a01b03169291610a0190612552565b80601f0160208091040260200160405190810160405280929190818152602001828054610a2d90612552565b8015610a7a5780601f10610a4f57610100808354040283529160200191610a7a565b820191906000526020600020905b815481529060010190602001808311610a5d57829003601f168201915b505050505090806003018054610a8f90612552565b80601f0160208091040260200160405190810160405280929190818152602001828054610abb90612552565b8015610b085780601f10610add57610100808354040283529160200191610b08565b820191906000526020600020905b815481529060010190602001808311610aeb57829003601f168201915b505050506005830154600684015460078501546008909501549394919390925060ff82169161010090046001600160a01b03169089565b600d54600160a01b900460ff16610b685760405162461bcd60e51b81526004016108349061258c565b336000908152600460205260409020546001600160a01b031615610bce5760405162461bcd60e51b815260206004820152601760248201527f5573657220616c726561647920726567697374657265640000000000000000006044820152606401610834565b6040805160c08101825233808252600060208084018281528486018381526060860184815260326080880190815260a088018681528787526004808752968a9020985189546001600160a01b0319166001600160a01b039091161789559351600189015591516002880155516003870155519285019290925590516005909301805460ff19169315159390931790925591514281527fe29d35093005f4d575e1003753426b57a7f64378ba73332eef9c6ccc2b8decd6910160405180910390a2565b600d54600160a01b900460ff16610cb95760405162461bcd60e51b81526004016108349061258c565b6000845111610d025760405162461bcd60e51b81526020600482015260156024820152745469746c652063616e6e6f7420626520656d70747960581b6044820152606401610834565b6000835111610d535760405162461bcd60e51b815260206004820152601760248201527f436f6e74656e742063616e6e6f7420626520656d7074790000000000000000006044820152606401610834565b6000825111610da45760405162461bcd60e51b815260206004820152601960248201527f4174206c65617374206f6e6520746167207265717569726564000000000000006044820152606401610834565b80341015610dea5760405162461bcd60e51b8152602060048201526013602482015272496e73756666696369656e7420626f756e747960681b6044820152606401610834565b3360009081526004602081905260409091200154600a1115610e5f5760405162461bcd60e51b815260206004820152602860248201527f496e73756666696369656e742072657075746174696f6e20746f2061736b207160448201526775657374696f6e7360c01b6064820152608401610834565b33600090815260086020526040902054610e1090610e7d90426125d2565b1015610ecb5760405162461bcd60e51b815260206004820181905260248201527f546f6f20736f6f6e20746f2061736b20616e6f74686572207175657374696f6e6044820152606401610834565b610ed433611de9565b336000908152600a602081905260409091205410610f345760405162461bcd60e51b815260206004820152601c60248201527f4461696c79207175657374696f6e206c696d69742072656163686564000000006044820152606401610834565b600080549080610f43836125eb565b90915550506000805460408051610140810182528281523360208083019182528284018a8152606084018a9052608084018990524260a085015260c0840188905260e0840187905261010084018790526101208401879052858752600291829052939095208251815590516001820180546001600160a01b0319166001600160a01b0390921691909117905591519293909290820190610fe39082612653565b5060608201516003820190610ff89082612653565b5060808201518051611014916004840191602090910190611f61565b5060a0820151600582015560c0820151600682015560e0820151600782018054610100808601516001600160a01b031602610100600160a81b0319931515939093166001600160a81b03199091161791909117905561012090910151600890910155336000908152600460205260408120600101805491611094836125eb565b909155505033600081815260056020908152604080832080546001810182559084528284200185905592825260088152828220429055600a90529081208054916110dd836125eb565b9190505550336001600160a01b0316817fd9b9e1b916e7a6ed83ba10035a29fbe9306132df4c0b225c9223727dabf5acfa878560405161111e929190612713565b60405180910390a35050505050565b600d54600160a01b900460ff166111565760405162461bcd60e51b81526004016108349061258c565b60008181526003602052604081205490036111ab5760405162461bcd60e51b8152602060048201526015602482015274105b9cddd95c88191bd95cc81b9bdd08195e1a5cdd605a1b6044820152606401610834565b600081815260076020908152604080832033845290915290205460ff16156112075760405162461bcd60e51b815260206004820152600f60248201526e105b1c9958591e481d5c1d9bdd1959608a1b6044820152606401610834565b600081815260036020526040902060020154336001600160a01b03909116036112725760405162461bcd60e51b815260206004820152601860248201527f43616e6e6f74207570766f7465206f776e20616e7377657200000000000000006044820152606401610834565b600081815260036020526040812060050180549161128f836125eb565b909155505060008181526007602090815260408083203384528252808320805460ff191660011790558383526003808352818420600201546001600160a01b0316845260049092528220018054916112e6836125eb565b9091555050600081815260036020526040902060020154611311906001600160a01b03166005611e4c565b6000818152600360205260408082206002015490516001600160a01b0390911691339184917fe2a4e74b41d2573dc39ea73d8299312308dc994f1ee2b52b57004211b0f285a191a450565b600d546001600160a01b031633146113b65760405162461bcd60e51b815260206004820152601f60248201527f4f6e6c79206f776e65722063616e2073657420766572696669636174696f6e006044820152606401610834565b6001600160a01b03919091166000908152600460205260409020600501805460ff1916911515919091179055565b600081815260036020819052604082208054600182015460028301546004840154600585015460068601549686018054899889986060988a98899889989397929691956001600160a01b03909116949193929160ff1690849061144690612552565b80601f016020809104026020016040519081016040528092919081815260200182805461147290612552565b80156114bf5780601f10611494576101008083540402835291602001916114bf565b820191906000526020600020905b8154815290600101906020018083116114a257829003601f168201915b50505050509350975097509750975097509750975050919395979092949650565b600d54600160a01b900460ff166115095760405162461bcd60e51b81526004016108349061258c565b60008281526002602052604081205490036115605760405162461bcd60e51b8152602060048201526017602482015276145d595cdd1a5bdb88191bd95cc81b9bdd08195e1a5cdd604a1b6044820152606401610834565b60008281526002602052604090206007015460ff16156115b95760405162461bcd60e51b8152602060048201526014602482015273145d595cdd1a5bdb881a5cc81c995cdbdb1d995960621b6044820152606401610834565b60008151116116035760405162461bcd60e51b8152602060048201526016602482015275416e737765722063616e6e6f7420626520656d70747960501b6044820152606401610834565b336000908152600960205260409020546107089061162190426125d2565b101561166f5760405162461bcd60e51b815260206004820152601f60248201527f546f6f20736f6f6e20746f20706f737420616e6f7468657220616e73776572006044820152606401610834565b61167833611de9565b336000908152600b60205260409020546032116116d75760405162461bcd60e51b815260206004820152601a60248201527f4461696c7920616e73776572206c696d697420726561636865640000000000006044820152606401610834565b600180549060006116e7836125eb565b9091555050600180546040805160e08101825282815260208082018781523383850190815260608401888152426080860152600060a0860181905260c08601819052878152600394859052959095208451815591519682019690965594516002860180546001600160a01b0319166001600160a01b03909216919091179055915192939092909182019061177b9082612653565b506080820151600482015560a0820151600582015560c0909101516006909101805460ff191691151591909117905560008381526002602052604081206008018054916117c7836125eb565b90915550503360009081526004602052604081206002018054916117ea836125eb565b909155505033600081815260066020908152604080832080546001810182559084528284200185905592825260098152828220429055600b9052908120805491611833836125eb565b9190505550611843336001611e4c565b336001600160a01b031683827f203cd81921ba41181acd244c01f051f0b3cb6fbcccbc6683f614abee95757d6f8560405161187e9190612735565b60405180910390a4505050565b6000806060806060600080600080600080600260008d8152602001908152602001600020905080600001548160010160009054906101000a90046001600160a01b0316826002018360030184600401856005015486600601548760070160009054906101000a900460ff168860070160019054906101000a90046001600160a01b0316896008015487805461191f90612552565b80601f016020809104026020016040519081016040528092919081815260200182805461194b90612552565b80156119985780601f1061196d57610100808354040283529160200191611998565b820191906000526020600020905b81548152906001019060200180831161197b57829003601f168201915b505050505097508680546119ab90612552565b80601f01602080910402602001604051908101604052809291908181526020018280546119d790612552565b8015611a245780601f106119f957610100808354040283529160200191611a24565b820191906000526020600020905b815481529060010190602001808311611a0757829003601f168201915b5050505050965085805480602002602001604051908101604052809291908181526020016000905b82821015611af8578382906000526020600020018054611a6b90612552565b80601f0160208091040260200160405190810160405280929190818152602001828054611a9790612552565b8015611ae45780601f10611ab957610100808354040283529160200191611ae4565b820191906000526020600020905b815481529060010190602001808311611ac757829003601f168201915b505050505081526020019060010190611a4c565b5050505095509a509a509a509a509a509a509a509a509a509a50509193959799509193959799565b600d54600160a01b900460ff16611b495760405162461bcd60e51b81526004016108349061258c565b6000828152600260205260409020600101546001600160a01b03163314611bb25760405162461bcd60e51b815260206004820152601f60248201527f4f6e6c79207175657374696f6e2061736b65722063616e20617070726f7665006044820152606401610834565b6000828152600260205260408120549003611c095760405162461bcd60e51b8152602060048201526017602482015276145d595cdd1a5bdb88191bd95cc81b9bdd08195e1a5cdd604a1b6044820152606401610834565b6000818152600360205260409020600101548214611c735760405162461bcd60e51b815260206004820152602160248201527f416e7377657220646f65736e27742062656c6f6e6720746f207175657374696f6044820152603760f91b6064820152608401610834565b60008281526002602052604090206007015460ff1615611cd55760405162461bcd60e51b815260206004820152601960248201527f5175657374696f6e20616c7265616479207265736f6c766564000000000000006044820152606401610834565b60008281526002602081815260408084206007018054600160ff198083168217845588885260039095529290952093840180546001600160a81b03199096166101006001600160a01b03978816021783179091556006909301805490921617905554611d4391166014611e4c565b600081815260036020908152604080832060029081015486855292528083206006015490516001600160a01b039092169281156108fc029290818181858888f19350505050158015611d99573d6000803e3d6000fd5b506040513390829084907fe00c2d74241dff737fec8af60c5033479f9254ac0be931e2cd0cb9d3d781bdb890600090a45050565b600660205281600052604060002081815481106109b957600080fd5b6001600160a01b0381166000908152600c60205260409020546201518090611e1190426125d2565b10611e49576001600160a01b0381166000908152600a60209081526040808320839055600b8252808320839055600c90915290204290555b50565b6000811315611e8b576001600160a01b03821660009081526004602081905260408220018054839290611e80908490612748565b90915550611f079050565b611e948161275b565b6001600160a01b0383166000908152600460208190526040909120015410611eea57611ebf8161275b565b6001600160a01b03831660009081526004602081905260408220018054909190611e809084906125d2565b6001600160a01b0382166000908152600460208190526040822001555b6001600160a01b0382166000818152600460208181526040928390209091015482519081529081018490527f5b88a2e3fc1a53234357ab78c104df11c33ccfa79886793654565ad70b8afb6e910160405180910390a25050565b828054828255906000526020600020908101928215611fa7579160200282015b82811115611fa75782518290611f979082612653565b5091602001919060010190611f81565b50611fb3929150611fb7565b5090565b80821115611fb3576000611fcb8282611fd4565b50600101611fb7565b508054611fe090612552565b6000825580601f10611ff0575050565b601f016020900490600052602060002090810190611e4991905b80821115611fb3576000815560010161200a565b80356001600160a01b038116811461203557600080fd5b919050565b60006020828403121561204c57600080fd5b6120558261201e565b9392505050565b6020808252825182820181905260009190848201906040850190845b8181101561209457835183529284019291840191600101612078565b50909695505050505050565b6000602082840312156120b257600080fd5b5035919050565b6000815180845260005b818110156120df576020818501810151868301820152016120c3565b506000602082860101526020601f19601f83011685010191505092915050565b87815286602082015260018060a01b038616604082015260e06060820152600061212c60e08301876120b9565b60808301959095525060a0810192909252151560c090910152949350505050565b6000806040838503121561216057600080fd5b6121698361201e565b946020939093013593505050565b8981526001600160a01b038981166020830152610120604083018190526000916121a38483018c6120b9565b915083820360608501526121b7828b6120b9565b608085019990995260a0840197909752505092151560c0840152921660e08201526101000152949350505050565b634e487b7160e01b600052604160045260246000fd5b604051601f8201601f1916810167ffffffffffffffff81118282101715612224576122246121e5565b604052919050565b600082601f83011261223d57600080fd5b813567ffffffffffffffff811115612257576122576121e5565b61226a601f8201601f19166020016121fb565b81815284602083860101111561227f57600080fd5b816020850160208301376000918101602001919091529392505050565b600080600080608085870312156122b257600080fd5b843567ffffffffffffffff808211156122ca57600080fd5b6122d68883890161222c565b95506020915081870135818111156122ed57600080fd5b6122f989828a0161222c565b95505060408701358181111561230e57600080fd5b8701601f8101891361231f57600080fd5b803582811115612331576123316121e5565b8060051b6123408582016121fb565b918252828101850191858101908c84111561235a57600080fd5b86850192505b83831015612396578235868111156123785760008081fd5b6123868e898389010161222c565b8352509186019190860190612360565b999c989b50989960600135985050505050505050565b600080604083850312156123bf57600080fd5b6123c88361201e565b9150602083013580151581146123dd57600080fd5b809150509250929050565b600080604083850312156123fb57600080fd5b8235915061240b6020840161201e565b90509250929050565b6000806040838503121561242757600080fd5b82359150602083013567ffffffffffffffff81111561244557600080fd5b6124518582860161222c565b9150509250929050565b60006101408c8352602060018060a01b038d16818501528160408501526124848285018d6120b9565b91508382036060850152612498828c6120b9565b91508382036080850152818a518084528284019150828160051b850101838d0160005b838110156124e957601f198784030185526124d78383516120b9565b948601949250908501906001016124bb565b505080955050505050508660a08301528560c083015261250d60e083018615159052565b6001600160a01b0393909316610100820152610120015298975050505050505050565b6000806040838503121561254357600080fd5b50508035926020909101359150565b600181811c9082168061256657607f821691505b60208210810361258657634e487b7160e01b600052602260045260246000fd5b50919050565b602080825260169082015275506c6174666f726d206973206e6f742061637469766560501b604082015260600190565b634e487b7160e01b600052601160045260246000fd5b818103818111156125e5576125e56125bc565b92915050565b6000600182016125fd576125fd6125bc565b5060010190565b601f82111561264e57600081815260208120601f850160051c8101602086101561262b5750805b601f850160051c820191505b8181101561264a57828155600101612637565b5050505b505050565b815167ffffffffffffffff81111561266d5761266d6121e5565b6126818161267b8454612552565b84612604565b602080601f8311600181146126b6576000841561269e5750858301515b600019600386901b1c1916600185901b17855561264a565b600085815260208120601f198616915b828110156126e5578886015182559484019460019091019084016126c6565b50858210156127035787850151600019600388901b60f8161c191681555b5050505050600190811b01905550565b60408152600061272660408301856120b9565b90508260208301529392505050565b60208152600061205560208301846120b9565b808201808211156125e5576125e56125bc565b6000600160ff1b8201612770576127706125bc565b506000039056fea2646970667358221220632400bfed220e5f804e2a35438b8acb0de7ea9381d26057b23831b843e3c8f064736f6c63430008140033",
  "linkReferences": {},
  "deployedLinkReferences": {}
}