{
  "_format": "hh-sol-artifact-1",
  "contractName": "SimpleQA",
  "sourceName": "contracts/SimpleQA.sol",
  "abi": [
    {
      "inputs": [
        {
          "internalType": "address",
          "name": "_x2EarnRewardsPoolContract",
          "type": "address"
        },
        {
          "internalType": "bytes32",
          "name": "_appId",
          "type": "bytes32"
        }
      ],
      "stateMutability": "nonpayable",
      "type": "constructor"
    },
    {
      "anonymous": false,
      "inputs": [
        {
          "indexed": true,
          "internalType": "uint256",
          "name": "answerId",
          "type": "uint256"
        },
        {
          "indexed": true,
          "internalType": "uint256",
          "name": "questionId",
          "type": "uint256"
        },
        {
          "indexed": true,
          "internalType": "address",
          "name": "answerer",
          "type": "address"
        },
        {
          "indexed": false,
          "internalType": "uint256",
          "name": "rewardAmount",
          "type": "uint256"
        }
      ],
      "name": "AnswerApproved",
      "type": "event"
    },
    {
      "anonymous": false,
      "inputs": [
        {
          "indexed": true,
          "internalType": "uint256",
          "name": "answerId",
          "type": "uint256"
        },
        {
          "indexed": true,
          "internalType": "uint256",
          "name": "questionId",
          "type": "uint256"
        },
        {
          "indexed": true,
          "internalType": "address",
          "name": "answerer",
          "type": "address"
        },
        {
          "indexed": false,
          "internalType": "string",
          "name": "content",
          "type": "string"
        }
      ],
      "name": "AnswerSubmitted",
      "type": "event"
    },
    {
      "anonymous": false,
      "inputs": [
        {
          "indexed": true,
          "internalType": "uint256",
          "name": "answerId",
          "type": "uint256"
        },
        {
          "indexed": true,
          "internalType": "address",
          "name": "upvoter",
          "type": "address"
        },
        {
          "indexed": false,
          "internalType": "uint256",
          "name": "newUpvoteCount",
          "type": "uint256"
        }
      ],
      "name": "AnswerUpvoted",
      "type": "event"
    },
    {
      "anonymous": false,
      "inputs": [
        {
          "indexed": true,
          "internalType": "uint256",
          "name": "questionId",
          "type": "uint256"
        },
        {
          "indexed": true,
          "internalType": "address",
          "name": "asker",
          "type": "address"
        },
        {
          "indexed": false,
          "internalType": "string",
          "name": "title",
          "type": "string"
        },
        {
          "indexed": false,
          "internalType": "uint256",
          "name": "bounty",
          "type": "uint256"
        }
      ],
      "name": "QuestionAsked",
      "type": "event"
    },
    {
      "anonymous": false,
      "inputs": [
        {
          "indexed": true,
          "internalType": "uint256",
          "name": "questionId",
          "type": "uint256"
        },
        {
          "indexed": true,
          "internalType": "address",
          "name": "upvoter",
          "type": "address"
        },
        {
          "indexed": false,
          "internalType": "uint256",
          "name": "newUpvoteCount",
          "type": "uint256"
        }
      ],
      "name": "QuestionUpvoted",
      "type": "event"
    },
    {
      "anonymous": false,
      "inputs": [
        {
          "indexed": true,
          "internalType": "address",
          "name": "receiver",
          "type": "address"
        },
        {
          "indexed": false,
          "internalType": "uint256",
          "name": "amount",
          "type": "uint256"
        },
        {
          "indexed": false,
          "internalType": "string",
          "name": "proof",
          "type": "string"
        }
      ],
      "name": "RewardDistributed",
      "type": "event"
    },
    {
      "anonymous": false,
      "inputs": [
        {
          "indexed": true,
          "internalType": "address",
          "name": "user",
          "type": "address"
        }
      ],
      "name": "UserRegistered",
      "type": "event"
    },
    {
      "inputs": [],
      "name": "APPROVED_ANSWER_PERCENTAGE",
      "outputs": [
        {
          "internalType": "uint256",
          "name": "",
          "type": "uint256"
        }
      ],
      "stateMutability": "view",
      "type": "function"
    },
    {
      "inputs": [],
      "name": "FIRST_ANSWER_PERCENTAGE",
      "outputs": [
        {
          "internalType": "uint256",
          "name": "",
          "type": "uint256"
        }
      ],
      "stateMutability": "view",
      "type": "function"
    },
    {
      "inputs": [],
      "name": "MAX_ANSWER_UPVOTES",
      "outputs": [
        {
          "internalType": "uint256",
          "name": "",
          "type": "uint256"
        }
      ],
      "stateMutability": "view",
      "type": "function"
    },
    {
      "inputs": [],
      "name": "MAX_QUESTION_UPVOTES",
      "outputs": [
        {
          "internalType": "uint256",
          "name": "",
          "type": "uint256"
        }
      ],
      "stateMutability": "view",
      "type": "function"
    },
    {
      "inputs": [],
      "name": "MAX_REWARD_PER_QUESTION",
      "outputs": [
        {
          "internalType": "uint256",
          "name": "",
          "type": "uint256"
        }
      ],
      "stateMutability": "view",
      "type": "function"
    },
    {
      "inputs": [],
      "name": "QUESTION_ASKER_PERCENTAGE",
      "outputs": [
        {
          "internalType": "uint256",
          "name": "",
          "type": "uint256"
        }
      ],
      "stateMutability": "view",
      "type": "function"
    },
    {
      "inputs": [],
      "name": "UPVOTED_ANSWERS_PERCENTAGE",
      "outputs": [
        {
          "internalType": "uint256",
          "name": "",
          "type": "uint256"
        }
      ],
      "stateMutability": "view",
      "type": "function"
    },
    {
      "inputs": [],
      "name": "answerCounter",
      "outputs": [
        {
          "internalType": "uint256",
          "name": "",
          "type": "uint256"
        }
      ],
      "stateMutability": "view",
      "type": "function"
    },
    {
      "inputs": [
        {
          "internalType": "uint256",
          "name": "",
          "type": "uint256"
        }
      ],
      "name": "answers",
      "outputs": [
        {
          "internalType": "uint256",
          "name": "id",
          "type": "uint256"
        },
        {
          "internalType": "uint256",
          "name": "questionId",
          "type": "uint256"
        },
        {
          "internalType": "address",
          "name": "answerer",
          "type": "address"
        },
        {
          "internalType": "string",
          "name": "content",
          "type": "string"
        },
        {
          "internalType": "uint256",
          "name": "upvotes",
          "type": "uint256"
        },
        {
          "internalType": "bool",
          "name": "isApproved",
          "type": "bool"
        },
        {
          "internalType": "uint256",
          "name": "timestamp",
          "type": "uint256"
        }
      ],
      "stateMutability": "view",
      "type": "function"
    },
    {
      "inputs": [],
      "name": "appId",
      "outputs": [
        {
          "internalType": "bytes32",
          "name": "",
          "type": "bytes32"
        }
      ],
      "stateMutability": "view",
      "type": "function"
    },
    {
      "inputs": [
        {
          "internalType": "uint256",
          "name": "_answerId",
          "type": "uint256"
        },
        {
          "internalType": "address",
          "name": "_approver",
          "type": "address"
        }
      ],
      "name": "approveAnswer",
      "outputs": [],
      "stateMutability": "nonpayable",
      "type": "function"
    },
    {
      "inputs": [
        {
          "internalType": "string",
          "name": "_title",
          "type": "string"
        },
        {
          "internalType": "string",
          "name": "_description",
          "type": "string"
        },
        {
          "internalType": "address",
          "name": "_asker",
          "type": "address"
        },
        {
          "internalType": "string[]",
          "name": "_tags",
          "type": "string[]"
        }
      ],
      "name": "askQuestion",
      "outputs": [],
      "stateMutability": "payable",
      "type": "function"
    },
    {
      "inputs": [
        {
          "internalType": "uint256",
          "name": "questionId",
          "type": "uint256"
        }
      ],
      "name": "calculateApprovedAnswerReward",
      "outputs": [
        {
          "internalType": "uint256",
          "name": "",
          "type": "uint256"
        }
      ],
      "stateMutability": "view",
      "type": "function"
    },
    {
      "inputs": [
        {
          "internalType": "uint256",
          "name": "questionId",
          "type": "uint256"
        }
      ],
      "name": "calculateFirstAnswerReward",
      "outputs": [
        {
          "internalType": "uint256",
          "name": "",
          "type": "uint256"
        }
      ],
      "stateMutability": "view",
      "type": "function"
    },
    {
      "inputs": [
        {
          "internalType": "uint256",
          "name": "questionId",
          "type": "uint256"
        },
        {
          "internalType": "uint256",
          "name": "totalUpvotes",
          "type": "uint256"
        }
      ],
      "name": "calculateQuestionAskerReward",
      "outputs": [
        {
          "internalType": "uint256",
          "name": "",
          "type": "uint256"
        }
      ],
      "stateMutability": "view",
      "type": "function"
    },
    {
      "inputs": [
        {
          "internalType": "uint256",
          "name": "questionId",
          "type": "uint256"
        }
      ],
      "name": "calculateQuestionCap",
      "outputs": [
        {
          "internalType": "uint256",
          "name": "",
          "type": "uint256"
        }
      ],
      "stateMutability": "view",
      "type": "function"
    },
    {
      "inputs": [
        {
          "internalType": "uint256",
          "name": "questionId",
          "type": "uint256"
        },
        {
          "internalType": "uint256",
          "name": "totalUpvotes",
          "type": "uint256"
        }
      ],
      "name": "calculateUpvotedAnswerReward",
      "outputs": [
        {
          "internalType": "uint256",
          "name": "",
          "type": "uint256"
        }
      ],
      "stateMutability": "view",
      "type": "function"
    },
    {
      "inputs": [
        {
          "internalType": "uint256",
          "name": "_answerId",
          "type": "uint256"
        }
      ],
      "name": "getAnswer",
      "outputs": [
        {
          "internalType": "uint256",
          "name": "id",
          "type": "uint256"
        },
        {
          "internalType": "uint256",
          "name": "questionId",
          "type": "uint256"
        },
        {
          "internalType": "address",
          "name": "answerer",
          "type": "address"
        },
        {
          "internalType": "string",
          "name": "content",
          "type": "string"
        },
        {
          "internalType": "uint256",
          "name": "upvotes",
          "type": "uint256"
        },
        {
          "internalType": "bool",
          "name": "isApproved",
          "type": "bool"
        },
        {
          "internalType": "uint256",
          "name": "timestamp",
          "type": "uint256"
        }
      ],
      "stateMutability": "view",
      "type": "function"
    },
    {
      "inputs": [
        {
          "internalType": "uint256",
          "name": "_answerId",
          "type": "uint256"
        }
      ],
      "name": "getAnswerer",
      "outputs": [
        {
          "internalType": "address",
          "name": "answerer",
          "type": "address"
        }
      ],
      "stateMutability": "view",
      "type": "function"
    },
    {
      "inputs": [],
      "name": "getPlatformStats",
      "outputs": [
        {
          "internalType": "uint256",
          "name": "totalQuestions",
          "type": "uint256"
        },
        {
          "internalType": "uint256",
          "name": "totalAnswers",
          "type": "uint256"
        },
        {
          "internalType": "uint256",
          "name": "totalUsers",
          "type": "uint256"
        },
        {
          "internalType": "uint256",
          "name": "contractBalance",
          "type": "uint256"
        }
      ],
      "stateMutability": "view",
      "type": "function"
    },
    {
      "inputs": [
        {
          "internalType": "uint256",
          "name": "_questionId",
          "type": "uint256"
        }
      ],
      "name": "getQuestion",
      "outputs": [
        {
          "internalType": "uint256",
          "name": "id",
          "type": "uint256"
        },
        {
          "internalType": "address",
          "name": "asker",
          "type": "address"
        },
        {
          "internalType": "string",
          "name": "title",
          "type": "string"
        },
        {
          "internalType": "string",
          "name": "description",
          "type": "string"
        },
        {
          "internalType": "uint256",
          "name": "bounty",
          "type": "uint256"
        },
        {
          "internalType": "bool",
          "name": "hasApprovedAnswer",
          "type": "bool"
        },
        {
          "internalType": "uint256",
          "name": "approvedAnswerId",
          "type": "uint256"
        },
        {
          "internalType": "uint256",
          "name": "upvotes",
          "type": "uint256"
        },
        {
          "internalType": "string[]",
          "name": "tags",
          "type": "string[]"
        },
        {
          "internalType": "uint256",
          "name": "timestamp",
          "type": "uint256"
        }
      ],
      "stateMutability": "view",
      "type": "function"
    },
    {
      "inputs": [
        {
          "internalType": "uint256",
          "name": "_questionId",
          "type": "uint256"
        }
      ],
      "name": "getQuestionAsker",
      "outputs": [
        {
          "internalType": "address",
          "name": "asker",
          "type": "address"
        }
      ],
      "stateMutability": "view",
      "type": "function"
    },
    {
      "inputs": [
        {
          "internalType": "uint256",
          "name": "questionId",
          "type": "uint256"
        }
      ],
      "name": "getQuestionRewardBreakdown",
      "outputs": [
        {
          "internalType": "uint256",
          "name": "questionPool",
          "type": "uint256"
        },
        {
          "internalType": "uint256",
          "name": "askerReward",
          "type": "uint256"
        },
        {
          "internalType": "uint256",
          "name": "firstAnswerReward",
          "type": "uint256"
        },
        {
          "internalType": "uint256",
          "name": "approvedAnswerReward",
          "type": "uint256"
        },
        {
          "internalType": "uint256",
          "name": "upvotedAnswersReward",
          "type": "uint256"
        }
      ],
      "stateMutability": "view",
      "type": "function"
    },
    {
      "inputs": [
        {
          "internalType": "address",
          "name": "_user",
          "type": "address"
        }
      ],
      "name": "getUser",
      "outputs": [
        {
          "internalType": "address",
          "name": "wallet",
          "type": "address"
        },
        {
          "internalType": "uint256",
          "name": "reputation",
          "type": "uint256"
        },
        {
          "internalType": "uint256",
          "name": "questionsAsked",
          "type": "uint256"
        },
        {
          "internalType": "uint256",
          "name": "answersGiven",
          "type": "uint256"
        },
        {
          "internalType": "uint256",
          "name": "answersApproved",
          "type": "uint256"
        }
      ],
      "stateMutability": "view",
      "type": "function"
    },
    {
      "inputs": [],
      "name": "getVeBetterDAOBalance",
      "outputs": [
        {
          "internalType": "uint256",
          "name": "",
          "type": "uint256"
        }
      ],
      "stateMutability": "view",
      "type": "function"
    },
    {
      "inputs": [
        {
          "internalType": "address",
          "name": "",
          "type": "address"
        },
        {
          "internalType": "uint256",
          "name": "",
          "type": "uint256"
        }
      ],
      "name": "hasUpvoted",
      "outputs": [
        {
          "internalType": "bool",
          "name": "",
          "type": "bool"
        }
      ],
      "stateMutability": "view",
      "type": "function"
    },
    {
      "inputs": [
        {
          "internalType": "address",
          "name": "",
          "type": "address"
        },
        {
          "internalType": "uint256",
          "name": "",
          "type": "uint256"
        }
      ],
      "name": "hasUpvotedQuestion",
      "outputs": [
        {
          "internalType": "bool",
          "name": "",
          "type": "bool"
        }
      ],
      "stateMutability": "view",
      "type": "function"
    },
    {
      "inputs": [],
      "name": "owner",
      "outputs": [
        {
          "internalType": "address",
          "name": "",
          "type": "address"
        }
      ],
      "stateMutability": "view",
      "type": "function"
    },
    {
      "inputs": [
        {
          "internalType": "uint256",
          "name": "",
          "type": "uint256"
        }
      ],
      "name": "questionAskerRewards",
      "outputs": [
        {
          "internalType": "uint256",
          "name": "",
          "type": "uint256"
        }
      ],
      "stateMutability": "view",
      "type": "function"
    },
    {
      "inputs": [],
      "name": "questionCounter",
      "outputs": [
        {
          "internalType": "uint256",
          "name": "",
          "type": "uint256"
        }
      ],
      "stateMutability": "view",
      "type": "function"
    },
    {
      "inputs": [
        {
          "internalType": "uint256",
          "name": "",
          "type": "uint256"
        }
      ],
      "name": "questionRewardPools",
      "outputs": [
        {
          "internalType": "uint256",
          "name": "",
          "type": "uint256"
        }
      ],
      "stateMutability": "view",
      "type": "function"
    },
    {
      "inputs": [
        {
          "internalType": "uint256",
          "name": "",
          "type": "uint256"
        }
      ],
      "name": "questions",
      "outputs": [
        {
          "internalType": "uint256",
          "name": "id",
          "type": "uint256"
        },
        {
          "internalType": "address",
          "name": "asker",
          "type": "address"
        },
        {
          "internalType": "string",
          "name": "title",
          "type": "string"
        },
        {
          "internalType": "string",
          "name": "description",
          "type": "string"
        },
        {
          "internalType": "uint256",
          "name": "bounty",
          "type": "uint256"
        },
        {
          "internalType": "bool",
          "name": "hasApprovedAnswer",
          "type": "bool"
        },
        {
          "internalType": "uint256",
          "name": "approvedAnswerId",
          "type": "uint256"
        },
        {
          "internalType": "uint256",
          "name": "upvotes",
          "type": "uint256"
        },
        {
          "internalType": "uint256",
          "name": "timestamp",
          "type": "uint256"
        }
      ],
      "stateMutability": "view",
      "type": "function"
    },
    {
      "inputs": [],
      "name": "registerUser",
      "outputs": [],
      "stateMutability": "nonpayable",
      "type": "function"
    },
    {
      "inputs": [],
      "name": "rewardAmount",
      "outputs": [
        {
          "internalType": "uint256",
          "name": "",
          "type": "uint256"
        }
      ],
      "stateMutability": "view",
      "type": "function"
    },
    {
      "inputs": [
        {
          "internalType": "uint256",
          "name": "_amount",
          "type": "uint256"
        }
      ],
      "name": "setRewardAmount",
      "outputs": [],
      "stateMutability": "nonpayable",
      "type": "function"
    },
    {
      "inputs": [
        {
          "internalType": "uint256",
          "name": "_questionId",
          "type": "uint256"
        },
        {
          "internalType": "string",
          "name": "_content",
          "type": "string"
        },
        {
          "internalType": "address",
          "name": "_answerer",
          "type": "address"
        }
      ],
      "name": "submitAnswer",
      "outputs": [],
      "stateMutability": "nonpayable",
      "type": "function"
    },
    {
      "inputs": [],
      "name": "totalDistributedRewards",
      "outputs": [
        {
          "internalType": "uint256",
          "name": "",
          "type": "uint256"
        }
      ],
      "stateMutability": "view",
      "type": "function"
    },
    {
      "inputs": [
        {
          "internalType": "bytes32",
          "name": "_appId",
          "type": "bytes32"
        }
      ],
      "name": "updateAppId",
      "outputs": [],
      "stateMutability": "nonpayable",
      "type": "function"
    },
    {
      "inputs": [
        {
          "internalType": "uint256",
          "name": "_answerId",
          "type": "uint256"
        },
        {
          "internalType": "address",
          "name": "_voter",
          "type": "address"
        }
      ],
      "name": "upvoteAnswer",
      "outputs": [],
      "stateMutability": "nonpayable",
      "type": "function"
    },
    {
      "inputs": [
        {
          "internalType": "uint256",
          "name": "_questionId",
          "type": "uint256"
        },
        {
          "internalType": "address",
          "name": "_voter",
          "type": "address"
        }
      ],
      "name": "upvoteQuestion",
      "outputs": [],
      "stateMutability": "nonpayable",
      "type": "function"
    },
    {
      "inputs": [
        {
          "internalType": "uint256",
          "name": "",
          "type": "uint256"
        }
      ],
      "name": "upvotedAnswerRewards",
      "outputs": [
        {
          "internalType": "uint256",
          "name": "",
          "type": "uint256"
        }
      ],
      "stateMutability": "view",
      "type": "function"
    },
    {
      "inputs": [
        {
          "internalType": "address",
          "name": "",
          "type": "address"
        }
      ],
      "name": "users",
      "outputs": [
        {
          "internalType": "address",
          "name": "wallet",
          "type": "address"
        },
        {
          "internalType": "uint256",
          "name": "reputation",
          "type": "uint256"
        },
        {
          "internalType": "uint256",
          "name": "questionsAsked",
          "type": "uint256"
        },
        {
          "internalType": "uint256",
          "name": "answersGiven",
          "type": "uint256"
        },
        {
          "internalType": "uint256",
          "name": "answersApproved",
          "type": "uint256"
        }
      ],
      "stateMutability": "view",
      "type": "function"
    },
    {
      "inputs": [],
      "name": "withdrawBalance",
      "outputs": [],
      "stateMutability": "nonpayable",
      "type": "function"
    },
    {
      "inputs": [],
      "name": "x2EarnRewardsPoolContract",
      "outputs": [
        {
          "internalType": "contract IX2EarnRewardsPool",
          "name": "",
          "type": "address"
        }
      ],
      "stateMutability": "view",
      "type": "function"
    }
  ],
  "bytecode": "0x6080604052674563918244f400006007553480156200001d57600080fd5b5060405162003a0b38038062003a0b833981016040819052620000409162000078565b60008054336001600160a01b031991821617909155600180549091166001600160a01b039390931692909217909155600255620000b4565b600080604083850312156200008c57600080fd5b82516001600160a01b0381168114620000a457600080fd5b6020939093015192949293505050565b61394780620000c46000396000f3fe6080604052600436106102675760003560e01c806380afdea811610144578063b5ab58dc116100b6578063cc91d3dc1161007a578063cc91d3dc146102bf578063d376523f14610822578063db88176f14610842578063df1901b014610878578063f78145f314610898578063f7b2a7be146108b857600080fd5b8063b5ab58dc1461079b578063b7b064a8146107bb578063b7c3c353146107d1578063c55e7014146107ed578063cb9829e81461080257600080fd5b8063a231ba1411610108578063a231ba14146106bc578063a87430ba146106e9578063a87df8321461073d578063a8a65a7814610753578063a9a5a9ac14610773578063ad302abc1461078657600080fd5b806380afdea8146105f15780638da5cb5b1461060757806397f753f61461062757806398299dbc14610654578063998d93301461069c57600080fd5b80634aa9eed7116101dd5780636a51df04116101a15780636a51df04146104ab5780636e683f5b146104e65780636ed461b8146104fb5780636f77926b1461051b57806373f80143146105a457806375c13f42146105c457600080fd5b80634aa9eed7146104135780634d3820eb146104335780635898852c146104485780635da2c0d01461045e5780635fd8c7101461049657600080fd5b806316bb54031161022f57806316bb54031461031e57806317599cc51461036957806323be4c9b1461039c57806331b1b978146103bc5780633bde93f9146102bf578063458b8d00146103f157600080fd5b8063077d8fc21461026c5780630f75551f1461029f57806312d93ff9146102bf578063135ac75a146102d4578063136d8883146102e9575b600080fd5b34801561027857600080fd5b5061028c610287366004612f06565b6108ce565b6040519081526020015b60405180910390f35b3480156102ab57600080fd5b5061028c6102ba366004612f28565b610938565b3480156102cb57600080fd5b5061028c600a81565b3480156102e057600080fd5b5061028c603c81565b3480156102f557600080fd5b506102fe610965565b604080519485526020850193909352918301526060820152608001610296565b34801561032a57600080fd5b50610359610339366004612f58565b600b60209081526000928352604080842090915290825290205460ff1681565b6040519015158152602001610296565b34801561037557600080fd5b50610389610384366004612f28565b610990565b6040516102969796959493929190612fd2565b3480156103a857600080fd5b5061028c6103b7366004612f06565b610a65565b3480156103c857600080fd5b506103dc6103d7366004612f28565b610aa5565b6040516102969998979695949392919061301e565b3480156103fd57600080fd5b5061041161040c36600461308b565b610c0b565b005b34801561041f57600080fd5b5061028c61042e366004612f28565b610f23565b34801561043f57600080fd5b50610411610f3f565b34801561045457600080fd5b5061028c600e5481565b34801561046a57600080fd5b5060015461047e906001600160a01b031681565b6040516001600160a01b039091168152602001610296565b3480156104a257600080fd5b50610411610ff5565b3480156104b757600080fd5b506103596104c6366004612f58565b600c60209081526000928352604080842090915290825290205460ff1681565b3480156104f257600080fd5b5061028c601e81565b34801561050757600080fd5b5061047e610516366004612f28565b6110ff565b34801561052757600080fd5b506105726105363660046130b7565b6001600160a01b039081166000908152600a60205260409020805460018201546002830154600384015460049094015492909416949093929190565b604080516001600160a01b0390961686526020860194909452928401919091526060830152608082015260a001610296565b3480156105b057600080fd5b5061047e6105bf366004612f28565b611154565b3480156105d057600080fd5b5061028c6105df366004612f28565b60036020526000908152604090205481565b3480156105fd57600080fd5b5061028c60025481565b34801561061357600080fd5b5060005461047e906001600160a01b031681565b34801561063357600080fd5b5061028c610642366004612f28565b60046020526000908152604090205481565b34801561066057600080fd5b5061067461066f366004612f28565b6111a5565b604080519586526020860194909452928401919091526060830152608082015260a001610296565b3480156106a857600080fd5b506104116106b736600461308b565b611225565b3480156106c857600080fd5b5061028c6106d7366004612f28565b60056020526000908152604090205481565b3480156106f557600080fd5b506105726107043660046130b7565b600a60205260009081526040902080546001820154600283015460038401546004909401546001600160a01b0390931693919290919085565b34801561074957600080fd5b5061028c60065481565b34801561075f57600080fd5b5061041161076e366004612f28565b6116c3565b610411610781366004613189565b611742565b34801561079257600080fd5b5061028c611b54565b3480156107a757600080fd5b506103896107b6366004612f28565b611bf5565b3480156107c757600080fd5b5061028c600d5481565b3480156107dd57600080fd5b5061028c674563918244f4000081565b3480156107f957600080fd5b5061028c601481565b34801561080e57600080fd5b5061041161081d3660046132a2565b611d19565b34801561082e57600080fd5b5061028c61083d366004612f28565b612083565b34801561084e57600080fd5b5061086261085d366004612f28565b61217b565b6040516102969a999897969594939291906132f9565b34801561088457600080fd5b5061041161089336600461308b565b612421565b3480156108a457600080fd5b506104116108b3366004612f28565b6127a8565b3480156108c457600080fd5b5061028c60075481565b6000828152600360205260408120548160646108eb600a846133d8565b6108f59190613405565b9050600a600085900361090e5760009350505050610932565b808511156109225760009350505050610932565b61092c8183613405565b93505050505b92915050565b60008181526003602052604081205460646109546014836133d8565b61095e9190613405565b9392505050565b600080600080600d54600e54600e54600d546109819190613419565b47935093509350935090919293565b6009602052600090815260409020805460018201546002830154600384018054939492936001600160a01b0390921692916109ca9061342c565b80601f01602080910402602001604051908101604052809291908181526020018280546109f69061342c565b8015610a435780601f10610a1857610100808354040283529160200191610a43565b820191906000526020600020905b815481529060010190602001808311610a2657829003601f168201915b50505050600483015460058401546006909401549293909260ff909116915087565b600082815260036020526040812054816064610a82603c846133d8565b610a8c9190613405565b9050601e600085900361090e5760009350505050610932565b60086020526000908152604090208054600182015460028301805492936001600160a01b0390921692610ad79061342c565b80601f0160208091040260200160405190810160405280929190818152602001828054610b039061342c565b8015610b505780601f10610b2557610100808354040283529160200191610b50565b820191906000526020600020905b815481529060010190602001808311610b3357829003601f168201915b505050505090806003018054610b659061342c565b80601f0160208091040260200160405190810160405280929190818152602001828054610b919061342c565b8015610bde5780601f10610bb357610100808354040283529160200191610bde565b820191906000526020600020905b815481529060010190602001808311610bc157829003601f168201915b50505060048401546005850154600686015460078701546009909701549596929560ff9092169450925089565b81600081118015610c1e5750600d548111155b610c435760405162461bcd60e51b8152600401610c3a90613460565b60405180910390fd5b6001600160a01b038216610c995760405162461bcd60e51b815260206004820152601c60248201527f566f74657220616464726573732063616e6e6f74206265207a65726f000000006044820152606401610c3a565b6001600160a01b0382166000908152600c6020908152604080832086845290915290205460ff1615610d0d5760405162461bcd60e51b815260206004820152601d60248201527f416c7265616479207570766f7465642074686973207175657374696f6e0000006044820152606401610c3a565b6000838152600860205260408120600701805491610d2a83613497565b90915550506001600160a01b038083166000908152600c602090815260408083208784528252808320805460ff1916600190811790915560088352818420015484168352600a90915290205416610e01576040805160a0810182526000858152600860209081528382206001908101546001600160a01b039081168086528386018581528688018681526060880187815260808901888152938852600a90965297909520955186546001600160a01b0319169216919091178555925190840155925160028301559151600382015590516004909101555b60008381526008602090815260408083206001908101546001600160a01b03168452600a90925282208101805491929091610e3d908490613419565b9091555050600083815260086020526040812060070154610e5f9085906108ce565b90508015610ec357610ec36008600086815260200190815260200160002060010160009054906101000a90046001600160a01b0316826040518060400160405280601081526020016f1c5d595cdd1a5bdb97dd5c1d9bdd195960821b8152506127d7565b826001600160a01b0316847fdc0d26686e856e21cb2004fa5c0d79c922a19e94c9eb4b2328ba007cae3e31aa6008600088815260200190815260200160002060070154604051610f1591815260200190565b60405180910390a350505050565b6000818152600360205260408120546064610954600a836133d8565b336000908152600a60205260409020546001600160a01b0316610ff3576040805160a08101825233808252600060208084018281528486018381526060860184815260808701858152868652600a909452878520965187546001600160a01b0319166001600160a01b03909116178755915160018701555160028601555160038501555160049093019290925591517f54db7a5cb4735e1aac1f53db512d3390390bb6637bd30ad4bf9fc98667d9b9b99190a25b565b6000546001600160a01b0316331461101f5760405162461bcd60e51b8152600401610c3a906134b0565b47806110665760405162461bcd60e51b81526020600482015260166024820152754e6f2062616c616e636520746f20776974686472617760501b6044820152606401610c3a565b600080546040516001600160a01b039091169083908381818185875af1925050503d80600081146110b3576040519150601f19603f3d011682016040523d82523d6000602084013e6110b8565b606091505b50509050806110fb5760405162461bcd60e51b815260206004820152600f60248201526e151c985b9cd9995c8819985a5b1959608a1b6044820152606401610c3a565b5050565b6000816000811180156111145750600e548111155b6111305760405162461bcd60e51b8152600401610c3a906134f1565b6000838152600960205260409020600201546001600160a01b031691505b50919050565b6000816000811180156111695750600d548111155b6111855760405162461bcd60e51b8152600401610c3a90613460565b50506000908152600860205260409020600101546001600160a01b031690565b6000818152600360205260408120549080808060646111c5600a876133d8565b6111cf9190613405565b935060646111de600a876133d8565b6111e89190613405565b925060646111f76014876133d8565b6112019190613405565b91506064611210603c876133d8565b61121a9190613405565b905091939590929450565b816000811180156112385750600e548111155b6112545760405162461bcd60e51b8152600401610c3a906134f1565b6000838152600960205260409020600101546001600160a01b0383166112bc5760405162461bcd60e51b815260206004820152601f60248201527f417070726f76657220616464726573732063616e6e6f74206265207a65726f006044820152606401610c3a565b6000818152600860205260409020600101546001600160a01b038481169116146113385760405162461bcd60e51b815260206004820152602760248201527f4f6e6c79207175657374696f6e2061736b65722063616e20617070726f766520604482015266616e737765727360c81b6064820152608401610c3a565b60008181526008602052604090206005015460ff16156113aa5760405162461bcd60e51b815260206004820152602760248201527f5175657374696f6e20616c72656164792068617320616e20617070726f7665646044820152661030b739bbb2b960c91b6064820152608401610c3a565b6000848152600960205260409020600201546001600160a01b038085169116036114165760405162461bcd60e51b815260206004820152601e60248201527f43616e6e6f7420617070726f766520796f7572206f776e20616e7377657200006044820152606401610c3a565b600084815260096020908152604080832060058082018054600160ff1991821681179092558787526008865284872092830180549091169091179055600601889055600201546001600160a01b039081168452600a9092529091205416611500576040805160a0810182526000868152600960209081528382206002908101546001600160a01b039081168086528386018581528688018681526060880187815260808901888152938852600a90965297909520955186546001600160a01b0319169216919091178555925160018501559351938301939093559151600382015590516004909101555b6000848152600960209081526040808320600201546001600160a01b03168352600a909152812060040180549161153683613497565b90915550506000848152600960209081526040808320600201546001600160a01b03168352600a918290528220600101805491929091611577908490613419565b9091555050600081815260086020526040902060040154158015906115ad57506000818152600860205260409020600401544710155b156115e9576000848152600960209081526040808320600201548484526008909252909120600401546115e9916001600160a01b031690612a19565b60006115f482610938565b90508015611657576116576009600087815260200190815260200160002060020160009054906101000a90046001600160a01b0316826040518060400160405280600f81526020016e185b9cddd95c97d85c1c1c9bdd9959608a1b8152506127d7565b60008581526009602090815260408083206002015485845260088352928190206004015490519081526001600160a01b0390921691849188917f8329ccacea800a071cce42a6f9e4d8aea8cf3cb161d3b13b70ee1aa788c0a35f91015b60405180910390a45050505050565b6000546001600160a01b031633146116ed5760405162461bcd60e51b8152600401610c3a906134b0565b6000811161173d5760405162461bcd60e51b815260206004820152601d60248201527f416d6f756e74206d7573742062652067726561746572207468616e20300000006044820152606401610c3a565b600755565b600084511161178b5760405162461bcd60e51b81526020600482015260156024820152745469746c652063616e6e6f7420626520656d70747960581b6044820152606401610c3a565b60008351116117dc5760405162461bcd60e51b815260206004820152601b60248201527f4465736372697074696f6e2063616e6e6f7420626520656d70747900000000006044820152606401610c3a565b6001600160a01b0382166118325760405162461bcd60e51b815260206004820152601c60248201527f41736b657220616464726573732063616e6e6f74206265207a65726f000000006044820152606401610c3a565b60058151111561187d5760405162461bcd60e51b815260206004820152601660248201527513585e1a5b5d5b480d481d1859dcc8185b1b1bddd95960521b6044820152606401610c3a565b60005b81518110156118fb57600082828151811061189d5761189d613520565b602002602001015151116118e95760405162461bcd60e51b81526020600482015260136024820152725461672063616e6e6f7420626520656d70747960681b6044820152606401610c3a565b806118f381613497565b915050611880565b506001600160a01b038281166000908152600a6020526040902054166119b9576040805160a0810182526001600160a01b03848116808352600060208085018281528587018381526060870184815260808801858152868652600a909452888520975188546001600160a01b031916971696909617875590516001870155516002860155925160038501559151600490930192909255915190917f54db7a5cb4735e1aac1f53db512d3390390bb6637bd30ad4bf9fc98667d9b9b991a25b600d80549060006119c983613497565b90915550506040805161014081018252600d548082526001600160a01b0385811660208085019182528486018a8152606086018a9052346080870152600060a0870181905260c0870181905260e087018190526101008701899052426101208801529485526008909152949092208351815591516001830180546001600160a01b0319169190921617905591519091906002820190611a689082613584565b5060608201516003820190611a7d9082613584565b506080820151600482015560a082015160058201805460ff191691151591909117905560c0820151600682015560e082015160078201556101008201518051611ad0916008840191602090910190612e41565b506101208201518160090155905050611aea600d54612b57565b6001600160a01b0382166000908152600a60205260408120600201805491611b1183613497565b9190505550336001600160a01b0316600d547fd9b9e1b916e7a6ed83ba10035a29fbe9306132df4c0b225c9223727dabf5acfa8634604051610f15929190613644565b6001546000906001600160a01b03161580611b6f5750600254155b15611b7a5750600090565b600154600254604051633c9d10cd60e21b81526001600160a01b039092169163f274433491611baf9160040190815260200190565b602060405180830381865afa158015611bcc573d6000803e3d6000fd5b505050506040513d601f19601f82011682018060405250810190611bf09190613666565b905090565b60008060006060600080600087600081118015611c145750600e548111155b611c305760405162461bcd60e51b8152600401610c3a906134f1565b60008981526009602052604090208054600182015460028301546004840154600585015460068601546003870180546001600160a01b039095169490939260ff1691908490611c7e9061342c565b80601f0160208091040260200160405190810160405280929190818152602001828054611caa9061342c565b8015611cf75780601f10611ccc57610100808354040283529160200191611cf7565b820191906000526020600020905b815481529060010190602001808311611cda57829003601f168201915b5050505050935098509850985098509850985098505050919395979092949650565b82600081118015611d2c5750600d548111155b611d485760405162461bcd60e51b8152600401610c3a90613460565b6000835111611d995760405162461bcd60e51b815260206004820152601e60248201527f416e7377657220636f6e74656e742063616e6e6f7420626520656d70747900006044820152606401610c3a565b6001600160a01b038216611def5760405162461bcd60e51b815260206004820152601f60248201527f416e73776572657220616464726573732063616e6e6f74206265207a65726f006044820152606401610c3a565b6001600160a01b038281166000908152600a602052604090205416611eac576040805160a0810182526001600160a01b03848116808352600060208085018281528587018381526060870184815260808801858152868652600a909452888520975188546001600160a01b031916971696909617875590516001870155516002860155925160038501559151600490930192909255915190917f54db7a5cb4735e1aac1f53db512d3390390bb6637bd30ad4bf9fc98667d9b9b991a25b600e8054906000611ebc83613497565b90915550506040805160e081018252600e5480825260208083018881526001600160a01b03878116858701908152606086018a815260006080880181905260a088018190524260c0890152958652600990945295909320845181559051600182015593516002850180546001600160a01b0319169190931617909155519091906003820190611f4b9082613584565b506080820151600482015560a082015160058201805460ff191691151591909117905560c0909101516006909101556001600160a01b0382166000908152600a60205260408120600301805491611fa183613497565b91905055506000600e5460011480611ffa57506000858152600860205260409020600101546001600160a01b031615801590611ffa57506000858152600860205260409020600101546001600160a01b03848116911614155b9050801561204657600061200d86610f23565b905080156120445761204484826040518060400160405280600c81526020016b3334b939ba2fb0b739bbb2b960a11b8152506127d7565b505b336001600160a01b031685600e547f1b72a809869907cac4c4e55b8bf6920ff492d2ff53307bb77ba492366b61387c876040516116b4919061367f565b600154600254604051633c9d10cd60e21b815260009283926001600160a01b039091169163f2744334916120bd9160040190815260200190565b602060405180830381865afa1580156120da573d6000803e3d6000fd5b505050506040513d601f19601f820116820180604052508101906120fe9190613666565b90506000600654826121109190613692565b905080600003612124575060009392505050565b6000612131600a83613405565b90506000674563918244f40000821161214a5781612154565b674563918244f400005b905067016345785d8a00008110156121725750600095945050505050565b95945050505050565b600080606080600080600080606060008a60008111801561219e5750600d548111155b6121ba5760405162461bcd60e51b8152600401610c3a90613460565b60008c81526008602081905260409091208054600182015460048301546005840154600685015460078601546009870154600288018054989997986001600160a01b0390971697909660038b01969560ff16949392918b019190889061221f9061342c565b80601f016020809104026020016040519081016040528092919081815260200182805461224b9061342c565b80156122985780601f1061226d57610100808354040283529160200191612298565b820191906000526020600020905b81548152906001019060200180831161227b57829003601f168201915b505050505097508680546122ab9061342c565b80601f01602080910402602001604051908101604052809291908181526020018280546122d79061342c565b80156123245780601f106122f957610100808354040283529160200191612324565b820191906000526020600020905b81548152906001019060200180831161230757829003601f168201915b5050505050965081805480602002602001604051908101604052809291908181526020016000905b828210156123f857838290600052602060002001805461236b9061342c565b80601f01602080910402602001604051908101604052809291908181526020018280546123979061342c565b80156123e45780601f106123b9576101008083540402835291602001916123e4565b820191906000526020600020905b8154815290600101906020018083116123c757829003601f168201915b50505050508152602001906001019061234c565b5050505091509b509b509b509b509b509b509b509b509b509b5050509193959799509193959799565b816000811180156124345750600e548111155b6124505760405162461bcd60e51b8152600401610c3a906134f1565b6001600160a01b0382166124a65760405162461bcd60e51b815260206004820152601c60248201527f566f74657220616464726573732063616e6e6f74206265207a65726f000000006044820152606401610c3a565b6001600160a01b0382166000908152600b6020908152604080832086845290915290205460ff161561251a5760405162461bcd60e51b815260206004820152601b60248201527f416c7265616479207570766f746564207468697320616e7377657200000000006044820152606401610c3a565b6000838152600960205260409020600201546001600160a01b038084169116036125865760405162461bcd60e51b815260206004820152601d60248201527f43616e6e6f74207570766f746520796f7572206f776e20616e737765720000006044820152606401610c3a565b60008381526009602052604081206004018054916125a383613497565b90915550506001600160a01b038083166000908152600b602090815260408083208784528252808320805460ff19166001179055600982528083206002015484168352600a9091529020541661267c576040805160a0810182526000858152600960209081528382206002908101546001600160a01b039081168086528386018581528688018681526060880187815260808901888152938852600a90965297909520955186546001600160a01b0319169216919091178555925160018501559351938301939093559151600382015590516004909101555b6000838152600960209081526040808320600201546001600160a01b03168352600a909152812060019081018054919290916126b9908490613419565b9091555050600083815260096020526040812060018101546004909101549091906126e5908390610a65565b90508015612747576127476009600087815260200190815260200160002060020160009054906101000a90046001600160a01b0316826040518060400160405280600e81526020016d185b9cddd95c97dd5c1d9bdd195960921b8152506127d7565b836001600160a01b0316857f805896dd3b416f34de785a678446dc15a87bd020164463bcba743a24a075be2e600960008981526020019081526020016000206004015460405161279991815260200190565b60405180910390a35050505050565b6000546001600160a01b031633146127d25760405162461bcd60e51b8152600401610c3a906134b0565b600255565b6001546001600160a01b031615806127ef5750600254155b156127f957505050565b600082116128555760405162461bcd60e51b8152602060048201526024808201527f52657761726420616d6f756e74206d75737420626520677265617465722074686044820152630616e20360e41b6064820152608401610c3a565b600154600254604051633c9d10cd60e21b81526001600160a01b039092169163f27443349161288a9160040190815260200190565b602060405180830381865afa1580156128a7573d6000803e3d6000fd5b505050506040513d601f19601f820116820180604052508101906128cb9190613666565b8211156129315760405162461bcd60e51b815260206004820152602e60248201527f496e73756666696369656e742066756e647320696e205665426574746572444160448201526d13c81c995dd85c991cc81c1bdbdb60921b6064820152608401610c3a565b60008161293d85612b93565b61294642612cda565b604051602001612958939291906136a5565b60408051601f198184030181529082905260015460025463f7335f1160e01b84529193506001600160a01b03169163f7335f119161299e91879089908790600401613759565b600060405180830381600087803b1580156129b857600080fd5b505af11580156129cc573d6000803e3d6000fd5b50505050836001600160a01b03167f49649141d16971a88c3cfdd73fec34babb1cf163cf8b804c8f537a023c6ce5068483604051612a0b929190613790565b60405180910390a250505050565b60008111612a695760405162461bcd60e51b815260206004820152601760248201527f4e6f20626f756e747920746f20646973747269627574650000000000000000006044820152606401610c3a565b80471015612ab95760405162461bcd60e51b815260206004820152601d60248201527f496e73756666696369656e7420636f6e74726163742062616c616e63650000006044820152606401610c3a565b6000826001600160a01b03168260405160006040518083038185875af1925050503d8060008114612b06576040519150601f19603f3d011682016040523d82523d6000602084013e612b0b565b606091505b5050905080612b525760405162461bcd60e51b8152602060048201526013602482015272159155081d1c985b9cd9995c8819985a5b1959606a1b6044820152606401610c3a565b505050565b6000612b6282612083565b6000838152600360205260408120829055600680549293508392909190612b8a908490613419565b90915550505050565b60408051602880825260608281019093526000919060208201818036833701905050905060005b6014811015612cd3576000612bd0826013613692565b612bdb9060086133d8565b612be6906002613895565b612bf9906001600160a01b038716613405565b60f81b9050600060108260f81c612c1091906138a1565b60f81b905060008160f81c6010612c2791906138c3565b8360f81c612c3591906138df565b60f81b9050612c4382612e06565b85612c4f8660026133d8565b81518110612c5f57612c5f613520565b60200101906001600160f81b031916908160001a905350612c7f81612e06565b85612c8b8660026133d8565b612c96906001613419565b81518110612ca657612ca6613520565b60200101906001600160f81b031916908160001a9053505050508080612ccb90613497565b915050612bba565b5092915050565b606081600003612d015750506040805180820190915260018152600360fc1b602082015290565b8160005b8115612d2b5780612d1581613497565b9150612d249050600a83613405565b9150612d05565b60008167ffffffffffffffff811115612d4657612d466130d2565b6040519080825280601f01601f191660200182016040528015612d70576020820181803683370190505b509050815b8515612dfd57612d86600182613692565b90506000612d95600a88613405565b612da090600a6133d8565b612daa9088613692565b612db59060306138f8565b905060008160f81b905080848481518110612dd257612dd2613520565b60200101906001600160f81b031916908160001a905350612df4600a89613405565b97505050612d75565b50949350505050565b6000600a60f883901c1015612e2d57612e2460f883901c60306138f8565b60f81b92915050565b612e2460f883901c60576138f8565b919050565b828054828255906000526020600020908101928215612e87579160200282015b82811115612e875782518290612e779082613584565b5091602001919060010190612e61565b50612e93929150612e97565b5090565b80821115612e93576000612eab8282612eb4565b50600101612e97565b508054612ec09061342c565b6000825580601f10612ed0575050565b601f016020900490600052602060002090810190612eee9190612ef1565b50565b5b80821115612e935760008155600101612ef2565b60008060408385031215612f1957600080fd5b50508035926020909101359150565b600060208284031215612f3a57600080fd5b5035919050565b80356001600160a01b0381168114612e3c57600080fd5b60008060408385031215612f6b57600080fd5b612f7483612f41565b946020939093013593505050565b60005b83811015612f9d578181015183820152602001612f85565b50506000910152565b60008151808452612fbe816020860160208601612f82565b601f01601f19169290920160200192915050565b87815286602082015260018060a01b038616604082015260e060608201526000612fff60e0830187612fa6565b60808301959095525091151560a083015260c090910152949350505050565b8981526001600160a01b0389166020820152610120604082018190526000906130498382018b612fa6565b9050828103606084015261305d818a612fa6565b6080840198909852505093151560a085015260c084019290925260e083015261010090910152949350505050565b6000806040838503121561309e57600080fd5b823591506130ae60208401612f41565b90509250929050565b6000602082840312156130c957600080fd5b61095e82612f41565b634e487b7160e01b600052604160045260246000fd5b604051601f8201601f1916810167ffffffffffffffff81118282101715613111576131116130d2565b604052919050565b600082601f83011261312a57600080fd5b813567ffffffffffffffff811115613144576131446130d2565b613157601f8201601f19166020016130e8565b81815284602083860101111561316c57600080fd5b816020850160208301376000918101602001919091529392505050565b6000806000806080858703121561319f57600080fd5b843567ffffffffffffffff808211156131b757600080fd5b6131c388838901613119565b95506020915081870135818111156131da57600080fd5b6131e689828a01613119565b9550506131f560408801612f41565b935060608701358181111561320957600080fd5b8701601f8101891361321a57600080fd5b80358281111561322c5761322c6130d2565b8060051b61323b8582016130e8565b918252828101850191858101908c84111561325557600080fd5b86850192505b83831015613291578235868111156132735760008081fd5b6132818e8983890101613119565b835250918601919086019061325b565b999c989b5096995050505050505050565b6000806000606084860312156132b757600080fd5b83359250602084013567ffffffffffffffff8111156132d557600080fd5b6132e186828701613119565b9250506132f060408501612f41565b90509250925092565b60006101408c8352602060018060a01b038d16818501528160408501526133228285018d612fa6565b91508382036060850152613336828c612fa6565b915089608085015288151560a08501528760c08501528660e08501528382036101008501528186518084528284019150828160051b85010183890160005b838110156133a257601f19878403018552613390838351612fa6565b94860194925090850190600101613374565b50508095505050505050826101208301529b9a5050505050505050505050565b634e487b7160e01b600052601160045260246000fd5b8082028115828204841417610932576109326133c2565b634e487b7160e01b600052601260045260246000fd5b600082613414576134146133ef565b500490565b80820180821115610932576109326133c2565b600181811c9082168061344057607f821691505b60208210810361114e57634e487b7160e01b600052602260045260246000fd5b60208082526017908201527f5175657374696f6e20646f6573206e6f74206578697374000000000000000000604082015260600190565b6000600182016134a9576134a96133c2565b5060010190565b60208082526021908201527f4f6e6c79206f776e65722063616e2063616c6c20746869732066756e6374696f6040820152603760f91b606082015260800190565b602080825260159082015274105b9cddd95c88191bd95cc81b9bdd08195e1a5cdd605a1b604082015260600190565b634e487b7160e01b600052603260045260246000fd5b601f821115612b5257600081815260208120601f850160051c8101602086101561355d5750805b601f850160051c820191505b8181101561357c57828155600101613569565b505050505050565b815167ffffffffffffffff81111561359e5761359e6130d2565b6135b2816135ac845461342c565b84613536565b602080601f8311600181146135e757600084156135cf5750858301515b600019600386901b1c1916600185901b17855561357c565b600085815260208120601f198616915b82811015613616578886015182559484019460019091019084016135f7565b50858210156136345787850151600019600388901b60f8161c191681555b5050505050600190811b01905550565b6040815260006136576040830185612fa6565b90508260208301529392505050565b60006020828403121561367857600080fd5b5051919050565b60208152600061095e6020830184612fa6565b81810381811115610932576109326133c2565b7f7b2274797065223a2271615f706c6174666f726d222c22616374696f6e223a228152600084516136dd816020850160208901612f82565b80830190506e1116113932b1b4b834b2b73a111d1160891b6020820152845161370d81602f840160208901612f82565b6e1116113a34b6b2b9ba30b6b8111d1160891b602f9290910191820152835161373d81603e840160208801612f82565b61227d60f01b603e929091019182015260400195945050505050565b84815283602082015260018060a01b03831660408201526080606082015260006137866080830184612fa6565b9695505050505050565b8281526040602082015260006137a96040830184612fa6565b949350505050565b600181815b808511156137ec5781600019048211156137d2576137d26133c2565b808516156137df57918102915b93841c93908002906137b6565b509250929050565b60008261380357506001610932565b8161381057506000610932565b816001811461382657600281146138305761384c565b6001915050610932565b60ff841115613841576138416133c2565b50506001821b610932565b5060208310610133831016604e8410600b841016171561386f575081810a610932565b61387983836137b1565b806000190482111561388d5761388d6133c2565b029392505050565b600061095e83836137f4565b600060ff8316806138b4576138b46133ef565b8060ff84160491505092915050565b60ff8181168382160290811690818114612cd357612cd36133c2565b60ff8281168282160390811115610932576109326133c2565b60ff8181168382160190811115610932576109326133c256fea26469706673582212208c471d38fa5639baaca73464dea69668b04f4f5ae636b435e9fbb2dcada52f4d64736f6c63430008140033",
  "linkReferences": {},
  "deployedLinkReferences": {}
}