{
  "_format": "hh-sol-artifact-1",
  "contractName": "SimpleQA",
  "sourceName": "contracts/SimpleQA.sol",
  "abi": [
    {
      "inputs": [
        {
          "internalType": "address",
          "name": "_x2EarnRewardsPoolContract",
          "type": "address"
        },
        {
          "internalType": "bytes32",
          "name": "_appId",
          "type": "bytes32"
        }
      ],
      "stateMutability": "nonpayable",
      "type": "constructor"
    },
    {
      "anonymous": false,
      "inputs": [
        {
          "indexed": true,
          "internalType": "uint256",
          "name": "answerId",
          "type": "uint256"
        },
        {
          "indexed": true,
          "internalType": "uint256",
          "name": "questionId",
          "type": "uint256"
        },
        {
          "indexed": true,
          "internalType": "address",
          "name": "answerer",
          "type": "address"
        },
        {
          "indexed": false,
          "internalType": "uint256",
          "name": "rewardAmount",
          "type": "uint256"
        }
      ],
      "name": "AnswerApproved",
      "type": "event"
    },
    {
      "anonymous": false,
      "inputs": [
        {
          "indexed": true,
          "internalType": "uint256",
          "name": "answerId",
          "type": "uint256"
        },
        {
          "indexed": true,
          "internalType": "uint256",
          "name": "questionId",
          "type": "uint256"
        },
        {
          "indexed": true,
          "internalType": "address",
          "name": "answerer",
          "type": "address"
        },
        {
          "indexed": false,
          "internalType": "string",
          "name": "content",
          "type": "string"
        }
      ],
      "name": "AnswerSubmitted",
      "type": "event"
    },
    {
      "anonymous": false,
      "inputs": [
        {
          "indexed": true,
          "internalType": "uint256",
          "name": "answerId",
          "type": "uint256"
        },
        {
          "indexed": true,
          "internalType": "address",
          "name": "upvoter",
          "type": "address"
        },
        {
          "indexed": false,
          "internalType": "uint256",
          "name": "newUpvoteCount",
          "type": "uint256"
        }
      ],
      "name": "AnswerUpvoted",
      "type": "event"
    },
    {
      "anonymous": false,
      "inputs": [
        {
          "indexed": true,
          "internalType": "uint256",
          "name": "questionId",
          "type": "uint256"
        },
        {
          "indexed": true,
          "internalType": "address",
          "name": "asker",
          "type": "address"
        },
        {
          "indexed": false,
          "internalType": "string",
          "name": "title",
          "type": "string"
        },
        {
          "indexed": false,
          "internalType": "uint256",
          "name": "bounty",
          "type": "uint256"
        }
      ],
      "name": "QuestionAsked",
      "type": "event"
    },
    {
      "anonymous": false,
      "inputs": [
        {
          "indexed": true,
          "internalType": "uint256",
          "name": "questionId",
          "type": "uint256"
        },
        {
          "indexed": true,
          "internalType": "address",
          "name": "upvoter",
          "type": "address"
        },
        {
          "indexed": false,
          "internalType": "uint256",
          "name": "newUpvoteCount",
          "type": "uint256"
        }
      ],
      "name": "QuestionUpvoted",
      "type": "event"
    },
    {
      "anonymous": false,
      "inputs": [
        {
          "indexed": true,
          "internalType": "address",
          "name": "receiver",
          "type": "address"
        },
        {
          "indexed": false,
          "internalType": "uint256",
          "name": "amount",
          "type": "uint256"
        },
        {
          "indexed": false,
          "internalType": "string",
          "name": "proof",
          "type": "string"
        }
      ],
      "name": "RewardDistributed",
      "type": "event"
    },
    {
      "anonymous": false,
      "inputs": [
        {
          "indexed": true,
          "internalType": "address",
          "name": "user",
          "type": "address"
        }
      ],
      "name": "UserRegistered",
      "type": "event"
    },
    {
      "inputs": [],
      "name": "answerCounter",
      "outputs": [
        {
          "internalType": "uint256",
          "name": "",
          "type": "uint256"
        }
      ],
      "stateMutability": "view",
      "type": "function"
    },
    {
      "inputs": [
        {
          "internalType": "uint256",
          "name": "",
          "type": "uint256"
        }
      ],
      "name": "answers",
      "outputs": [
        {
          "internalType": "uint256",
          "name": "id",
          "type": "uint256"
        },
        {
          "internalType": "uint256",
          "name": "questionId",
          "type": "uint256"
        },
        {
          "internalType": "address",
          "name": "answerer",
          "type": "address"
        },
        {
          "internalType": "string",
          "name": "content",
          "type": "string"
        },
        {
          "internalType": "uint256",
          "name": "upvotes",
          "type": "uint256"
        },
        {
          "internalType": "bool",
          "name": "isApproved",
          "type": "bool"
        },
        {
          "internalType": "uint256",
          "name": "timestamp",
          "type": "uint256"
        }
      ],
      "stateMutability": "view",
      "type": "function"
    },
    {
      "inputs": [],
      "name": "appId",
      "outputs": [
        {
          "internalType": "bytes32",
          "name": "",
          "type": "bytes32"
        }
      ],
      "stateMutability": "view",
      "type": "function"
    },
    {
      "inputs": [
        {
          "internalType": "uint256",
          "name": "_answerId",
          "type": "uint256"
        },
        {
          "internalType": "address",
          "name": "_approver",
          "type": "address"
        }
      ],
      "name": "approveAnswer",
      "outputs": [],
      "stateMutability": "nonpayable",
      "type": "function"
    },
    {
      "inputs": [
        {
          "internalType": "string",
          "name": "_title",
          "type": "string"
        },
        {
          "internalType": "string",
          "name": "_description",
          "type": "string"
        },
        {
          "internalType": "address",
          "name": "_asker",
          "type": "address"
        },
        {
          "internalType": "string[]",
          "name": "_tags",
          "type": "string[]"
        }
      ],
      "name": "askQuestion",
      "outputs": [],
      "stateMutability": "payable",
      "type": "function"
    },
    {
      "inputs": [
        {
          "internalType": "uint256",
          "name": "_answerId",
          "type": "uint256"
        }
      ],
      "name": "getAnswer",
      "outputs": [
        {
          "internalType": "uint256",
          "name": "id",
          "type": "uint256"
        },
        {
          "internalType": "uint256",
          "name": "questionId",
          "type": "uint256"
        },
        {
          "internalType": "address",
          "name": "answerer",
          "type": "address"
        },
        {
          "internalType": "string",
          "name": "content",
          "type": "string"
        },
        {
          "internalType": "uint256",
          "name": "upvotes",
          "type": "uint256"
        },
        {
          "internalType": "bool",
          "name": "isApproved",
          "type": "bool"
        },
        {
          "internalType": "uint256",
          "name": "timestamp",
          "type": "uint256"
        }
      ],
      "stateMutability": "view",
      "type": "function"
    },
    {
      "inputs": [
        {
          "internalType": "uint256",
          "name": "_answerId",
          "type": "uint256"
        }
      ],
      "name": "getAnswerer",
      "outputs": [
        {
          "internalType": "address",
          "name": "answerer",
          "type": "address"
        }
      ],
      "stateMutability": "view",
      "type": "function"
    },
    {
      "inputs": [],
      "name": "getPlatformStats",
      "outputs": [
        {
          "internalType": "uint256",
          "name": "totalQuestions",
          "type": "uint256"
        },
        {
          "internalType": "uint256",
          "name": "totalAnswers",
          "type": "uint256"
        },
        {
          "internalType": "uint256",
          "name": "totalUsers",
          "type": "uint256"
        },
        {
          "internalType": "uint256",
          "name": "contractBalance",
          "type": "uint256"
        }
      ],
      "stateMutability": "view",
      "type": "function"
    },
    {
      "inputs": [
        {
          "internalType": "uint256",
          "name": "_questionId",
          "type": "uint256"
        }
      ],
      "name": "getQuestion",
      "outputs": [
        {
          "internalType": "uint256",
          "name": "id",
          "type": "uint256"
        },
        {
          "internalType": "address",
          "name": "asker",
          "type": "address"
        },
        {
          "internalType": "string",
          "name": "title",
          "type": "string"
        },
        {
          "internalType": "string",
          "name": "description",
          "type": "string"
        },
        {
          "internalType": "uint256",
          "name": "bounty",
          "type": "uint256"
        },
        {
          "internalType": "bool",
          "name": "hasApprovedAnswer",
          "type": "bool"
        },
        {
          "internalType": "uint256",
          "name": "approvedAnswerId",
          "type": "uint256"
        },
        {
          "internalType": "uint256",
          "name": "upvotes",
          "type": "uint256"
        },
        {
          "internalType": "string[]",
          "name": "tags",
          "type": "string[]"
        },
        {
          "internalType": "uint256",
          "name": "timestamp",
          "type": "uint256"
        }
      ],
      "stateMutability": "view",
      "type": "function"
    },
    {
      "inputs": [
        {
          "internalType": "uint256",
          "name": "_questionId",
          "type": "uint256"
        }
      ],
      "name": "getQuestionAsker",
      "outputs": [
        {
          "internalType": "address",
          "name": "asker",
          "type": "address"
        }
      ],
      "stateMutability": "view",
      "type": "function"
    },
    {
      "inputs": [
        {
          "internalType": "address",
          "name": "_user",
          "type": "address"
        }
      ],
      "name": "getUser",
      "outputs": [
        {
          "internalType": "address",
          "name": "wallet",
          "type": "address"
        },
        {
          "internalType": "uint256",
          "name": "reputation",
          "type": "uint256"
        },
        {
          "internalType": "uint256",
          "name": "questionsAsked",
          "type": "uint256"
        },
        {
          "internalType": "uint256",
          "name": "answersGiven",
          "type": "uint256"
        },
        {
          "internalType": "uint256",
          "name": "answersApproved",
          "type": "uint256"
        }
      ],
      "stateMutability": "view",
      "type": "function"
    },
    {
      "inputs": [
        {
          "internalType": "address",
          "name": "",
          "type": "address"
        },
        {
          "internalType": "uint256",
          "name": "",
          "type": "uint256"
        }
      ],
      "name": "hasUpvoted",
      "outputs": [
        {
          "internalType": "bool",
          "name": "",
          "type": "bool"
        }
      ],
      "stateMutability": "view",
      "type": "function"
    },
    {
      "inputs": [
        {
          "internalType": "address",
          "name": "",
          "type": "address"
        },
        {
          "internalType": "uint256",
          "name": "",
          "type": "uint256"
        }
      ],
      "name": "hasUpvotedQuestion",
      "outputs": [
        {
          "internalType": "bool",
          "name": "",
          "type": "bool"
        }
      ],
      "stateMutability": "view",
      "type": "function"
    },
    {
      "inputs": [],
      "name": "owner",
      "outputs": [
        {
          "internalType": "address",
          "name": "",
          "type": "address"
        }
      ],
      "stateMutability": "view",
      "type": "function"
    },
    {
      "inputs": [],
      "name": "questionCounter",
      "outputs": [
        {
          "internalType": "uint256",
          "name": "",
          "type": "uint256"
        }
      ],
      "stateMutability": "view",
      "type": "function"
    },
    {
      "inputs": [
        {
          "internalType": "uint256",
          "name": "",
          "type": "uint256"
        }
      ],
      "name": "questions",
      "outputs": [
        {
          "internalType": "uint256",
          "name": "id",
          "type": "uint256"
        },
        {
          "internalType": "address",
          "name": "asker",
          "type": "address"
        },
        {
          "internalType": "string",
          "name": "title",
          "type": "string"
        },
        {
          "internalType": "string",
          "name": "description",
          "type": "string"
        },
        {
          "internalType": "uint256",
          "name": "bounty",
          "type": "uint256"
        },
        {
          "internalType": "bool",
          "name": "hasApprovedAnswer",
          "type": "bool"
        },
        {
          "internalType": "uint256",
          "name": "approvedAnswerId",
          "type": "uint256"
        },
        {
          "internalType": "uint256",
          "name": "upvotes",
          "type": "uint256"
        },
        {
          "internalType": "uint256",
          "name": "timestamp",
          "type": "uint256"
        }
      ],
      "stateMutability": "view",
      "type": "function"
    },
    {
      "inputs": [],
      "name": "registerUser",
      "outputs": [],
      "stateMutability": "nonpayable",
      "type": "function"
    },
    {
      "inputs": [],
      "name": "rewardAmount",
      "outputs": [
        {
          "internalType": "uint256",
          "name": "",
          "type": "uint256"
        }
      ],
      "stateMutability": "view",
      "type": "function"
    },
    {
      "inputs": [
        {
          "internalType": "uint256",
          "name": "_amount",
          "type": "uint256"
        }
      ],
      "name": "setRewardAmount",
      "outputs": [],
      "stateMutability": "nonpayable",
      "type": "function"
    },
    {
      "inputs": [
        {
          "internalType": "uint256",
          "name": "_questionId",
          "type": "uint256"
        },
        {
          "internalType": "string",
          "name": "_content",
          "type": "string"
        },
        {
          "internalType": "address",
          "name": "_answerer",
          "type": "address"
        }
      ],
      "name": "submitAnswer",
      "outputs": [],
      "stateMutability": "nonpayable",
      "type": "function"
    },
    {
      "inputs": [
        {
          "internalType": "bytes32",
          "name": "_appId",
          "type": "bytes32"
        }
      ],
      "name": "updateAppId",
      "outputs": [],
      "stateMutability": "nonpayable",
      "type": "function"
    },
    {
      "inputs": [
        {
          "internalType": "uint256",
          "name": "_answerId",
          "type": "uint256"
        },
        {
          "internalType": "address",
          "name": "_voter",
          "type": "address"
        }
      ],
      "name": "upvoteAnswer",
      "outputs": [],
      "stateMutability": "nonpayable",
      "type": "function"
    },
    {
      "inputs": [
        {
          "internalType": "uint256",
          "name": "_questionId",
          "type": "uint256"
        },
        {
          "internalType": "address",
          "name": "_voter",
          "type": "address"
        }
      ],
      "name": "upvoteQuestion",
      "outputs": [],
      "stateMutability": "nonpayable",
      "type": "function"
    },
    {
      "inputs": [
        {
          "internalType": "address",
          "name": "",
          "type": "address"
        }
      ],
      "name": "users",
      "outputs": [
        {
          "internalType": "address",
          "name": "wallet",
          "type": "address"
        },
        {
          "internalType": "uint256",
          "name": "reputation",
          "type": "uint256"
        },
        {
          "internalType": "uint256",
          "name": "questionsAsked",
          "type": "uint256"
        },
        {
          "internalType": "uint256",
          "name": "answersGiven",
          "type": "uint256"
        },
        {
          "internalType": "uint256",
          "name": "answersApproved",
          "type": "uint256"
        }
      ],
      "stateMutability": "view",
      "type": "function"
    },
    {
      "inputs": [],
      "name": "withdrawBalance",
      "outputs": [],
      "stateMutability": "nonpayable",
      "type": "function"
    },
    {
      "inputs": [],
      "name": "x2EarnRewardsPoolContract",
      "outputs": [
        {
          "internalType": "contract IX2EarnRewardsPool",
          "name": "",
          "type": "address"
        }
      ],
      "stateMutability": "view",
      "type": "function"
    }
  ],
  "bytecode": "0x6080604052674563918244f400006003553480156200001d57600080fd5b50604051620031bd380380620031bd833981016040819052620000409162000078565b60008054336001600160a01b031991821617909155600180549091166001600160a01b039390931692909217909155600255620000b4565b600080604083850312156200008c57600080fd5b82516001600160a01b0381168114620000a457600080fd5b6020939093015192949293505050565b6130f980620000c46000396000f3fe6080604052600436106101815760003560e01c806380afdea8116100d1578063b5ab58dc1161008a578063db88176f11610064578063db88176f14610552578063df1901b014610588578063f78145f3146105a8578063f7b2a7be146105c857600080fd5b8063b5ab58dc146104fc578063b7b064a81461051c578063cb9829e81461053257600080fd5b806380afdea81461041f5780638da5cb5b14610435578063998d933014610455578063a87430ba14610475578063a8a65a78146104c9578063a9a5a9ac146104e957600080fd5b80635898852c1161013e5780636a51df04116101185780636a51df041461031b5780636ed461b8146103565780636f77926b1461037657806373f80143146103ff57600080fd5b80635898852c146102aa5780635da2c0d0146102ce5780635fd8c7101461030657600080fd5b8063136d88831461018657806316bb5403146101c057806317599cc51461020b57806331b1b9781461023e578063458b8d00146102735780634d3820eb14610295575b600080fd5b34801561019257600080fd5b5061019b6105de565b6040805194855260208501939093529183015260608201526080015b60405180910390f35b3480156101cc57600080fd5b506101fb6101db3660046126f0565b600760209081526000928352604080842090915290825290205460ff1681565b60405190151581526020016101b7565b34801561021757600080fd5b5061022b61022636600461271a565b610609565b6040516101b79796959493929190612783565b34801561024a57600080fd5b5061025e61025936600461271a565b6106de565b6040516101b7999897969594939291906127cf565b34801561027f57600080fd5b5061029361028e36600461283c565b610844565b005b3480156102a157600080fd5b50610293610ad0565b3480156102b657600080fd5b506102c0600a5481565b6040519081526020016101b7565b3480156102da57600080fd5b506001546102ee906001600160a01b031681565b6040516001600160a01b0390911681526020016101b7565b34801561031257600080fd5b50610293610b86565b34801561032757600080fd5b506101fb6103363660046126f0565b600860209081526000928352604080842090915290825290205460ff1681565b34801561036257600080fd5b506102ee61037136600461271a565b610c90565b34801561038257600080fd5b506103cd610391366004612868565b6001600160a01b039081166000908152600660205260409020805460018201546002830154600384015460049094015492909416949093929190565b604080516001600160a01b0390961686526020860194909452928401919091526060830152608082015260a0016101b7565b34801561040b57600080fd5b506102ee61041a36600461271a565b610ce5565b34801561042b57600080fd5b506102c060025481565b34801561044157600080fd5b506000546102ee906001600160a01b031681565b34801561046157600080fd5b5061029361047036600461283c565b610d36565b34801561048157600080fd5b506103cd610490366004612868565b600660205260009081526040902080546001820154600283015460038401546004909401546001600160a01b0390931693919290919085565b3480156104d557600080fd5b506102936104e436600461271a565b611188565b6102936104f7366004612941565b611207565b34801561050857600080fd5b5061022b61051736600461271a565b61161c565b34801561052857600080fd5b506102c060095481565b34801561053e57600080fd5b5061029361054d366004612a5a565b611748565b34801561055e57600080fd5b5061057261056d36600461271a565b611a13565b6040516101b79a99989796959493929190612ab1565b34801561059457600080fd5b506102936105a336600461283c565b611cc6565b3480156105b457600080fd5b506102936105c336600461271a565b611fb3565b3480156105d457600080fd5b506102c060035481565b600080600080600954600a54600a546009546105fa9190612b90565b47935093509350935090919293565b6005602052600090815260409020805460018201546002830154600384018054939492936001600160a01b03909216929161064390612ba9565b80601f016020809104026020016040519081016040528092919081815260200182805461066f90612ba9565b80156106bc5780601f10610691576101008083540402835291602001916106bc565b820191906000526020600020905b81548152906001019060200180831161069f57829003601f168201915b50505050600483015460058401546006909401549293909260ff909116915087565b60046020526000908152604090208054600182015460028301805492936001600160a01b039092169261071090612ba9565b80601f016020809104026020016040519081016040528092919081815260200182805461073c90612ba9565b80156107895780601f1061075e57610100808354040283529160200191610789565b820191906000526020600020905b81548152906001019060200180831161076c57829003601f168201915b50505050509080600301805461079e90612ba9565b80601f01602080910402602001604051908101604052809291908181526020018280546107ca90612ba9565b80156108175780601f106107ec57610100808354040283529160200191610817565b820191906000526020600020905b8154815290600101906020018083116107fa57829003601f168201915b50505060048401546005850154600686015460078701546009909701549596929560ff9092169450925089565b8160008111801561085757506009548111155b61087c5760405162461bcd60e51b815260040161087390612bdd565b60405180910390fd5b6001600160a01b0382166108d25760405162461bcd60e51b815260206004820152601c60248201527f566f74657220616464726573732063616e6e6f74206265207a65726f000000006044820152606401610873565b6001600160a01b038216600090815260086020908152604080832086845290915290205460ff16156109465760405162461bcd60e51b815260206004820152601d60248201527f416c7265616479207570766f7465642074686973207175657374696f6e0000006044820152606401610873565b600083815260046020526040812060070180549161096383612c14565b90915550506001600160a01b0380831660009081526008602090815260408083208784528252808320805460ff1916600190811790915560048352818420015484168352600690915290205416610a36576040805160a0810182526000858152600460208181528483206001908101546001600160a01b039081168087528387018681528789018781526060890188815260808a01898152938952600690965298909620965187546001600160a01b03191692169190911786559351908501559351600284015592516003830155519101555b60008381526004602090815260408083206001908101546001600160a01b03168452600690925282208101805491929091610a72908490612b90565b90915550506000838152600460209081526040918290206007015491519182526001600160a01b0384169185917fdc0d26686e856e21cb2004fa5c0d79c922a19e94c9eb4b2328ba007cae3e31aa91015b60405180910390a3505050565b336000908152600660205260409020546001600160a01b0316610b84576040805160a081018252338082526000602080840182815284860183815260608601848152608087018581528686526006909452878520965187546001600160a01b0319166001600160a01b03909116178755915160018701555160028601555160038501555160049093019290925591517f54db7a5cb4735e1aac1f53db512d3390390bb6637bd30ad4bf9fc98667d9b9b99190a25b565b6000546001600160a01b03163314610bb05760405162461bcd60e51b815260040161087390612c2d565b4780610bf75760405162461bcd60e51b81526020600482015260166024820152754e6f2062616c616e636520746f20776974686472617760501b6044820152606401610873565b600080546040516001600160a01b039091169083908381818185875af1925050503d8060008114610c44576040519150601f19603f3d011682016040523d82523d6000602084013e610c49565b606091505b5050905080610c8c5760405162461bcd60e51b815260206004820152600f60248201526e151c985b9cd9995c8819985a5b1959608a1b6044820152606401610873565b5050565b600081600081118015610ca55750600a548111155b610cc15760405162461bcd60e51b815260040161087390612c6e565b6000838152600560205260409020600201546001600160a01b031691505b50919050565b600081600081118015610cfa57506009548111155b610d165760405162461bcd60e51b815260040161087390612bdd565b50506000908152600460205260409020600101546001600160a01b031690565b81600081118015610d495750600a548111155b610d655760405162461bcd60e51b815260040161087390612c6e565b6000838152600560205260409020600101546001600160a01b038316610dcd5760405162461bcd60e51b815260206004820152601f60248201527f417070726f76657220616464726573732063616e6e6f74206265207a65726f006044820152606401610873565b6000818152600460205260409020600101546001600160a01b03848116911614610e495760405162461bcd60e51b815260206004820152602760248201527f4f6e6c79207175657374696f6e2061736b65722063616e20617070726f766520604482015266616e737765727360c81b6064820152608401610873565b60008181526004602052604090206005015460ff1615610ebb5760405162461bcd60e51b815260206004820152602760248201527f5175657374696f6e20616c72656164792068617320616e20617070726f7665646044820152661030b739bbb2b960c91b6064820152608401610873565b6000848152600560205260409020600201546001600160a01b03808516911603610f275760405162461bcd60e51b815260206004820152601e60248201527f43616e6e6f7420617070726f766520796f7572206f776e20616e7377657200006044820152606401610873565b60008481526005602081815260408084208084018054600160ff19918216811790925587875260048552838720958601805490911690911790556006938401899055600201546001600160a01b039081168552929091529091205416611010576040805160a0810182526000868152600560209081528382206002908101546001600160a01b039081168086528386018581528688018681526060880187815260808901888152938852600690965297909520955186546001600160a01b0319169216919091178555925160018501559351938301939093559151600382015590516004909101555b6000848152600560209081526040808320600201546001600160a01b031683526006909152812060040180549161104683612c14565b90915550506000848152600560209081526040808320600201546001600160a01b03168352600690915281206001018054600a9290611086908490612b90565b909155505060008181526004602081905260409091200154158015906110be5750600081815260046020819052604090912001544710155b156110f857600084815260056020908152604080832060020154848452600492839052922001546110f8916001600160a01b031690611fe2565b60008481526005602052604090206002015461111c906001600160a01b0316612120565b6000848152600560209081526040808320600201548484526004808452938290209093015490519081526001600160a01b0390921691839187917f8329ccacea800a071cce42a6f9e4d8aea8cf3cb161d3b13b70ee1aa788c0a35f91015b60405180910390a450505050565b6000546001600160a01b031633146111b25760405162461bcd60e51b815260040161087390612c2d565b600081116112025760405162461bcd60e51b815260206004820152601d60248201527f416d6f756e74206d7573742062652067726561746572207468616e20300000006044820152606401610873565b600355565b60008451116112505760405162461bcd60e51b81526020600482015260156024820152745469746c652063616e6e6f7420626520656d70747960581b6044820152606401610873565b60008351116112a15760405162461bcd60e51b815260206004820152601b60248201527f4465736372697074696f6e2063616e6e6f7420626520656d70747900000000006044820152606401610873565b6001600160a01b0382166112f75760405162461bcd60e51b815260206004820152601c60248201527f41736b657220616464726573732063616e6e6f74206265207a65726f000000006044820152606401610873565b6005815111156113425760405162461bcd60e51b815260206004820152601660248201527513585e1a5b5d5b480d481d1859dcc8185b1b1bddd95960521b6044820152606401610873565b60005b81518110156113c057600082828151811061136257611362612c9d565b602002602001015151116113ae5760405162461bcd60e51b81526020600482015260136024820152725461672063616e6e6f7420626520656d70747960681b6044820152606401610873565b806113b881612c14565b915050611345565b506001600160a01b038281166000908152600660205260409020541661147e576040805160a0810182526001600160a01b038481168083526000602080850182815285870183815260608701848152608088018581528686526006909452888520975188546001600160a01b031916971696909617875590516001870155516002860155925160038501559151600490930192909255915190917f54db7a5cb4735e1aac1f53db512d3390390bb6637bd30ad4bf9fc98667d9b9b991a25b6009805490600061148e83612c14565b909155505060408051610140810182526009548082526001600160a01b0385811660208085019182528486018a8152606086018a9052346080870152600060a0870181905260c0870181905260e087018190526101008701899052426101208801529485526004909152949092208351815591516001830180546001600160a01b031916919092161790559151909190600282019061152d9082612d01565b50606082015160038201906115429082612d01565b506080820151600482015560a082015160058201805460ff191691151591909117905560c0820151600682015560e082015160078201556101008201518051611595916008840191602090910190612614565b5061012091909101516009909101556001600160a01b03821660009081526006602052604081206002018054916115cb83612c14565b9190505550336001600160a01b03166009547fd9b9e1b916e7a6ed83ba10035a29fbe9306132df4c0b225c9223727dabf5acfa863460405161160e929190612dc1565b60405180910390a350505050565b6000806000606060008060008760008111801561163b5750600a548111155b6116575760405162461bcd60e51b815260040161087390612c6e565b600089815260056020819052604090912080546001820154600283015460048401549484015460068501546003860180549697959694956001600160a01b039094169490939260ff16919084906116ad90612ba9565b80601f01602080910402602001604051908101604052809291908181526020018280546116d990612ba9565b80156117265780601f106116fb57610100808354040283529160200191611726565b820191906000526020600020905b81548152906001019060200180831161170957829003601f168201915b5050505050935098509850985098509850985098505050919395979092949650565b8260008111801561175b57506009548111155b6117775760405162461bcd60e51b815260040161087390612bdd565b60008351116117c85760405162461bcd60e51b815260206004820152601e60248201527f416e7377657220636f6e74656e742063616e6e6f7420626520656d70747900006044820152606401610873565b6001600160a01b03821661181e5760405162461bcd60e51b815260206004820152601f60248201527f416e73776572657220616464726573732063616e6e6f74206265207a65726f006044820152606401610873565b6001600160a01b03828116600090815260066020526040902054166118db576040805160a0810182526001600160a01b038481168083526000602080850182815285870183815260608701848152608088018581528686526006909452888520975188546001600160a01b031916971696909617875590516001870155516002860155925160038501559151600490930192909255915190917f54db7a5cb4735e1aac1f53db512d3390390bb6637bd30ad4bf9fc98667d9b9b991a25b600a80549060006118eb83612c14565b90915550506040805160e081018252600a5480825260208083018881526001600160a01b03878116858701908152606086018a815260006080880181905260a088018190524260c0890152958652600590945295909320845181559051600182015593516002850180546001600160a01b031916919093161790915551909190600382019061197a9082612d01565b506080820151600482015560a082015160058201805460ff191691151591909117905560c0909101516006918201556001600160a01b0383166000908152602091909152604081206003018054916119d183612c14565b9190505550336001600160a01b031684600a547f1b72a809869907cac4c4e55b8bf6920ff492d2ff53307bb77ba492366b61387c8660405161117a9190612de3565b600080606080600080600080606060008a600081118015611a3657506009548111155b611a525760405162461bcd60e51b815260040161087390612bdd565b6000600460008e8152602001908152602001600020905080600001548160010160009054906101000a90046001600160a01b0316826002018360030184600401548560050160009054906101000a900460ff1686600601548760070154886008018960090154878054611ac490612ba9565b80601f0160208091040260200160405190810160405280929190818152602001828054611af090612ba9565b8015611b3d5780601f10611b1257610100808354040283529160200191611b3d565b820191906000526020600020905b815481529060010190602001808311611b2057829003601f168201915b50505050509750868054611b5090612ba9565b80601f0160208091040260200160405190810160405280929190818152602001828054611b7c90612ba9565b8015611bc95780601f10611b9e57610100808354040283529160200191611bc9565b820191906000526020600020905b815481529060010190602001808311611bac57829003601f168201915b5050505050965081805480602002602001604051908101604052809291908181526020016000905b82821015611c9d578382906000526020600020018054611c1090612ba9565b80601f0160208091040260200160405190810160405280929190818152602001828054611c3c90612ba9565b8015611c895780601f10611c5e57610100808354040283529160200191611c89565b820191906000526020600020905b815481529060010190602001808311611c6c57829003601f168201915b505050505081526020019060010190611bf1565b5050505091509b509b509b509b509b509b509b509b509b509b5050509193959799509193959799565b81600081118015611cd95750600a548111155b611cf55760405162461bcd60e51b815260040161087390612c6e565b6001600160a01b038216611d4b5760405162461bcd60e51b815260206004820152601c60248201527f566f74657220616464726573732063616e6e6f74206265207a65726f000000006044820152606401610873565b6001600160a01b038216600090815260076020908152604080832086845290915290205460ff1615611dbf5760405162461bcd60e51b815260206004820152601b60248201527f416c7265616479207570766f746564207468697320616e7377657200000000006044820152606401610873565b6000838152600560205260409020600201546001600160a01b03808416911603611e2b5760405162461bcd60e51b815260206004820152601d60248201527f43616e6e6f74207570766f746520796f7572206f776e20616e737765720000006044820152606401610873565b6000838152600560205260408120600401805491611e4883612c14565b90915550506001600160a01b0380831660009081526007602090815260408083208784528252808320805460ff19166001179055600582528083206002015484168352600690915290205416611f21576040805160a0810182526000858152600560209081528382206002908101546001600160a01b039081168086528386018581528688018681526060880187815260808901888152938852600690965297909520955186546001600160a01b0319169216919091178555925160018501559351938301939093559151600382015590516004909101555b6000838152600560209081526040808320600201546001600160a01b03168352600690915281206001908101805491929091611f5e908490612b90565b90915550506000838152600560209081526040918290206004015491519182526001600160a01b0384169185917f805896dd3b416f34de785a678446dc15a87bd020164463bcba743a24a075be2e9101610ac3565b6000546001600160a01b03163314611fdd5760405162461bcd60e51b815260040161087390612c2d565b600255565b600081116120325760405162461bcd60e51b815260206004820152601760248201527f4e6f20626f756e747920746f20646973747269627574650000000000000000006044820152606401610873565b804710156120825760405162461bcd60e51b815260206004820152601d60248201527f496e73756666696369656e7420636f6e74726163742062616c616e63650000006044820152606401610873565b6000826001600160a01b03168260405160006040518083038185875af1925050503d80600081146120cf576040519150601f19603f3d011682016040523d82523d6000602084013e6120d4565b606091505b505090508061211b5760405162461bcd60e51b8152602060048201526013602482015272159155081d1c985b9cd9995c8819985a5b1959606a1b6044820152606401610873565b505050565b6001546001600160a01b031615806121385750600254155b156121405750565b60006003541161219e5760405162461bcd60e51b8152602060048201526024808201527f52657761726420616d6f756e74206d75737420626520677265617465722074686044820152630616e20360e41b6064820152608401610873565b600154600254604051633c9d10cd60e21b81526001600160a01b039092169163f2744334916121d39160040190815260200190565b602060405180830381865afa1580156121f0573d6000803e3d6000fd5b505050506040513d601f19601f820116820180604052508101906122149190612df6565b600354111561227c5760405162461bcd60e51b815260206004820152602e60248201527f496e73756666696369656e742066756e647320696e205665426574746572444160448201526d13c81c995dd85c991cc81c1bdbdb60921b6064820152608401610873565b600061228782612366565b612290426124ad565b6040516020016122a1929190612e0f565b60408051601f198184030181529082905260015460025460035463f7335f1160e01b85529294506001600160a01b039091169263f7335f11926122eb929187908790600401612eb7565b600060405180830381600087803b15801561230557600080fd5b505af1158015612319573d6000803e3d6000fd5b50505050816001600160a01b03167f49649141d16971a88c3cfdd73fec34babb1cf163cf8b804c8f537a023c6ce5066003548360405161235a929190612eee565b60405180910390a25050565b60408051602880825260608281019093526000919060208201818036833701905050905060005b60148110156124a65760006123a3826013612f0f565b6123ae906008612f22565b6123b990600261301d565b6123cc906001600160a01b03871661303f565b60f81b9050600060108260f81c6123e39190613053565b60f81b905060008160f81c60106123fa9190613075565b8360f81c6124089190613091565b60f81b9050612416826125d9565b85612422866002612f22565b8151811061243257612432612c9d565b60200101906001600160f81b031916908160001a905350612452816125d9565b8561245e866002612f22565b612469906001612b90565b8151811061247957612479612c9d565b60200101906001600160f81b031916908160001a905350505050808061249e90612c14565b91505061238d565b5092915050565b6060816000036124d45750506040805180820190915260018152600360fc1b602082015290565b8160005b81156124fe57806124e881612c14565b91506124f79050600a8361303f565b91506124d8565b60008167ffffffffffffffff8111156125195761251961288a565b6040519080825280601f01601f191660200182016040528015612543576020820181803683370190505b509050815b85156125d057612559600182612f0f565b90506000612568600a8861303f565b61257390600a612f22565b61257d9088612f0f565b6125889060306130aa565b905060008160f81b9050808484815181106125a5576125a5612c9d565b60200101906001600160f81b031916908160001a9053506125c7600a8961303f565b97505050612548565b50949350505050565b6000600a60f883901c1015612600576125f760f883901c60306130aa565b60f81b92915050565b6125f760f883901c60576130aa565b919050565b82805482825590600052602060002090810192821561265a579160200282015b8281111561265a578251829061264a9082612d01565b5091602001919060010190612634565b5061266692915061266a565b5090565b8082111561266657600061267e8282612687565b5060010161266a565b50805461269390612ba9565b6000825580601f106126a3575050565b601f0160209004906000526020600020908101906126c191906126c4565b50565b5b8082111561266657600081556001016126c5565b80356001600160a01b038116811461260f57600080fd5b6000806040838503121561270357600080fd5b61270c836126d9565b946020939093013593505050565b60006020828403121561272c57600080fd5b5035919050565b60005b8381101561274e578181015183820152602001612736565b50506000910152565b6000815180845261276f816020860160208601612733565b601f01601f19169290920160200192915050565b87815286602082015260018060a01b038616604082015260e0606082015260006127b060e0830187612757565b60808301959095525091151560a083015260c090910152949350505050565b8981526001600160a01b0389166020820152610120604082018190526000906127fa8382018b612757565b9050828103606084015261280e818a612757565b6080840198909852505093151560a085015260c084019290925260e083015261010090910152949350505050565b6000806040838503121561284f57600080fd5b8235915061285f602084016126d9565b90509250929050565b60006020828403121561287a57600080fd5b612883826126d9565b9392505050565b634e487b7160e01b600052604160045260246000fd5b604051601f8201601f1916810167ffffffffffffffff811182821017156128c9576128c961288a565b604052919050565b600082601f8301126128e257600080fd5b813567ffffffffffffffff8111156128fc576128fc61288a565b61290f601f8201601f19166020016128a0565b81815284602083860101111561292457600080fd5b816020850160208301376000918101602001919091529392505050565b6000806000806080858703121561295757600080fd5b843567ffffffffffffffff8082111561296f57600080fd5b61297b888389016128d1565b955060209150818701358181111561299257600080fd5b61299e89828a016128d1565b9550506129ad604088016126d9565b93506060870135818111156129c157600080fd5b8701601f810189136129d257600080fd5b8035828111156129e4576129e461288a565b8060051b6129f38582016128a0565b918252828101850191858101908c841115612a0d57600080fd5b86850192505b83831015612a4957823586811115612a2b5760008081fd5b612a398e89838901016128d1565b8352509186019190860190612a13565b999c989b5096995050505050505050565b600080600060608486031215612a6f57600080fd5b83359250602084013567ffffffffffffffff811115612a8d57600080fd5b612a99868287016128d1565b925050612aa8604085016126d9565b90509250925092565b60006101408c8352602060018060a01b038d1681850152816040850152612ada8285018d612757565b91508382036060850152612aee828c612757565b915089608085015288151560a08501528760c08501528660e08501528382036101008501528186518084528284019150828160051b85010183890160005b83811015612b5a57601f19878403018552612b48838351612757565b94860194925090850190600101612b2c565b50508095505050505050826101208301529b9a5050505050505050505050565b634e487b7160e01b600052601160045260246000fd5b80820180821115612ba357612ba3612b7a565b92915050565b600181811c90821680612bbd57607f821691505b602082108103610cdf57634e487b7160e01b600052602260045260246000fd5b60208082526017908201527f5175657374696f6e20646f6573206e6f74206578697374000000000000000000604082015260600190565b600060018201612c2657612c26612b7a565b5060010190565b60208082526021908201527f4f6e6c79206f776e65722063616e2063616c6c20746869732066756e6374696f6040820152603760f91b606082015260800190565b602080825260159082015274105b9cddd95c88191bd95cc81b9bdd08195e1a5cdd605a1b604082015260600190565b634e487b7160e01b600052603260045260246000fd5b601f82111561211b57600081815260208120601f850160051c81016020861015612cda5750805b601f850160051c820191505b81811015612cf957828155600101612ce6565b505050505050565b815167ffffffffffffffff811115612d1b57612d1b61288a565b612d2f81612d298454612ba9565b84612cb3565b602080601f831160018114612d645760008415612d4c5750858301515b600019600386901b1c1916600185901b178555612cf9565b600085815260208120601f198616915b82811015612d9357888601518255948401946001909101908401612d74565b5085821015612db15787850151600019600388901b60f8161c191681555b5050505050600190811b01905550565b604081526000612dd46040830185612757565b90508260208301529392505050565b6020815260006128836020830184612757565b600060208284031215612e0857600080fd5b5051919050565b7f7b2274797065223a2271615f706c6174666f726d222c22616374696f6e223a2281527f616e737765725f617070726f766564222c22616e737765726572223a22000000602082015260008351612e6d81603d850160208801612733565b6e1116113a34b6b2b9ba30b6b8111d1160891b603d918401918201528351612e9c81604c840160208801612733565b61227d60f01b604c9290910191820152604e01949350505050565b84815283602082015260018060a01b0383166040820152608060608201526000612ee46080830184612757565b9695505050505050565b828152604060208201526000612f076040830184612757565b949350505050565b81810381811115612ba357612ba3612b7a565b8082028115828204841417612ba357612ba3612b7a565b600181815b80851115612f74578160001904821115612f5a57612f5a612b7a565b80851615612f6757918102915b93841c9390800290612f3e565b509250929050565b600082612f8b57506001612ba3565b81612f9857506000612ba3565b8160018114612fae5760028114612fb857612fd4565b6001915050612ba3565b60ff841115612fc957612fc9612b7a565b50506001821b612ba3565b5060208310610133831016604e8410600b8410161715612ff7575081810a612ba3565b6130018383612f39565b806000190482111561301557613015612b7a565b029392505050565b60006128838383612f7c565b634e487b7160e01b600052601260045260246000fd5b60008261304e5761304e613029565b500490565b600060ff83168061306657613066613029565b8060ff84160491505092915050565b60ff81811683821602908116908181146124a6576124a6612b7a565b60ff8281168282160390811115612ba357612ba3612b7a565b60ff8181168382160190811115612ba357612ba3612b7a56fea26469706673582212201f1e9657982483319f87f329e9415c55313e35c871f8836b8bbce7d0062ace1664736f6c63430008140033",
  "linkReferences": {},
  "deployedLinkReferences": {}
}