{
  "_format": "hh-sol-artifact-1",
  "contractName": "SimpleQA",
  "sourceName": "contracts/SimpleQA.sol",
  "abi": [
    {
      "inputs": [
        {
          "internalType": "address",
          "name": "_x2EarnRewardsPoolContract",
          "type": "address"
        },
        {
          "internalType": "bytes32",
          "name": "_appId",
          "type": "bytes32"
        }
      ],
      "stateMutability": "nonpayable",
      "type": "constructor"
    },
    {
      "anonymous": false,
      "inputs": [
        {
          "indexed": true,
          "internalType": "uint256",
          "name": "answerId",
          "type": "uint256"
        },
        {
          "indexed": true,
          "internalType": "uint256",
          "name": "questionId",
          "type": "uint256"
        },
        {
          "indexed": true,
          "internalType": "address",
          "name": "answerer",
          "type": "address"
        },
        {
          "indexed": false,
          "internalType": "uint256",
          "name": "rewardAmount",
          "type": "uint256"
        }
      ],
      "name": "AnswerApproved",
      "type": "event"
    },
    {
      "anonymous": false,
      "inputs": [
        {
          "indexed": true,
          "internalType": "uint256",
          "name": "answerId",
          "type": "uint256"
        },
        {
          "indexed": true,
          "internalType": "uint256",
          "name": "questionId",
          "type": "uint256"
        },
        {
          "indexed": true,
          "internalType": "address",
          "name": "answerer",
          "type": "address"
        },
        {
          "indexed": false,
          "internalType": "string",
          "name": "content",
          "type": "string"
        }
      ],
      "name": "AnswerSubmitted",
      "type": "event"
    },
    {
      "anonymous": false,
      "inputs": [
        {
          "indexed": true,
          "internalType": "uint256",
          "name": "answerId",
          "type": "uint256"
        },
        {
          "indexed": true,
          "internalType": "address",
          "name": "upvoter",
          "type": "address"
        },
        {
          "indexed": false,
          "internalType": "uint256",
          "name": "newUpvoteCount",
          "type": "uint256"
        }
      ],
      "name": "AnswerUpvoted",
      "type": "event"
    },
    {
      "anonymous": false,
      "inputs": [
        {
          "indexed": true,
          "internalType": "uint256",
          "name": "questionId",
          "type": "uint256"
        },
        {
          "indexed": true,
          "internalType": "address",
          "name": "asker",
          "type": "address"
        },
        {
          "indexed": false,
          "internalType": "string",
          "name": "title",
          "type": "string"
        },
        {
          "indexed": false,
          "internalType": "uint256",
          "name": "bounty",
          "type": "uint256"
        }
      ],
      "name": "QuestionAsked",
      "type": "event"
    },
    {
      "anonymous": false,
      "inputs": [
        {
          "indexed": true,
          "internalType": "address",
          "name": "receiver",
          "type": "address"
        },
        {
          "indexed": false,
          "internalType": "uint256",
          "name": "amount",
          "type": "uint256"
        },
        {
          "indexed": false,
          "internalType": "string",
          "name": "proof",
          "type": "string"
        }
      ],
      "name": "RewardDistributed",
      "type": "event"
    },
    {
      "anonymous": false,
      "inputs": [
        {
          "indexed": true,
          "internalType": "address",
          "name": "user",
          "type": "address"
        }
      ],
      "name": "UserRegistered",
      "type": "event"
    },
    {
      "inputs": [],
      "name": "answerCounter",
      "outputs": [
        {
          "internalType": "uint256",
          "name": "",
          "type": "uint256"
        }
      ],
      "stateMutability": "view",
      "type": "function"
    },
    {
      "inputs": [
        {
          "internalType": "uint256",
          "name": "",
          "type": "uint256"
        }
      ],
      "name": "answers",
      "outputs": [
        {
          "internalType": "uint256",
          "name": "id",
          "type": "uint256"
        },
        {
          "internalType": "uint256",
          "name": "questionId",
          "type": "uint256"
        },
        {
          "internalType": "address",
          "name": "answerer",
          "type": "address"
        },
        {
          "internalType": "string",
          "name": "content",
          "type": "string"
        },
        {
          "internalType": "uint256",
          "name": "upvotes",
          "type": "uint256"
        },
        {
          "internalType": "bool",
          "name": "isApproved",
          "type": "bool"
        },
        {
          "internalType": "uint256",
          "name": "timestamp",
          "type": "uint256"
        }
      ],
      "stateMutability": "view",
      "type": "function"
    },
    {
      "inputs": [],
      "name": "appId",
      "outputs": [
        {
          "internalType": "bytes32",
          "name": "",
          "type": "bytes32"
        }
      ],
      "stateMutability": "view",
      "type": "function"
    },
    {
      "inputs": [
        {
          "internalType": "uint256",
          "name": "_answerId",
          "type": "uint256"
        }
      ],
      "name": "approveAnswer",
      "outputs": [],
      "stateMutability": "nonpayable",
      "type": "function"
    },
    {
      "inputs": [
        {
          "internalType": "string",
          "name": "_title",
          "type": "string"
        },
        {
          "internalType": "string",
          "name": "_description",
          "type": "string"
        }
      ],
      "name": "askQuestion",
      "outputs": [],
      "stateMutability": "payable",
      "type": "function"
    },
    {
      "inputs": [
        {
          "internalType": "uint256",
          "name": "_answerId",
          "type": "uint256"
        }
      ],
      "name": "getAnswer",
      "outputs": [
        {
          "internalType": "uint256",
          "name": "id",
          "type": "uint256"
        },
        {
          "internalType": "uint256",
          "name": "questionId",
          "type": "uint256"
        },
        {
          "internalType": "address",
          "name": "answerer",
          "type": "address"
        },
        {
          "internalType": "string",
          "name": "content",
          "type": "string"
        },
        {
          "internalType": "uint256",
          "name": "upvotes",
          "type": "uint256"
        },
        {
          "internalType": "bool",
          "name": "isApproved",
          "type": "bool"
        },
        {
          "internalType": "uint256",
          "name": "timestamp",
          "type": "uint256"
        }
      ],
      "stateMutability": "view",
      "type": "function"
    },
    {
      "inputs": [
        {
          "internalType": "uint256",
          "name": "_answerId",
          "type": "uint256"
        }
      ],
      "name": "getAnswerer",
      "outputs": [
        {
          "internalType": "address",
          "name": "answerer",
          "type": "address"
        }
      ],
      "stateMutability": "view",
      "type": "function"
    },
    {
      "inputs": [],
      "name": "getPlatformStats",
      "outputs": [
        {
          "internalType": "uint256",
          "name": "totalQuestions",
          "type": "uint256"
        },
        {
          "internalType": "uint256",
          "name": "totalAnswers",
          "type": "uint256"
        },
        {
          "internalType": "uint256",
          "name": "totalUsers",
          "type": "uint256"
        },
        {
          "internalType": "uint256",
          "name": "contractBalance",
          "type": "uint256"
        }
      ],
      "stateMutability": "view",
      "type": "function"
    },
    {
      "inputs": [
        {
          "internalType": "uint256",
          "name": "_questionId",
          "type": "uint256"
        }
      ],
      "name": "getQuestion",
      "outputs": [
        {
          "internalType": "uint256",
          "name": "id",
          "type": "uint256"
        },
        {
          "internalType": "address",
          "name": "asker",
          "type": "address"
        },
        {
          "internalType": "string",
          "name": "title",
          "type": "string"
        },
        {
          "internalType": "string",
          "name": "description",
          "type": "string"
        },
        {
          "internalType": "uint256",
          "name": "bounty",
          "type": "uint256"
        },
        {
          "internalType": "bool",
          "name": "isActive",
          "type": "bool"
        },
        {
          "internalType": "bool",
          "name": "hasApprovedAnswer",
          "type": "bool"
        },
        {
          "internalType": "uint256",
          "name": "approvedAnswerId",
          "type": "uint256"
        },
        {
          "internalType": "uint256",
          "name": "timestamp",
          "type": "uint256"
        }
      ],
      "stateMutability": "view",
      "type": "function"
    },
    {
      "inputs": [
        {
          "internalType": "uint256",
          "name": "_questionId",
          "type": "uint256"
        }
      ],
      "name": "getQuestionAsker",
      "outputs": [
        {
          "internalType": "address",
          "name": "asker",
          "type": "address"
        }
      ],
      "stateMutability": "view",
      "type": "function"
    },
    {
      "inputs": [
        {
          "internalType": "address",
          "name": "_user",
          "type": "address"
        }
      ],
      "name": "getUser",
      "outputs": [
        {
          "internalType": "address",
          "name": "wallet",
          "type": "address"
        },
        {
          "internalType": "uint256",
          "name": "reputation",
          "type": "uint256"
        },
        {
          "internalType": "uint256",
          "name": "questionsAsked",
          "type": "uint256"
        },
        {
          "internalType": "uint256",
          "name": "answersGiven",
          "type": "uint256"
        },
        {
          "internalType": "uint256",
          "name": "answersApproved",
          "type": "uint256"
        }
      ],
      "stateMutability": "view",
      "type": "function"
    },
    {
      "inputs": [
        {
          "internalType": "address",
          "name": "",
          "type": "address"
        },
        {
          "internalType": "uint256",
          "name": "",
          "type": "uint256"
        }
      ],
      "name": "hasUpvoted",
      "outputs": [
        {
          "internalType": "bool",
          "name": "",
          "type": "bool"
        }
      ],
      "stateMutability": "view",
      "type": "function"
    },
    {
      "inputs": [],
      "name": "owner",
      "outputs": [
        {
          "internalType": "address",
          "name": "",
          "type": "address"
        }
      ],
      "stateMutability": "view",
      "type": "function"
    },
    {
      "inputs": [],
      "name": "questionCounter",
      "outputs": [
        {
          "internalType": "uint256",
          "name": "",
          "type": "uint256"
        }
      ],
      "stateMutability": "view",
      "type": "function"
    },
    {
      "inputs": [
        {
          "internalType": "uint256",
          "name": "",
          "type": "uint256"
        }
      ],
      "name": "questions",
      "outputs": [
        {
          "internalType": "uint256",
          "name": "id",
          "type": "uint256"
        },
        {
          "internalType": "address",
          "name": "asker",
          "type": "address"
        },
        {
          "internalType": "string",
          "name": "title",
          "type": "string"
        },
        {
          "internalType": "string",
          "name": "description",
          "type": "string"
        },
        {
          "internalType": "uint256",
          "name": "bounty",
          "type": "uint256"
        },
        {
          "internalType": "bool",
          "name": "isActive",
          "type": "bool"
        },
        {
          "internalType": "bool",
          "name": "hasApprovedAnswer",
          "type": "bool"
        },
        {
          "internalType": "uint256",
          "name": "approvedAnswerId",
          "type": "uint256"
        },
        {
          "internalType": "uint256",
          "name": "timestamp",
          "type": "uint256"
        }
      ],
      "stateMutability": "view",
      "type": "function"
    },
    {
      "inputs": [],
      "name": "registerUser",
      "outputs": [],
      "stateMutability": "nonpayable",
      "type": "function"
    },
    {
      "inputs": [],
      "name": "rewardAmount",
      "outputs": [
        {
          "internalType": "uint256",
          "name": "",
          "type": "uint256"
        }
      ],
      "stateMutability": "view",
      "type": "function"
    },
    {
      "inputs": [
        {
          "internalType": "uint256",
          "name": "_amount",
          "type": "uint256"
        }
      ],
      "name": "setRewardAmount",
      "outputs": [],
      "stateMutability": "nonpayable",
      "type": "function"
    },
    {
      "inputs": [
        {
          "internalType": "uint256",
          "name": "_questionId",
          "type": "uint256"
        },
        {
          "internalType": "string",
          "name": "_content",
          "type": "string"
        }
      ],
      "name": "submitAnswer",
      "outputs": [],
      "stateMutability": "nonpayable",
      "type": "function"
    },
    {
      "inputs": [
        {
          "internalType": "bytes32",
          "name": "_appId",
          "type": "bytes32"
        }
      ],
      "name": "updateAppId",
      "outputs": [],
      "stateMutability": "nonpayable",
      "type": "function"
    },
    {
      "inputs": [
        {
          "internalType": "uint256",
          "name": "_answerId",
          "type": "uint256"
        }
      ],
      "name": "upvoteAnswer",
      "outputs": [],
      "stateMutability": "nonpayable",
      "type": "function"
    },
    {
      "inputs": [
        {
          "internalType": "address",
          "name": "",
          "type": "address"
        }
      ],
      "name": "users",
      "outputs": [
        {
          "internalType": "address",
          "name": "wallet",
          "type": "address"
        },
        {
          "internalType": "uint256",
          "name": "reputation",
          "type": "uint256"
        },
        {
          "internalType": "uint256",
          "name": "questionsAsked",
          "type": "uint256"
        },
        {
          "internalType": "uint256",
          "name": "answersGiven",
          "type": "uint256"
        },
        {
          "internalType": "uint256",
          "name": "answersApproved",
          "type": "uint256"
        }
      ],
      "stateMutability": "view",
      "type": "function"
    },
    {
      "inputs": [],
      "name": "withdrawBalance",
      "outputs": [],
      "stateMutability": "nonpayable",
      "type": "function"
    },
    {
      "inputs": [],
      "name": "x2EarnRewardsPoolContract",
      "outputs": [
        {
          "internalType": "contract IX2EarnRewardsPool",
          "name": "",
          "type": "address"
        }
      ],
      "stateMutability": "view",
      "type": "function"
    }
  ],
  "bytecode": "0x6080604052674563918244f4000060035534801561001c57600080fd5b50604051620024b6380380620024b683398101604081905261003d91610074565b60008054336001600160a01b031991821617909155600180549091166001600160a01b0393909316929092179091556002556100ae565b6000806040838503121561008757600080fd5b82516001600160a01b038116811461009e57600080fd5b6020939093015192949293505050565b6123f880620000be6000396000f3fe60806040526004361061014b5760003560e01c806373f80143116100b6578063b5ab58dc1161006f578063b5ab58dc1461048b578063b7b064a8146104ab578063cf9512fc146104c1578063db88176f146104e1578063f78145f314610501578063f7b2a7be1461052157600080fd5b806373f80143146103a15780637df88f24146103c157806380afdea8146103e15780638da5cb5b146103f7578063a87430ba14610417578063a8a65a781461046b57600080fd5b80635898852c116101085780635898852c146102745780635da2c0d0146102985780635fd8c710146102d05780636ed461b8146102e55780636f77926b14610305578063705b88451461038e57600080fd5b806301fa3bec14610150578063136d88831461017257806316bb5403146101ac57806317599cc5146101f757806331b1b9781461022a5780634d3820eb1461025f575b600080fd5b34801561015c57600080fd5b5061017061016b366004611c53565b610537565b005b34801561017e57600080fd5b506101876107b0565b6040805194855260208501939093529183015260608201526080015b60405180910390f35b3480156101b857600080fd5b506101e76101c7366004611cb1565b600760209081526000928352604080842090915290825290205460ff1681565b60405190151581526020016101a3565b34801561020357600080fd5b50610217610212366004611cdb565b6107db565b6040516101a39796959493929190611d44565b34801561023657600080fd5b5061024a610245366004611cdb565b6108b0565b6040516101a399989796959493929190611d90565b34801561026b57600080fd5b50610170610a1a565b34801561028057600080fd5b5061028a60095481565b6040519081526020016101a3565b3480156102a457600080fd5b506001546102b8906001600160a01b031681565b6040516001600160a01b0390911681526020016101a3565b3480156102dc57600080fd5b50610170610ad0565b3480156102f157600080fd5b506102b8610300366004611cdb565b610bda565b34801561031157600080fd5b5061035c610320366004611dfd565b6001600160a01b039081166000908152600660205260409020805460018201546002830154600384015460049094015492909416949093929190565b604080516001600160a01b0390961686526020860194909452928401919091526060830152608082015260a0016101a3565b61017061039c366004611e1f565b610c2f565b3480156103ad57600080fd5b506102b86103bc366004611cdb565b610ef9565b3480156103cd57600080fd5b506101706103dc366004611cdb565b610f4a565b3480156103ed57600080fd5b5061028a60025481565b34801561040357600080fd5b506000546102b8906001600160a01b031681565b34801561042357600080fd5b5061035c610432366004611dfd565b600660205260009081526040902080546001820154600283015460038401546004909401546001600160a01b0390931693919290919085565b34801561047757600080fd5b50610170610486366004611cdb565b61103f565b34801561049757600080fd5b506102176104a6366004611cdb565b6110be565b3480156104b757600080fd5b5061028a60085481565b3480156104cd57600080fd5b506101706104dc366004611cdb565b6111ea565b3480156104ed57600080fd5b5061024a6104fc366004611cdb565b61139f565b34801561050d57600080fd5b5061017061051c366004611cdb565b61156f565b34801561052d57600080fd5b5061028a60035481565b8160008111801561054a57506008548111155b61056f5760405162461bcd60e51b815260040161056690611e79565b60405180910390fd5b60008251116105c05760405162461bcd60e51b815260206004820152601e60248201527f416e7377657220636f6e74656e742063616e6e6f7420626520656d70747900006044820152606401610566565b336000908152600660205260409020546001600160a01b0316610674576040805160a081018252338082526000602080840182815284860183815260608601848152608087018581528686526006909452878520965187546001600160a01b0319166001600160a01b03909116178755915160018701555160028601555160038501555160049093019290925591517f54db7a5cb4735e1aac1f53db512d3390390bb6637bd30ad4bf9fc98667d9b9b99190a25b6009805490600061068483611ec6565b90915550506040805160e0810182526009548082526020808301878152338486019081526060850188815260006080870181905260a087018190524260c0880152948552600590935294909220835181559151600183015592516002820180546001600160a01b0319166001600160a01b03909216919091179055915190919060038201906107139082611f61565b506080820151600482015560a082015160058201805460ff191691151591909117905560c0909101516006918201553360009081526020919091526040812060030180549161076183611ec6565b9190505550336001600160a01b0316836009547f1b72a809869907cac4c4e55b8bf6920ff492d2ff53307bb77ba492366b61387c856040516107a39190612021565b60405180910390a4505050565b6000806000806008546009546009546008546107cc9190612034565b47935093509350935090919293565b6005602052600090815260409020805460018201546002830154600384018054939492936001600160a01b03909216929161081590611edf565b80601f016020809104026020016040519081016040528092919081815260200182805461084190611edf565b801561088e5780601f106108635761010080835404028352916020019161088e565b820191906000526020600020905b81548152906001019060200180831161087157829003601f168201915b50505050600483015460058401546006909401549293909260ff909116915087565b60046020526000908152604090208054600182015460028301805492936001600160a01b03909216926108e290611edf565b80601f016020809104026020016040519081016040528092919081815260200182805461090e90611edf565b801561095b5780601f106109305761010080835404028352916020019161095b565b820191906000526020600020905b81548152906001019060200180831161093e57829003601f168201915b50505050509080600301805461097090611edf565b80601f016020809104026020016040519081016040528092919081815260200182805461099c90611edf565b80156109e95780601f106109be576101008083540402835291602001916109e9565b820191906000526020600020905b8154815290600101906020018083116109cc57829003601f168201915b5050506004840154600585015460068601546007909601549495919460ff8083169550610100909204909116925089565b336000908152600660205260409020546001600160a01b0316610ace576040805160a081018252338082526000602080840182815284860183815260608601848152608087018581528686526006909452878520965187546001600160a01b0319166001600160a01b03909116178755915160018701555160028601555160038501555160049093019290925591517f54db7a5cb4735e1aac1f53db512d3390390bb6637bd30ad4bf9fc98667d9b9b99190a25b565b6000546001600160a01b03163314610afa5760405162461bcd60e51b81526004016105669061204d565b4780610b415760405162461bcd60e51b81526020600482015260166024820152754e6f2062616c616e636520746f20776974686472617760501b6044820152606401610566565b600080546040516001600160a01b039091169083908381818185875af1925050503d8060008114610b8e576040519150601f19603f3d011682016040523d82523d6000602084013e610b93565b606091505b5050905080610bd65760405162461bcd60e51b815260206004820152600f60248201526e151c985b9cd9995c8819985a5b1959608a1b6044820152606401610566565b5050565b600081600081118015610bef57506009548111155b610c0b5760405162461bcd60e51b81526004016105669061208e565b6000838152600560205260409020600201546001600160a01b031691505b50919050565b6000825111610c785760405162461bcd60e51b81526020600482015260156024820152745469746c652063616e6e6f7420626520656d70747960581b6044820152606401610566565b6000815111610cc95760405162461bcd60e51b815260206004820152601b60248201527f4465736372697074696f6e2063616e6e6f7420626520656d70747900000000006044820152606401610566565b336000908152600660205260409020546001600160a01b0316610d7d576040805160a081018252338082526000602080840182815284860183815260608601848152608087018581528686526006909452878520965187546001600160a01b0319166001600160a01b03909116178755915160018701555160028601555160038501555160049093019290925591517f54db7a5cb4735e1aac1f53db512d3390390bb6637bd30ad4bf9fc98667d9b9b99190a25b60088054906000610d8d83611ec6565b9091555050604080516101208101825260085480825233602080840191825283850187815260608501879052346080860152600160a08601819052600060c0870181905260e087018190524261010088015294855260049092529490922083518155905191810180546001600160a01b0319166001600160a01b039093169290921790915591519091906002820190610e269082611f61565b5060608201516003820190610e3b9082611f61565b506080820151600482015560a082015160058201805460c085015161ffff1990911692151561ff00191692909217610100921515830217905560e083015160068084019190915592015160079091015533600090815260209190915260408120600201805491610eaa83611ec6565b9190505550336001600160a01b03166008547fd9b9e1b916e7a6ed83ba10035a29fbe9306132df4c0b225c9223727dabf5acfa8434604051610eed9291906120bd565b60405180910390a35050565b600081600081118015610f0e57506008548111155b610f2a5760405162461bcd60e51b815260040161056690611e79565b50506000908152600460205260409020600101546001600160a01b031690565b80600081118015610f5d57506009548111155b610f795760405162461bcd60e51b81526004016105669061208e565b6000828152600560205260408120600401805491610f9683611ec6565b90915550503360009081526007602090815260408083208584528252808320805460ff1916600190811790915560058352818420600201546001600160a01b03168452600690925282208101805491929091610ff3908490612034565b9091555050600082815260056020908152604091829020600401549151918252339184917f805896dd3b416f34de785a678446dc15a87bd020164463bcba743a24a075be2e9101610eed565b6000546001600160a01b031633146110695760405162461bcd60e51b81526004016105669061204d565b600081116110b95760405162461bcd60e51b815260206004820152601d60248201527f416d6f756e74206d7573742062652067726561746572207468616e20300000006044820152606401610566565b600355565b600080600060606000806000876000811180156110dd57506009548111155b6110f95760405162461bcd60e51b81526004016105669061208e565b600089815260056020819052604090912080546001820154600283015460048401549484015460068501546003860180549697959694956001600160a01b039094169490939260ff169190849061114f90611edf565b80601f016020809104026020016040519081016040528092919081815260200182805461117b90611edf565b80156111c85780601f1061119d576101008083540402835291602001916111c8565b820191906000526020600020905b8154815290600101906020018083116111ab57829003601f168201915b5050505050935098509850985098509850985098505050919395979092949650565b806000811180156111fd57506009548111155b6112195760405162461bcd60e51b81526004016105669061208e565b6000828152600560208181526040808420600180820154828601805460ff19169092179091558086526004808552838720958601805460069788018b905561ffff19166101001790556002909201546001600160a01b03168652939092528320018054919261128783611ec6565b90915550506000838152600560209081526040808320600201546001600160a01b03168352600690915281206001018054600a92906112c7908490612034565b909155505060008181526004602081905260409091200154156113195760008381526005602090815260408083206002015484845260049283905292200154611319916001600160a01b03169061159e565b60008381526005602052604090206002015461133d906001600160a01b03166116dc565b6000838152600560209081526040808320600201548484526004808452938290209093015490519081526001600160a01b0390921691839186917f8329ccacea800a071cce42a6f9e4d8aea8cf3cb161d3b13b70ee1aa788c0a35f91016107a3565b6000806060806000806000806000896000811180156113c057506008548111155b6113dc5760405162461bcd60e51b815260040161056690611e79565b60008b81526004602081905260409091208054600182015492820154600583015460068401546007850154600286018054969795966001600160a01b039096169590946003890194909360ff808316946101009093041692909190879061144290611edf565b80601f016020809104026020016040519081016040528092919081815260200182805461146e90611edf565b80156114bb5780601f10611490576101008083540402835291602001916114bb565b820191906000526020600020905b81548152906001019060200180831161149e57829003601f168201915b505050505096508580546114ce90611edf565b80601f01602080910402602001604051908101604052809291908181526020018280546114fa90611edf565b80156115475780601f1061151c57610100808354040283529160200191611547565b820191906000526020600020905b81548152906001019060200180831161152a57829003601f168201915b505050505095509a509a509a509a509a509a509a509a509a5050509193959799909294969850565b6000546001600160a01b031633146115995760405162461bcd60e51b81526004016105669061204d565b600255565b600081116115ee5760405162461bcd60e51b815260206004820152601760248201527f4e6f20626f756e747920746f20646973747269627574650000000000000000006044820152606401610566565b8047101561163e5760405162461bcd60e51b815260206004820152601d60248201527f496e73756666696369656e7420636f6e74726163742062616c616e63650000006044820152606401610566565b6000826001600160a01b03168260405160006040518083038185875af1925050503d806000811461168b576040519150601f19603f3d011682016040523d82523d6000602084013e611690565b606091505b50509050806116d75760405162461bcd60e51b8152602060048201526013602482015272159155081d1c985b9cd9995c8819985a5b1959606a1b6044820152606401610566565b505050565b60006003541161173a5760405162461bcd60e51b8152602060048201526024808201527f52657761726420616d6f756e74206d75737420626520677265617465722074686044820152630616e20360e41b6064820152608401610566565b600154600254604051633c9d10cd60e21b81526001600160a01b039092169163f27443349161176f9160040190815260200190565b602060405180830381865afa15801561178c573d6000803e3d6000fd5b505050506040513d601f19601f820116820180604052508101906117b091906120df565b60035411156118185760405162461bcd60e51b815260206004820152602e60248201527f496e73756666696369656e742066756e647320696e205665426574746572444160448201526d13c81c995dd85c991cc81c1bdbdb60921b6064820152608401610566565b600061182382611902565b61182c42611a49565b60405160200161183d9291906120f8565b60408051601f198184030181529082905260015460025460035463f7335f1160e01b85529294506001600160a01b039091169263f7335f11926118879291879087906004016121a0565b600060405180830381600087803b1580156118a157600080fd5b505af11580156118b5573d6000803e3d6000fd5b50505050816001600160a01b03167f49649141d16971a88c3cfdd73fec34babb1cf163cf8b804c8f537a023c6ce506600354836040516118f69291906121d7565b60405180910390a25050565b60408051602880825260608281019093526000919060208201818036833701905050905060005b6014811015611a4257600061193f8260136121f8565b61194a90600861220b565b611955906002612306565b611968906001600160a01b038716612328565b60f81b9050600060108260f81c61197f919061233c565b60f81b905060008160f81c6010611996919061235e565b8360f81c6119a4919061237a565b60f81b90506119b282611b75565b856119be86600261220b565b815181106119ce576119ce612393565b60200101906001600160f81b031916908160001a9053506119ee81611b75565b856119fa86600261220b565b611a05906001612034565b81518110611a1557611a15612393565b60200101906001600160f81b031916908160001a9053505050508080611a3a90611ec6565b915050611929565b5092915050565b606081600003611a705750506040805180820190915260018152600360fc1b602082015290565b8160005b8115611a9a5780611a8481611ec6565b9150611a939050600a83612328565b9150611a74565b60008167ffffffffffffffff811115611ab557611ab5611bb0565b6040519080825280601f01601f191660200182016040528015611adf576020820181803683370190505b509050815b8515611b6c57611af56001826121f8565b90506000611b04600a88612328565b611b0f90600a61220b565b611b1990886121f8565b611b249060306123a9565b905060008160f81b905080848481518110611b4157611b41612393565b60200101906001600160f81b031916908160001a905350611b63600a89612328565b97505050611ae4565b50949350505050565b6000600a60f883901c1015611b9c57611b9360f883901c60306123a9565b60f81b92915050565b611b9360f883901c60576123a9565b919050565b634e487b7160e01b600052604160045260246000fd5b600082601f830112611bd757600080fd5b813567ffffffffffffffff80821115611bf257611bf2611bb0565b604051601f8301601f19908116603f01168101908282118183101715611c1a57611c1a611bb0565b81604052838152866020858801011115611c3357600080fd5b836020870160208301376000602085830101528094505050505092915050565b60008060408385031215611c6657600080fd5b82359150602083013567ffffffffffffffff811115611c8457600080fd5b611c9085828601611bc6565b9150509250929050565b80356001600160a01b0381168114611bab57600080fd5b60008060408385031215611cc457600080fd5b611ccd83611c9a565b946020939093013593505050565b600060208284031215611ced57600080fd5b5035919050565b60005b83811015611d0f578181015183820152602001611cf7565b50506000910152565b60008151808452611d30816020860160208601611cf4565b601f01601f19169290920160200192915050565b87815286602082015260018060a01b038616604082015260e060608201526000611d7160e0830187611d18565b60808301959095525091151560a083015260c090910152949350505050565b8981526001600160a01b038916602082015261012060408201819052600090611dbb8382018b611d18565b90508281036060840152611dcf818a611d18565b6080840198909852505093151560a085015291151560c084015260e083015261010090910152949350505050565b600060208284031215611e0f57600080fd5b611e1882611c9a565b9392505050565b60008060408385031215611e3257600080fd5b823567ffffffffffffffff80821115611e4a57600080fd5b611e5686838701611bc6565b93506020850135915080821115611e6c57600080fd5b50611c9085828601611bc6565b60208082526017908201527f5175657374696f6e20646f6573206e6f74206578697374000000000000000000604082015260600190565b634e487b7160e01b600052601160045260246000fd5b600060018201611ed857611ed8611eb0565b5060010190565b600181811c90821680611ef357607f821691505b602082108103610c2957634e487b7160e01b600052602260045260246000fd5b601f8211156116d757600081815260208120601f850160051c81016020861015611f3a5750805b601f850160051c820191505b81811015611f5957828155600101611f46565b505050505050565b815167ffffffffffffffff811115611f7b57611f7b611bb0565b611f8f81611f898454611edf565b84611f13565b602080601f831160018114611fc45760008415611fac5750858301515b600019600386901b1c1916600185901b178555611f59565b600085815260208120601f198616915b82811015611ff357888601518255948401946001909101908401611fd4565b50858210156120115787850151600019600388901b60f8161c191681555b5050505050600190811b01905550565b602081526000611e186020830184611d18565b8082018082111561204757612047611eb0565b92915050565b60208082526021908201527f4f6e6c79206f776e65722063616e2063616c6c20746869732066756e6374696f6040820152603760f91b606082015260800190565b602080825260159082015274105b9cddd95c88191bd95cc81b9bdd08195e1a5cdd605a1b604082015260600190565b6040815260006120d06040830185611d18565b90508260208301529392505050565b6000602082840312156120f157600080fd5b5051919050565b7f7b2274797065223a2271615f706c6174666f726d222c22616374696f6e223a2281527f616e737765725f617070726f766564222c22616e737765726572223a2200000060208201526000835161215681603d850160208801611cf4565b6e1116113a34b6b2b9ba30b6b8111d1160891b603d91840191820152835161218581604c840160208801611cf4565b61227d60f01b604c9290910191820152604e01949350505050565b84815283602082015260018060a01b03831660408201526080606082015260006121cd6080830184611d18565b9695505050505050565b8281526040602082015260006121f06040830184611d18565b949350505050565b8181038181111561204757612047611eb0565b808202811582820484141761204757612047611eb0565b600181815b8085111561225d57816000190482111561224357612243611eb0565b8085161561225057918102915b93841c9390800290612227565b509250929050565b60008261227457506001612047565b8161228157506000612047565b816001811461229757600281146122a1576122bd565b6001915050612047565b60ff8411156122b2576122b2611eb0565b50506001821b612047565b5060208310610133831016604e8410600b84101617156122e0575081810a612047565b6122ea8383612222565b80600019048211156122fe576122fe611eb0565b029392505050565b6000611e188383612265565b634e487b7160e01b600052601260045260246000fd5b60008261233757612337612312565b500490565b600060ff83168061234f5761234f612312565b8060ff84160491505092915050565b60ff8181168382160290811690818114611a4257611a42611eb0565b60ff828116828216039081111561204757612047611eb0565b634e487b7160e01b600052603260045260246000fd5b60ff818116838216019081111561204757612047611eb056fea26469706673582212201e9fdbe8151a32bd8a9c9d373e6bdfb6a3972d0978e42ec44ae58c72cae77ad664736f6c63430008140033",
  "linkReferences": {},
  "deployedLinkReferences": {}
}