{
  "_format": "hh-sol-artifact-1",
  "contractName": "SimpleQA",
  "sourceName": "contracts/SimpleQA.sol",
  "abi": [
    {
      "inputs": [
        {
          "internalType": "address",
          "name": "_x2EarnRewardsPoolContract",
          "type": "address"
        },
        {
          "internalType": "bytes32",
          "name": "_appId",
          "type": "bytes32"
        }
      ],
      "stateMutability": "nonpayable",
      "type": "constructor"
    },
    {
      "anonymous": false,
      "inputs": [
        {
          "indexed": true,
          "internalType": "uint256",
          "name": "answerId",
          "type": "uint256"
        },
        {
          "indexed": true,
          "internalType": "uint256",
          "name": "questionId",
          "type": "uint256"
        },
        {
          "indexed": true,
          "internalType": "address",
          "name": "answerer",
          "type": "address"
        },
        {
          "indexed": false,
          "internalType": "uint256",
          "name": "rewardAmount",
          "type": "uint256"
        }
      ],
      "name": "AnswerApproved",
      "type": "event"
    },
    {
      "anonymous": false,
      "inputs": [
        {
          "indexed": true,
          "internalType": "uint256",
          "name": "answerId",
          "type": "uint256"
        },
        {
          "indexed": true,
          "internalType": "uint256",
          "name": "questionId",
          "type": "uint256"
        },
        {
          "indexed": true,
          "internalType": "address",
          "name": "answerer",
          "type": "address"
        },
        {
          "indexed": false,
          "internalType": "string",
          "name": "content",
          "type": "string"
        }
      ],
      "name": "AnswerSubmitted",
      "type": "event"
    },
    {
      "anonymous": false,
      "inputs": [
        {
          "indexed": true,
          "internalType": "uint256",
          "name": "answerId",
          "type": "uint256"
        },
        {
          "indexed": true,
          "internalType": "address",
          "name": "upvoter",
          "type": "address"
        },
        {
          "indexed": false,
          "internalType": "uint256",
          "name": "newUpvoteCount",
          "type": "uint256"
        }
      ],
      "name": "AnswerUpvoted",
      "type": "event"
    },
    {
      "anonymous": false,
      "inputs": [
        {
          "indexed": true,
          "internalType": "uint256",
          "name": "questionId",
          "type": "uint256"
        },
        {
          "indexed": true,
          "internalType": "address",
          "name": "asker",
          "type": "address"
        },
        {
          "indexed": false,
          "internalType": "string",
          "name": "title",
          "type": "string"
        },
        {
          "indexed": false,
          "internalType": "uint256",
          "name": "bounty",
          "type": "uint256"
        }
      ],
      "name": "QuestionAsked",
      "type": "event"
    },
    {
      "anonymous": false,
      "inputs": [
        {
          "indexed": true,
          "internalType": "uint256",
          "name": "questionId",
          "type": "uint256"
        },
        {
          "indexed": true,
          "internalType": "address",
          "name": "upvoter",
          "type": "address"
        },
        {
          "indexed": false,
          "internalType": "uint256",
          "name": "newUpvoteCount",
          "type": "uint256"
        }
      ],
      "name": "QuestionUpvoted",
      "type": "event"
    },
    {
      "anonymous": false,
      "inputs": [
        {
          "indexed": true,
          "internalType": "address",
          "name": "receiver",
          "type": "address"
        },
        {
          "indexed": false,
          "internalType": "uint256",
          "name": "amount",
          "type": "uint256"
        },
        {
          "indexed": false,
          "internalType": "string",
          "name": "proof",
          "type": "string"
        }
      ],
      "name": "RewardDistributed",
      "type": "event"
    },
    {
      "anonymous": false,
      "inputs": [
        {
          "indexed": true,
          "internalType": "address",
          "name": "user",
          "type": "address"
        }
      ],
      "name": "UserRegistered",
      "type": "event"
    },
    {
      "inputs": [],
      "name": "answerCounter",
      "outputs": [
        {
          "internalType": "uint256",
          "name": "",
          "type": "uint256"
        }
      ],
      "stateMutability": "view",
      "type": "function"
    },
    {
      "inputs": [
        {
          "internalType": "uint256",
          "name": "",
          "type": "uint256"
        }
      ],
      "name": "answers",
      "outputs": [
        {
          "internalType": "uint256",
          "name": "id",
          "type": "uint256"
        },
        {
          "internalType": "uint256",
          "name": "questionId",
          "type": "uint256"
        },
        {
          "internalType": "address",
          "name": "answerer",
          "type": "address"
        },
        {
          "internalType": "string",
          "name": "content",
          "type": "string"
        },
        {
          "internalType": "uint256",
          "name": "upvotes",
          "type": "uint256"
        },
        {
          "internalType": "bool",
          "name": "isApproved",
          "type": "bool"
        },
        {
          "internalType": "uint256",
          "name": "timestamp",
          "type": "uint256"
        }
      ],
      "stateMutability": "view",
      "type": "function"
    },
    {
      "inputs": [],
      "name": "appId",
      "outputs": [
        {
          "internalType": "bytes32",
          "name": "",
          "type": "bytes32"
        }
      ],
      "stateMutability": "view",
      "type": "function"
    },
    {
      "inputs": [
        {
          "internalType": "uint256",
          "name": "_answerId",
          "type": "uint256"
        },
        {
          "internalType": "address",
          "name": "_approver",
          "type": "address"
        }
      ],
      "name": "approveAnswer",
      "outputs": [],
      "stateMutability": "nonpayable",
      "type": "function"
    },
    {
      "inputs": [
        {
          "internalType": "string",
          "name": "_title",
          "type": "string"
        },
        {
          "internalType": "string",
          "name": "_description",
          "type": "string"
        },
        {
          "internalType": "address",
          "name": "_asker",
          "type": "address"
        },
        {
          "internalType": "string[]",
          "name": "_tags",
          "type": "string[]"
        }
      ],
      "name": "askQuestion",
      "outputs": [],
      "stateMutability": "payable",
      "type": "function"
    },
    {
      "inputs": [
        {
          "internalType": "uint256",
          "name": "_answerId",
          "type": "uint256"
        }
      ],
      "name": "getAnswer",
      "outputs": [
        {
          "internalType": "uint256",
          "name": "id",
          "type": "uint256"
        },
        {
          "internalType": "uint256",
          "name": "questionId",
          "type": "uint256"
        },
        {
          "internalType": "address",
          "name": "answerer",
          "type": "address"
        },
        {
          "internalType": "string",
          "name": "content",
          "type": "string"
        },
        {
          "internalType": "uint256",
          "name": "upvotes",
          "type": "uint256"
        },
        {
          "internalType": "bool",
          "name": "isApproved",
          "type": "bool"
        },
        {
          "internalType": "uint256",
          "name": "timestamp",
          "type": "uint256"
        }
      ],
      "stateMutability": "view",
      "type": "function"
    },
    {
      "inputs": [
        {
          "internalType": "uint256",
          "name": "_answerId",
          "type": "uint256"
        }
      ],
      "name": "getAnswerer",
      "outputs": [
        {
          "internalType": "address",
          "name": "answerer",
          "type": "address"
        }
      ],
      "stateMutability": "view",
      "type": "function"
    },
    {
      "inputs": [],
      "name": "getPlatformStats",
      "outputs": [
        {
          "internalType": "uint256",
          "name": "totalQuestions",
          "type": "uint256"
        },
        {
          "internalType": "uint256",
          "name": "totalAnswers",
          "type": "uint256"
        },
        {
          "internalType": "uint256",
          "name": "totalUsers",
          "type": "uint256"
        },
        {
          "internalType": "uint256",
          "name": "contractBalance",
          "type": "uint256"
        }
      ],
      "stateMutability": "view",
      "type": "function"
    },
    {
      "inputs": [
        {
          "internalType": "uint256",
          "name": "_questionId",
          "type": "uint256"
        }
      ],
      "name": "getQuestion",
      "outputs": [
        {
          "internalType": "uint256",
          "name": "id",
          "type": "uint256"
        },
        {
          "internalType": "address",
          "name": "asker",
          "type": "address"
        },
        {
          "internalType": "string",
          "name": "title",
          "type": "string"
        },
        {
          "internalType": "string",
          "name": "description",
          "type": "string"
        },
        {
          "internalType": "uint256",
          "name": "bounty",
          "type": "uint256"
        },
        {
          "internalType": "bool",
          "name": "hasApprovedAnswer",
          "type": "bool"
        },
        {
          "internalType": "uint256",
          "name": "approvedAnswerId",
          "type": "uint256"
        },
        {
          "internalType": "uint256",
          "name": "upvotes",
          "type": "uint256"
        },
        {
          "internalType": "string[]",
          "name": "tags",
          "type": "string[]"
        },
        {
          "internalType": "uint256",
          "name": "timestamp",
          "type": "uint256"
        }
      ],
      "stateMutability": "view",
      "type": "function"
    },
    {
      "inputs": [
        {
          "internalType": "uint256",
          "name": "_questionId",
          "type": "uint256"
        }
      ],
      "name": "getQuestionAsker",
      "outputs": [
        {
          "internalType": "address",
          "name": "asker",
          "type": "address"
        }
      ],
      "stateMutability": "view",
      "type": "function"
    },
    {
      "inputs": [
        {
          "internalType": "address",
          "name": "_user",
          "type": "address"
        }
      ],
      "name": "getUser",
      "outputs": [
        {
          "internalType": "address",
          "name": "wallet",
          "type": "address"
        },
        {
          "internalType": "uint256",
          "name": "reputation",
          "type": "uint256"
        },
        {
          "internalType": "uint256",
          "name": "questionsAsked",
          "type": "uint256"
        },
        {
          "internalType": "uint256",
          "name": "answersGiven",
          "type": "uint256"
        },
        {
          "internalType": "uint256",
          "name": "answersApproved",
          "type": "uint256"
        }
      ],
      "stateMutability": "view",
      "type": "function"
    },
    {
      "inputs": [
        {
          "internalType": "address",
          "name": "",
          "type": "address"
        },
        {
          "internalType": "uint256",
          "name": "",
          "type": "uint256"
        }
      ],
      "name": "hasUpvoted",
      "outputs": [
        {
          "internalType": "bool",
          "name": "",
          "type": "bool"
        }
      ],
      "stateMutability": "view",
      "type": "function"
    },
    {
      "inputs": [
        {
          "internalType": "address",
          "name": "",
          "type": "address"
        },
        {
          "internalType": "uint256",
          "name": "",
          "type": "uint256"
        }
      ],
      "name": "hasUpvotedQuestion",
      "outputs": [
        {
          "internalType": "bool",
          "name": "",
          "type": "bool"
        }
      ],
      "stateMutability": "view",
      "type": "function"
    },
    {
      "inputs": [],
      "name": "owner",
      "outputs": [
        {
          "internalType": "address",
          "name": "",
          "type": "address"
        }
      ],
      "stateMutability": "view",
      "type": "function"
    },
    {
      "inputs": [],
      "name": "questionCounter",
      "outputs": [
        {
          "internalType": "uint256",
          "name": "",
          "type": "uint256"
        }
      ],
      "stateMutability": "view",
      "type": "function"
    },
    {
      "inputs": [
        {
          "internalType": "uint256",
          "name": "",
          "type": "uint256"
        }
      ],
      "name": "questions",
      "outputs": [
        {
          "internalType": "uint256",
          "name": "id",
          "type": "uint256"
        },
        {
          "internalType": "address",
          "name": "asker",
          "type": "address"
        },
        {
          "internalType": "string",
          "name": "title",
          "type": "string"
        },
        {
          "internalType": "string",
          "name": "description",
          "type": "string"
        },
        {
          "internalType": "uint256",
          "name": "bounty",
          "type": "uint256"
        },
        {
          "internalType": "bool",
          "name": "hasApprovedAnswer",
          "type": "bool"
        },
        {
          "internalType": "uint256",
          "name": "approvedAnswerId",
          "type": "uint256"
        },
        {
          "internalType": "uint256",
          "name": "upvotes",
          "type": "uint256"
        },
        {
          "internalType": "uint256",
          "name": "timestamp",
          "type": "uint256"
        }
      ],
      "stateMutability": "view",
      "type": "function"
    },
    {
      "inputs": [],
      "name": "registerUser",
      "outputs": [],
      "stateMutability": "nonpayable",
      "type": "function"
    },
    {
      "inputs": [],
      "name": "rewardAmount",
      "outputs": [
        {
          "internalType": "uint256",
          "name": "",
          "type": "uint256"
        }
      ],
      "stateMutability": "view",
      "type": "function"
    },
    {
      "inputs": [
        {
          "internalType": "uint256",
          "name": "_amount",
          "type": "uint256"
        }
      ],
      "name": "setRewardAmount",
      "outputs": [],
      "stateMutability": "nonpayable",
      "type": "function"
    },
    {
      "inputs": [
        {
          "internalType": "uint256",
          "name": "_questionId",
          "type": "uint256"
        },
        {
          "internalType": "string",
          "name": "_content",
          "type": "string"
        },
        {
          "internalType": "address",
          "name": "_answerer",
          "type": "address"
        }
      ],
      "name": "submitAnswer",
      "outputs": [],
      "stateMutability": "nonpayable",
      "type": "function"
    },
    {
      "inputs": [
        {
          "internalType": "bytes32",
          "name": "_appId",
          "type": "bytes32"
        }
      ],
      "name": "updateAppId",
      "outputs": [],
      "stateMutability": "nonpayable",
      "type": "function"
    },
    {
      "inputs": [
        {
          "internalType": "uint256",
          "name": "_answerId",
          "type": "uint256"
        },
        {
          "internalType": "address",
          "name": "_voter",
          "type": "address"
        }
      ],
      "name": "upvoteAnswer",
      "outputs": [],
      "stateMutability": "nonpayable",
      "type": "function"
    },
    {
      "inputs": [
        {
          "internalType": "uint256",
          "name": "_questionId",
          "type": "uint256"
        },
        {
          "internalType": "address",
          "name": "_voter",
          "type": "address"
        }
      ],
      "name": "upvoteQuestion",
      "outputs": [],
      "stateMutability": "nonpayable",
      "type": "function"
    },
    {
      "inputs": [
        {
          "internalType": "address",
          "name": "",
          "type": "address"
        }
      ],
      "name": "users",
      "outputs": [
        {
          "internalType": "address",
          "name": "wallet",
          "type": "address"
        },
        {
          "internalType": "uint256",
          "name": "reputation",
          "type": "uint256"
        },
        {
          "internalType": "uint256",
          "name": "questionsAsked",
          "type": "uint256"
        },
        {
          "internalType": "uint256",
          "name": "answersGiven",
          "type": "uint256"
        },
        {
          "internalType": "uint256",
          "name": "answersApproved",
          "type": "uint256"
        }
      ],
      "stateMutability": "view",
      "type": "function"
    },
    {
      "inputs": [],
      "name": "withdrawBalance",
      "outputs": [],
      "stateMutability": "nonpayable",
      "type": "function"
    },
    {
      "inputs": [],
      "name": "x2EarnRewardsPoolContract",
      "outputs": [
        {
          "internalType": "contract IX2EarnRewardsPool",
          "name": "",
          "type": "address"
        }
      ],
      "stateMutability": "view",
      "type": "function"
    }
  ],
  "bytecode": "0x6080604052674563918244f400006003553480156200001d57600080fd5b506040516200313138038062003131833981016040819052620000409162000078565b60008054336001600160a01b031991821617909155600180549091166001600160a01b039390931692909217909155600255620000b4565b600080604083850312156200008c57600080fd5b82516001600160a01b0381168114620000a457600080fd5b6020939093015192949293505050565b61306d80620000c46000396000f3fe6080604052600436106101815760003560e01c806380afdea8116100d1578063b5ab58dc1161008a578063db88176f11610064578063db88176f14610552578063df1901b014610588578063f78145f3146105a8578063f7b2a7be146105c857600080fd5b8063b5ab58dc146104fc578063b7b064a81461051c578063cb9829e81461053257600080fd5b806380afdea81461041f5780638da5cb5b14610435578063998d933014610455578063a87430ba14610475578063a8a65a78146104c9578063a9a5a9ac146104e957600080fd5b80635898852c1161013e5780636a51df04116101185780636a51df041461031b5780636ed461b8146103565780636f77926b1461037657806373f80143146103ff57600080fd5b80635898852c146102aa5780635da2c0d0146102ce5780635fd8c7101461030657600080fd5b8063136d88831461018657806316bb5403146101c057806317599cc51461020b57806331b1b9781461023e578063458b8d00146102735780634d3820eb14610295575b600080fd5b34801561019257600080fd5b5061019b6105de565b6040805194855260208501939093529183015260608201526080015b60405180910390f35b3480156101cc57600080fd5b506101fb6101db366004612664565b600760209081526000928352604080842090915290825290205460ff1681565b60405190151581526020016101b7565b34801561021757600080fd5b5061022b61022636600461268e565b610609565b6040516101b797969594939291906126f7565b34801561024a57600080fd5b5061025e61025936600461268e565b6106de565b6040516101b799989796959493929190612743565b34801561027f57600080fd5b5061029361028e3660046127b0565b610844565b005b3480156102a157600080fd5b50610293610ad0565b3480156102b657600080fd5b506102c0600a5481565b6040519081526020016101b7565b3480156102da57600080fd5b506001546102ee906001600160a01b031681565b6040516001600160a01b0390911681526020016101b7565b34801561031257600080fd5b50610293610b86565b34801561032757600080fd5b506101fb610336366004612664565b600860209081526000928352604080842090915290825290205460ff1681565b34801561036257600080fd5b506102ee61037136600461268e565b610c90565b34801561038257600080fd5b506103cd6103913660046127dc565b6001600160a01b039081166000908152600660205260409020805460018201546002830154600384015460049094015492909416949093929190565b604080516001600160a01b0390961686526020860194909452928401919091526060830152608082015260a0016101b7565b34801561040b57600080fd5b506102ee61041a36600461268e565b610ce5565b34801561042b57600080fd5b506102c060025481565b34801561044157600080fd5b506000546102ee906001600160a01b031681565b34801561046157600080fd5b506102936104703660046127b0565b610d36565b34801561048157600080fd5b506103cd6104903660046127dc565b600660205260009081526040902080546001820154600283015460038401546004909401546001600160a01b0390931693919290919085565b3480156104d557600080fd5b506102936104e436600461268e565b61111c565b6102936104f73660046128b5565b61119b565b34801561050857600080fd5b5061022b61051736600461268e565b6115b0565b34801561052857600080fd5b506102c060095481565b34801561053e57600080fd5b5061029361054d3660046129ce565b6116dc565b34801561055e57600080fd5b5061057261056d36600461268e565b6119a7565b6040516101b79a99989796959493929190612a25565b34801561059457600080fd5b506102936105a33660046127b0565b611c5a565b3480156105b457600080fd5b506102936105c336600461268e565b611f47565b3480156105d457600080fd5b506102c060035481565b600080600080600954600a54600a546009546105fa9190612b04565b47935093509350935090919293565b6005602052600090815260409020805460018201546002830154600384018054939492936001600160a01b03909216929161064390612b1d565b80601f016020809104026020016040519081016040528092919081815260200182805461066f90612b1d565b80156106bc5780601f10610691576101008083540402835291602001916106bc565b820191906000526020600020905b81548152906001019060200180831161069f57829003601f168201915b50505050600483015460058401546006909401549293909260ff909116915087565b60046020526000908152604090208054600182015460028301805492936001600160a01b039092169261071090612b1d565b80601f016020809104026020016040519081016040528092919081815260200182805461073c90612b1d565b80156107895780601f1061075e57610100808354040283529160200191610789565b820191906000526020600020905b81548152906001019060200180831161076c57829003601f168201915b50505050509080600301805461079e90612b1d565b80601f01602080910402602001604051908101604052809291908181526020018280546107ca90612b1d565b80156108175780601f106107ec57610100808354040283529160200191610817565b820191906000526020600020905b8154815290600101906020018083116107fa57829003601f168201915b50505060048401546005850154600686015460078701546009909701549596929560ff9092169450925089565b8160008111801561085757506009548111155b61087c5760405162461bcd60e51b815260040161087390612b51565b60405180910390fd5b6001600160a01b0382166108d25760405162461bcd60e51b815260206004820152601c60248201527f566f74657220616464726573732063616e6e6f74206265207a65726f000000006044820152606401610873565b6001600160a01b038216600090815260086020908152604080832086845290915290205460ff16156109465760405162461bcd60e51b815260206004820152601d60248201527f416c7265616479207570766f7465642074686973207175657374696f6e0000006044820152606401610873565b600083815260046020526040812060070180549161096383612b88565b90915550506001600160a01b0380831660009081526008602090815260408083208784528252808320805460ff1916600190811790915560048352818420015484168352600690915290205416610a36576040805160a0810182526000858152600460208181528483206001908101546001600160a01b039081168087528387018681528789018781526060890188815260808a01898152938952600690965298909620965187546001600160a01b03191692169190911786559351908501559351600284015592516003830155519101555b60008381526004602090815260408083206001908101546001600160a01b03168452600690925282208101805491929091610a72908490612b04565b90915550506000838152600460209081526040918290206007015491519182526001600160a01b0384169185917fdc0d26686e856e21cb2004fa5c0d79c922a19e94c9eb4b2328ba007cae3e31aa91015b60405180910390a3505050565b336000908152600660205260409020546001600160a01b0316610b84576040805160a081018252338082526000602080840182815284860183815260608601848152608087018581528686526006909452878520965187546001600160a01b0319166001600160a01b03909116178755915160018701555160028601555160038501555160049093019290925591517f54db7a5cb4735e1aac1f53db512d3390390bb6637bd30ad4bf9fc98667d9b9b99190a25b565b6000546001600160a01b03163314610bb05760405162461bcd60e51b815260040161087390612ba1565b4780610bf75760405162461bcd60e51b81526020600482015260166024820152754e6f2062616c616e636520746f20776974686472617760501b6044820152606401610873565b600080546040516001600160a01b039091169083908381818185875af1925050503d8060008114610c44576040519150601f19603f3d011682016040523d82523d6000602084013e610c49565b606091505b5050905080610c8c5760405162461bcd60e51b815260206004820152600f60248201526e151c985b9cd9995c8819985a5b1959608a1b6044820152606401610873565b5050565b600081600081118015610ca55750600a548111155b610cc15760405162461bcd60e51b815260040161087390612be2565b6000838152600560205260409020600201546001600160a01b031691505b50919050565b600081600081118015610cfa57506009548111155b610d165760405162461bcd60e51b815260040161087390612b51565b50506000908152600460205260409020600101546001600160a01b031690565b81600081118015610d495750600a548111155b610d655760405162461bcd60e51b815260040161087390612be2565b6000838152600560205260409020600101546001600160a01b038316610dcd5760405162461bcd60e51b815260206004820152601f60248201527f417070726f76657220616464726573732063616e6e6f74206265207a65726f006044820152606401610873565b6000818152600460205260409020600101546001600160a01b03848116911614610e495760405162461bcd60e51b815260206004820152602760248201527f4f6e6c79207175657374696f6e2061736b65722063616e20617070726f766520604482015266616e737765727360c81b6064820152608401610873565b60008181526004602052604090206005015460ff1615610ebb5760405162461bcd60e51b815260206004820152602760248201527f5175657374696f6e20616c72656164792068617320616e20617070726f7665646044820152661030b739bbb2b960c91b6064820152608401610873565b60008481526005602081815260408084208084018054600160ff19918216811790925587875260048552838720958601805490911690911790556006938401899055600201546001600160a01b039081168552929091529091205416610fa4576040805160a0810182526000868152600560209081528382206002908101546001600160a01b039081168086528386018581528688018681526060880187815260808901888152938852600690965297909520955186546001600160a01b0319169216919091178555925160018501559351938301939093559151600382015590516004909101555b6000848152600560209081526040808320600201546001600160a01b0316835260069091528120600401805491610fda83612b88565b90915550506000848152600560209081526040808320600201546001600160a01b03168352600690915281206001018054600a929061101a908490612b04565b909155505060008181526004602081905260409091200154158015906110525750600081815260046020819052604090912001544710155b1561108c576000848152600560209081526040808320600201548484526004928390529220015461108c916001600160a01b031690611f76565b6000848152600560205260409020600201546110b0906001600160a01b03166120b4565b6000848152600560209081526040808320600201548484526004808452938290209093015490519081526001600160a01b0390921691839187917f8329ccacea800a071cce42a6f9e4d8aea8cf3cb161d3b13b70ee1aa788c0a35f91015b60405180910390a450505050565b6000546001600160a01b031633146111465760405162461bcd60e51b815260040161087390612ba1565b600081116111965760405162461bcd60e51b815260206004820152601d60248201527f416d6f756e74206d7573742062652067726561746572207468616e20300000006044820152606401610873565b600355565b60008451116111e45760405162461bcd60e51b81526020600482015260156024820152745469746c652063616e6e6f7420626520656d70747960581b6044820152606401610873565b60008351116112355760405162461bcd60e51b815260206004820152601b60248201527f4465736372697074696f6e2063616e6e6f7420626520656d70747900000000006044820152606401610873565b6001600160a01b03821661128b5760405162461bcd60e51b815260206004820152601c60248201527f41736b657220616464726573732063616e6e6f74206265207a65726f000000006044820152606401610873565b6005815111156112d65760405162461bcd60e51b815260206004820152601660248201527513585e1a5b5d5b480d481d1859dcc8185b1b1bddd95960521b6044820152606401610873565b60005b81518110156113545760008282815181106112f6576112f6612c11565b602002602001015151116113425760405162461bcd60e51b81526020600482015260136024820152725461672063616e6e6f7420626520656d70747960681b6044820152606401610873565b8061134c81612b88565b9150506112d9565b506001600160a01b0382811660009081526006602052604090205416611412576040805160a0810182526001600160a01b038481168083526000602080850182815285870183815260608701848152608088018581528686526006909452888520975188546001600160a01b031916971696909617875590516001870155516002860155925160038501559151600490930192909255915190917f54db7a5cb4735e1aac1f53db512d3390390bb6637bd30ad4bf9fc98667d9b9b991a25b6009805490600061142283612b88565b909155505060408051610140810182526009548082526001600160a01b0385811660208085019182528486018a8152606086018a9052346080870152600060a0870181905260c0870181905260e087018190526101008701899052426101208801529485526004909152949092208351815591516001830180546001600160a01b03191691909216179055915190919060028201906114c19082612c75565b50606082015160038201906114d69082612c75565b506080820151600482015560a082015160058201805460ff191691151591909117905560c0820151600682015560e082015160078201556101008201518051611529916008840191602090910190612588565b5061012091909101516009909101556001600160a01b038216600090815260066020526040812060020180549161155f83612b88565b9190505550336001600160a01b03166009547fd9b9e1b916e7a6ed83ba10035a29fbe9306132df4c0b225c9223727dabf5acfa86346040516115a2929190612d35565b60405180910390a350505050565b600080600060606000806000876000811180156115cf5750600a548111155b6115eb5760405162461bcd60e51b815260040161087390612be2565b600089815260056020819052604090912080546001820154600283015460048401549484015460068501546003860180549697959694956001600160a01b039094169490939260ff169190849061164190612b1d565b80601f016020809104026020016040519081016040528092919081815260200182805461166d90612b1d565b80156116ba5780601f1061168f576101008083540402835291602001916116ba565b820191906000526020600020905b81548152906001019060200180831161169d57829003601f168201915b5050505050935098509850985098509850985098505050919395979092949650565b826000811180156116ef57506009548111155b61170b5760405162461bcd60e51b815260040161087390612b51565b600083511161175c5760405162461bcd60e51b815260206004820152601e60248201527f416e7377657220636f6e74656e742063616e6e6f7420626520656d70747900006044820152606401610873565b6001600160a01b0382166117b25760405162461bcd60e51b815260206004820152601f60248201527f416e73776572657220616464726573732063616e6e6f74206265207a65726f006044820152606401610873565b6001600160a01b038281166000908152600660205260409020541661186f576040805160a0810182526001600160a01b038481168083526000602080850182815285870183815260608701848152608088018581528686526006909452888520975188546001600160a01b031916971696909617875590516001870155516002860155925160038501559151600490930192909255915190917f54db7a5cb4735e1aac1f53db512d3390390bb6637bd30ad4bf9fc98667d9b9b991a25b600a805490600061187f83612b88565b90915550506040805160e081018252600a5480825260208083018881526001600160a01b03878116858701908152606086018a815260006080880181905260a088018190524260c0890152958652600590945295909320845181559051600182015593516002850180546001600160a01b031916919093161790915551909190600382019061190e9082612c75565b506080820151600482015560a082015160058201805460ff191691151591909117905560c0909101516006918201556001600160a01b03831660009081526020919091526040812060030180549161196583612b88565b9190505550336001600160a01b031684600a547f1b72a809869907cac4c4e55b8bf6920ff492d2ff53307bb77ba492366b61387c8660405161110e9190612d57565b600080606080600080600080606060008a6000811180156119ca57506009548111155b6119e65760405162461bcd60e51b815260040161087390612b51565b6000600460008e8152602001908152602001600020905080600001548160010160009054906101000a90046001600160a01b0316826002018360030184600401548560050160009054906101000a900460ff1686600601548760070154886008018960090154878054611a5890612b1d565b80601f0160208091040260200160405190810160405280929190818152602001828054611a8490612b1d565b8015611ad15780601f10611aa657610100808354040283529160200191611ad1565b820191906000526020600020905b815481529060010190602001808311611ab457829003601f168201915b50505050509750868054611ae490612b1d565b80601f0160208091040260200160405190810160405280929190818152602001828054611b1090612b1d565b8015611b5d5780601f10611b3257610100808354040283529160200191611b5d565b820191906000526020600020905b815481529060010190602001808311611b4057829003601f168201915b5050505050965081805480602002602001604051908101604052809291908181526020016000905b82821015611c31578382906000526020600020018054611ba490612b1d565b80601f0160208091040260200160405190810160405280929190818152602001828054611bd090612b1d565b8015611c1d5780601f10611bf257610100808354040283529160200191611c1d565b820191906000526020600020905b815481529060010190602001808311611c0057829003601f168201915b505050505081526020019060010190611b85565b5050505091509b509b509b509b509b509b509b509b509b509b5050509193959799509193959799565b81600081118015611c6d5750600a548111155b611c895760405162461bcd60e51b815260040161087390612be2565b6001600160a01b038216611cdf5760405162461bcd60e51b815260206004820152601c60248201527f566f74657220616464726573732063616e6e6f74206265207a65726f000000006044820152606401610873565b6001600160a01b038216600090815260076020908152604080832086845290915290205460ff1615611d535760405162461bcd60e51b815260206004820152601b60248201527f416c7265616479207570766f746564207468697320616e7377657200000000006044820152606401610873565b6000838152600560205260409020600201546001600160a01b03808416911603611dbf5760405162461bcd60e51b815260206004820152601d60248201527f43616e6e6f74207570766f746520796f7572206f776e20616e737765720000006044820152606401610873565b6000838152600560205260408120600401805491611ddc83612b88565b90915550506001600160a01b0380831660009081526007602090815260408083208784528252808320805460ff19166001179055600582528083206002015484168352600690915290205416611eb5576040805160a0810182526000858152600560209081528382206002908101546001600160a01b039081168086528386018581528688018681526060880187815260808901888152938852600690965297909520955186546001600160a01b0319169216919091178555925160018501559351938301939093559151600382015590516004909101555b6000838152600560209081526040808320600201546001600160a01b03168352600690915281206001908101805491929091611ef2908490612b04565b90915550506000838152600560209081526040918290206004015491519182526001600160a01b0384169185917f805896dd3b416f34de785a678446dc15a87bd020164463bcba743a24a075be2e9101610ac3565b6000546001600160a01b03163314611f715760405162461bcd60e51b815260040161087390612ba1565b600255565b60008111611fc65760405162461bcd60e51b815260206004820152601760248201527f4e6f20626f756e747920746f20646973747269627574650000000000000000006044820152606401610873565b804710156120165760405162461bcd60e51b815260206004820152601d60248201527f496e73756666696369656e7420636f6e74726163742062616c616e63650000006044820152606401610873565b6000826001600160a01b03168260405160006040518083038185875af1925050503d8060008114612063576040519150601f19603f3d011682016040523d82523d6000602084013e612068565b606091505b50509050806120af5760405162461bcd60e51b8152602060048201526013602482015272159155081d1c985b9cd9995c8819985a5b1959606a1b6044820152606401610873565b505050565b6000600354116121125760405162461bcd60e51b8152602060048201526024808201527f52657761726420616d6f756e74206d75737420626520677265617465722074686044820152630616e20360e41b6064820152608401610873565b600154600254604051633c9d10cd60e21b81526001600160a01b039092169163f2744334916121479160040190815260200190565b602060405180830381865afa158015612164573d6000803e3d6000fd5b505050506040513d601f19601f820116820180604052508101906121889190612d6a565b60035411156121f05760405162461bcd60e51b815260206004820152602e60248201527f496e73756666696369656e742066756e647320696e205665426574746572444160448201526d13c81c995dd85c991cc81c1bdbdb60921b6064820152608401610873565b60006121fb826122da565b61220442612421565b604051602001612215929190612d83565b60408051601f198184030181529082905260015460025460035463f7335f1160e01b85529294506001600160a01b039091169263f7335f119261225f929187908790600401612e2b565b600060405180830381600087803b15801561227957600080fd5b505af115801561228d573d6000803e3d6000fd5b50505050816001600160a01b03167f49649141d16971a88c3cfdd73fec34babb1cf163cf8b804c8f537a023c6ce506600354836040516122ce929190612e62565b60405180910390a25050565b60408051602880825260608281019093526000919060208201818036833701905050905060005b601481101561241a576000612317826013612e83565b612322906008612e96565b61232d906002612f91565b612340906001600160a01b038716612fb3565b60f81b9050600060108260f81c6123579190612fc7565b60f81b905060008160f81c601061236e9190612fe9565b8360f81c61237c9190613005565b60f81b905061238a8261254d565b85612396866002612e96565b815181106123a6576123a6612c11565b60200101906001600160f81b031916908160001a9053506123c68161254d565b856123d2866002612e96565b6123dd906001612b04565b815181106123ed576123ed612c11565b60200101906001600160f81b031916908160001a905350505050808061241290612b88565b915050612301565b5092915050565b6060816000036124485750506040805180820190915260018152600360fc1b602082015290565b8160005b8115612472578061245c81612b88565b915061246b9050600a83612fb3565b915061244c565b60008167ffffffffffffffff81111561248d5761248d6127fe565b6040519080825280601f01601f1916602001820160405280156124b7576020820181803683370190505b509050815b8515612544576124cd600182612e83565b905060006124dc600a88612fb3565b6124e790600a612e96565b6124f19088612e83565b6124fc90603061301e565b905060008160f81b90508084848151811061251957612519612c11565b60200101906001600160f81b031916908160001a90535061253b600a89612fb3565b975050506124bc565b50949350505050565b6000600a60f883901c10156125745761256b60f883901c603061301e565b60f81b92915050565b61256b60f883901c605761301e565b919050565b8280548282559060005260206000209081019282156125ce579160200282015b828111156125ce57825182906125be9082612c75565b50916020019190600101906125a8565b506125da9291506125de565b5090565b808211156125da5760006125f282826125fb565b506001016125de565b50805461260790612b1d565b6000825580601f10612617575050565b601f0160209004906000526020600020908101906126359190612638565b50565b5b808211156125da5760008155600101612639565b80356001600160a01b038116811461258357600080fd5b6000806040838503121561267757600080fd5b6126808361264d565b946020939093013593505050565b6000602082840312156126a057600080fd5b5035919050565b60005b838110156126c25781810151838201526020016126aa565b50506000910152565b600081518084526126e38160208601602086016126a7565b601f01601f19169290920160200192915050565b87815286602082015260018060a01b038616604082015260e06060820152600061272460e08301876126cb565b60808301959095525091151560a083015260c090910152949350505050565b8981526001600160a01b03891660208201526101206040820181905260009061276e8382018b6126cb565b90508281036060840152612782818a6126cb565b6080840198909852505093151560a085015260c084019290925260e083015261010090910152949350505050565b600080604083850312156127c357600080fd5b823591506127d36020840161264d565b90509250929050565b6000602082840312156127ee57600080fd5b6127f78261264d565b9392505050565b634e487b7160e01b600052604160045260246000fd5b604051601f8201601f1916810167ffffffffffffffff8111828210171561283d5761283d6127fe565b604052919050565b600082601f83011261285657600080fd5b813567ffffffffffffffff811115612870576128706127fe565b612883601f8201601f1916602001612814565b81815284602083860101111561289857600080fd5b816020850160208301376000918101602001919091529392505050565b600080600080608085870312156128cb57600080fd5b843567ffffffffffffffff808211156128e357600080fd5b6128ef88838901612845565b955060209150818701358181111561290657600080fd5b61291289828a01612845565b9550506129216040880161264d565b935060608701358181111561293557600080fd5b8701601f8101891361294657600080fd5b803582811115612958576129586127fe565b8060051b612967858201612814565b918252828101850191858101908c84111561298157600080fd5b86850192505b838310156129bd5782358681111561299f5760008081fd5b6129ad8e8983890101612845565b8352509186019190860190612987565b999c989b5096995050505050505050565b6000806000606084860312156129e357600080fd5b83359250602084013567ffffffffffffffff811115612a0157600080fd5b612a0d86828701612845565b925050612a1c6040850161264d565b90509250925092565b60006101408c8352602060018060a01b038d1681850152816040850152612a4e8285018d6126cb565b91508382036060850152612a62828c6126cb565b915089608085015288151560a08501528760c08501528660e08501528382036101008501528186518084528284019150828160051b85010183890160005b83811015612ace57601f19878403018552612abc8383516126cb565b94860194925090850190600101612aa0565b50508095505050505050826101208301529b9a5050505050505050505050565b634e487b7160e01b600052601160045260246000fd5b80820180821115612b1757612b17612aee565b92915050565b600181811c90821680612b3157607f821691505b602082108103610cdf57634e487b7160e01b600052602260045260246000fd5b60208082526017908201527f5175657374696f6e20646f6573206e6f74206578697374000000000000000000604082015260600190565b600060018201612b9a57612b9a612aee565b5060010190565b60208082526021908201527f4f6e6c79206f776e65722063616e2063616c6c20746869732066756e6374696f6040820152603760f91b606082015260800190565b602080825260159082015274105b9cddd95c88191bd95cc81b9bdd08195e1a5cdd605a1b604082015260600190565b634e487b7160e01b600052603260045260246000fd5b601f8211156120af57600081815260208120601f850160051c81016020861015612c4e5750805b601f850160051c820191505b81811015612c6d57828155600101612c5a565b505050505050565b815167ffffffffffffffff811115612c8f57612c8f6127fe565b612ca381612c9d8454612b1d565b84612c27565b602080601f831160018114612cd85760008415612cc05750858301515b600019600386901b1c1916600185901b178555612c6d565b600085815260208120601f198616915b82811015612d0757888601518255948401946001909101908401612ce8565b5085821015612d255787850151600019600388901b60f8161c191681555b5050505050600190811b01905550565b604081526000612d4860408301856126cb565b90508260208301529392505050565b6020815260006127f760208301846126cb565b600060208284031215612d7c57600080fd5b5051919050565b7f7b2274797065223a2271615f706c6174666f726d222c22616374696f6e223a2281527f616e737765725f617070726f766564222c22616e737765726572223a22000000602082015260008351612de181603d8501602088016126a7565b6e1116113a34b6b2b9ba30b6b8111d1160891b603d918401918201528351612e1081604c8401602088016126a7565b61227d60f01b604c9290910191820152604e01949350505050565b84815283602082015260018060a01b0383166040820152608060608201526000612e5860808301846126cb565b9695505050505050565b828152604060208201526000612e7b60408301846126cb565b949350505050565b81810381811115612b1757612b17612aee565b8082028115828204841417612b1757612b17612aee565b600181815b80851115612ee8578160001904821115612ece57612ece612aee565b80851615612edb57918102915b93841c9390800290612eb2565b509250929050565b600082612eff57506001612b17565b81612f0c57506000612b17565b8160018114612f225760028114612f2c57612f48565b6001915050612b17565b60ff841115612f3d57612f3d612aee565b50506001821b612b17565b5060208310610133831016604e8410600b8410161715612f6b575081810a612b17565b612f758383612ead565b8060001904821115612f8957612f89612aee565b029392505050565b60006127f78383612ef0565b634e487b7160e01b600052601260045260246000fd5b600082612fc257612fc2612f9d565b500490565b600060ff831680612fda57612fda612f9d565b8060ff84160491505092915050565b60ff818116838216029081169081811461241a5761241a612aee565b60ff8281168282160390811115612b1757612b17612aee565b60ff8181168382160190811115612b1757612b17612aee56fea264697066735822122068d416c5fa787c4b01a0752393f297dce91cd81037af0775f09a61949520409064736f6c63430008140033",
  "linkReferences": {},
  "deployedLinkReferences": {}
}