{
  "_format": "hh-sol-artifact-1",
  "contractName": "SimpleQA",
  "sourceName": "contracts/SimpleQA.sol",
  "abi": [
    {
      "inputs": [
        {
          "internalType": "address",
          "name": "_x2EarnRewardsPoolContract",
          "type": "address"
        },
        {
          "internalType": "bytes32",
          "name": "_appId",
          "type": "bytes32"
        }
      ],
      "stateMutability": "nonpayable",
      "type": "constructor"
    },
    {
      "anonymous": false,
      "inputs": [
        {
          "indexed": true,
          "internalType": "uint256",
          "name": "answerId",
          "type": "uint256"
        },
        {
          "indexed": true,
          "internalType": "uint256",
          "name": "questionId",
          "type": "uint256"
        },
        {
          "indexed": true,
          "internalType": "address",
          "name": "answerer",
          "type": "address"
        },
        {
          "indexed": false,
          "internalType": "uint256",
          "name": "rewardAmount",
          "type": "uint256"
        }
      ],
      "name": "AnswerApproved",
      "type": "event"
    },
    {
      "anonymous": false,
      "inputs": [
        {
          "indexed": true,
          "internalType": "uint256",
          "name": "answerId",
          "type": "uint256"
        },
        {
          "indexed": true,
          "internalType": "uint256",
          "name": "questionId",
          "type": "uint256"
        },
        {
          "indexed": true,
          "internalType": "address",
          "name": "answerer",
          "type": "address"
        },
        {
          "indexed": false,
          "internalType": "string",
          "name": "content",
          "type": "string"
        }
      ],
      "name": "AnswerSubmitted",
      "type": "event"
    },
    {
      "anonymous": false,
      "inputs": [
        {
          "indexed": true,
          "internalType": "uint256",
          "name": "answerId",
          "type": "uint256"
        },
        {
          "indexed": true,
          "internalType": "address",
          "name": "upvoter",
          "type": "address"
        },
        {
          "indexed": false,
          "internalType": "uint256",
          "name": "newUpvoteCount",
          "type": "uint256"
        }
      ],
      "name": "AnswerUpvoted",
      "type": "event"
    },
    {
      "anonymous": false,
      "inputs": [
        {
          "indexed": true,
          "internalType": "uint256",
          "name": "questionId",
          "type": "uint256"
        },
        {
          "indexed": true,
          "internalType": "address",
          "name": "asker",
          "type": "address"
        },
        {
          "indexed": false,
          "internalType": "string",
          "name": "title",
          "type": "string"
        },
        {
          "indexed": false,
          "internalType": "uint256",
          "name": "bounty",
          "type": "uint256"
        }
      ],
      "name": "QuestionAsked",
      "type": "event"
    },
    {
      "anonymous": false,
      "inputs": [
        {
          "indexed": true,
          "internalType": "address",
          "name": "receiver",
          "type": "address"
        },
        {
          "indexed": false,
          "internalType": "uint256",
          "name": "amount",
          "type": "uint256"
        },
        {
          "indexed": false,
          "internalType": "string",
          "name": "proof",
          "type": "string"
        }
      ],
      "name": "RewardDistributed",
      "type": "event"
    },
    {
      "anonymous": false,
      "inputs": [
        {
          "indexed": true,
          "internalType": "address",
          "name": "user",
          "type": "address"
        }
      ],
      "name": "UserRegistered",
      "type": "event"
    },
    {
      "inputs": [],
      "name": "answerCounter",
      "outputs": [
        {
          "internalType": "uint256",
          "name": "",
          "type": "uint256"
        }
      ],
      "stateMutability": "view",
      "type": "function"
    },
    {
      "inputs": [
        {
          "internalType": "uint256",
          "name": "",
          "type": "uint256"
        }
      ],
      "name": "answers",
      "outputs": [
        {
          "internalType": "uint256",
          "name": "id",
          "type": "uint256"
        },
        {
          "internalType": "uint256",
          "name": "questionId",
          "type": "uint256"
        },
        {
          "internalType": "address",
          "name": "answerer",
          "type": "address"
        },
        {
          "internalType": "string",
          "name": "content",
          "type": "string"
        },
        {
          "internalType": "uint256",
          "name": "upvotes",
          "type": "uint256"
        },
        {
          "internalType": "bool",
          "name": "isApproved",
          "type": "bool"
        },
        {
          "internalType": "uint256",
          "name": "timestamp",
          "type": "uint256"
        }
      ],
      "stateMutability": "view",
      "type": "function"
    },
    {
      "inputs": [],
      "name": "appId",
      "outputs": [
        {
          "internalType": "bytes32",
          "name": "",
          "type": "bytes32"
        }
      ],
      "stateMutability": "view",
      "type": "function"
    },
    {
      "inputs": [
        {
          "internalType": "uint256",
          "name": "_answerId",
          "type": "uint256"
        }
      ],
      "name": "approveAnswer",
      "outputs": [],
      "stateMutability": "nonpayable",
      "type": "function"
    },
    {
      "inputs": [
        {
          "internalType": "string",
          "name": "_title",
          "type": "string"
        },
        {
          "internalType": "string",
          "name": "_description",
          "type": "string"
        }
      ],
      "name": "askQuestion",
      "outputs": [],
      "stateMutability": "payable",
      "type": "function"
    },
    {
      "inputs": [
        {
          "internalType": "uint256",
          "name": "_answerId",
          "type": "uint256"
        }
      ],
      "name": "getAnswer",
      "outputs": [
        {
          "internalType": "uint256",
          "name": "id",
          "type": "uint256"
        },
        {
          "internalType": "uint256",
          "name": "questionId",
          "type": "uint256"
        },
        {
          "internalType": "address",
          "name": "answerer",
          "type": "address"
        },
        {
          "internalType": "string",
          "name": "content",
          "type": "string"
        },
        {
          "internalType": "uint256",
          "name": "upvotes",
          "type": "uint256"
        },
        {
          "internalType": "bool",
          "name": "isApproved",
          "type": "bool"
        },
        {
          "internalType": "uint256",
          "name": "timestamp",
          "type": "uint256"
        }
      ],
      "stateMutability": "view",
      "type": "function"
    },
    {
      "inputs": [],
      "name": "getPlatformStats",
      "outputs": [
        {
          "internalType": "uint256",
          "name": "totalQuestions",
          "type": "uint256"
        },
        {
          "internalType": "uint256",
          "name": "totalAnswers",
          "type": "uint256"
        },
        {
          "internalType": "uint256",
          "name": "totalUsers",
          "type": "uint256"
        },
        {
          "internalType": "uint256",
          "name": "contractBalance",
          "type": "uint256"
        }
      ],
      "stateMutability": "view",
      "type": "function"
    },
    {
      "inputs": [
        {
          "internalType": "uint256",
          "name": "_questionId",
          "type": "uint256"
        }
      ],
      "name": "getQuestion",
      "outputs": [
        {
          "internalType": "uint256",
          "name": "id",
          "type": "uint256"
        },
        {
          "internalType": "address",
          "name": "asker",
          "type": "address"
        },
        {
          "internalType": "string",
          "name": "title",
          "type": "string"
        },
        {
          "internalType": "string",
          "name": "description",
          "type": "string"
        },
        {
          "internalType": "uint256",
          "name": "bounty",
          "type": "uint256"
        },
        {
          "internalType": "bool",
          "name": "isActive",
          "type": "bool"
        },
        {
          "internalType": "bool",
          "name": "hasApprovedAnswer",
          "type": "bool"
        },
        {
          "internalType": "uint256",
          "name": "approvedAnswerId",
          "type": "uint256"
        },
        {
          "internalType": "uint256",
          "name": "timestamp",
          "type": "uint256"
        }
      ],
      "stateMutability": "view",
      "type": "function"
    },
    {
      "inputs": [
        {
          "internalType": "address",
          "name": "_user",
          "type": "address"
        }
      ],
      "name": "getUser",
      "outputs": [
        {
          "internalType": "address",
          "name": "wallet",
          "type": "address"
        },
        {
          "internalType": "uint256",
          "name": "reputation",
          "type": "uint256"
        },
        {
          "internalType": "uint256",
          "name": "questionsAsked",
          "type": "uint256"
        },
        {
          "internalType": "uint256",
          "name": "answersGiven",
          "type": "uint256"
        },
        {
          "internalType": "uint256",
          "name": "answersApproved",
          "type": "uint256"
        }
      ],
      "stateMutability": "view",
      "type": "function"
    },
    {
      "inputs": [
        {
          "internalType": "address",
          "name": "",
          "type": "address"
        },
        {
          "internalType": "uint256",
          "name": "",
          "type": "uint256"
        }
      ],
      "name": "hasUpvoted",
      "outputs": [
        {
          "internalType": "bool",
          "name": "",
          "type": "bool"
        }
      ],
      "stateMutability": "view",
      "type": "function"
    },
    {
      "inputs": [],
      "name": "owner",
      "outputs": [
        {
          "internalType": "address",
          "name": "",
          "type": "address"
        }
      ],
      "stateMutability": "view",
      "type": "function"
    },
    {
      "inputs": [],
      "name": "questionCounter",
      "outputs": [
        {
          "internalType": "uint256",
          "name": "",
          "type": "uint256"
        }
      ],
      "stateMutability": "view",
      "type": "function"
    },
    {
      "inputs": [
        {
          "internalType": "uint256",
          "name": "",
          "type": "uint256"
        }
      ],
      "name": "questions",
      "outputs": [
        {
          "internalType": "uint256",
          "name": "id",
          "type": "uint256"
        },
        {
          "internalType": "address",
          "name": "asker",
          "type": "address"
        },
        {
          "internalType": "string",
          "name": "title",
          "type": "string"
        },
        {
          "internalType": "string",
          "name": "description",
          "type": "string"
        },
        {
          "internalType": "uint256",
          "name": "bounty",
          "type": "uint256"
        },
        {
          "internalType": "bool",
          "name": "isActive",
          "type": "bool"
        },
        {
          "internalType": "bool",
          "name": "hasApprovedAnswer",
          "type": "bool"
        },
        {
          "internalType": "uint256",
          "name": "approvedAnswerId",
          "type": "uint256"
        },
        {
          "internalType": "uint256",
          "name": "timestamp",
          "type": "uint256"
        }
      ],
      "stateMutability": "view",
      "type": "function"
    },
    {
      "inputs": [],
      "name": "registerUser",
      "outputs": [],
      "stateMutability": "nonpayable",
      "type": "function"
    },
    {
      "inputs": [],
      "name": "rewardAmount",
      "outputs": [
        {
          "internalType": "uint256",
          "name": "",
          "type": "uint256"
        }
      ],
      "stateMutability": "view",
      "type": "function"
    },
    {
      "inputs": [
        {
          "internalType": "uint256",
          "name": "_amount",
          "type": "uint256"
        }
      ],
      "name": "setRewardAmount",
      "outputs": [],
      "stateMutability": "nonpayable",
      "type": "function"
    },
    {
      "inputs": [
        {
          "internalType": "uint256",
          "name": "_questionId",
          "type": "uint256"
        },
        {
          "internalType": "string",
          "name": "_content",
          "type": "string"
        }
      ],
      "name": "submitAnswer",
      "outputs": [],
      "stateMutability": "nonpayable",
      "type": "function"
    },
    {
      "inputs": [
        {
          "internalType": "bytes32",
          "name": "_appId",
          "type": "bytes32"
        }
      ],
      "name": "updateAppId",
      "outputs": [],
      "stateMutability": "nonpayable",
      "type": "function"
    },
    {
      "inputs": [
        {
          "internalType": "uint256",
          "name": "_answerId",
          "type": "uint256"
        }
      ],
      "name": "upvoteAnswer",
      "outputs": [],
      "stateMutability": "nonpayable",
      "type": "function"
    },
    {
      "inputs": [
        {
          "internalType": "address",
          "name": "",
          "type": "address"
        }
      ],
      "name": "users",
      "outputs": [
        {
          "internalType": "address",
          "name": "wallet",
          "type": "address"
        },
        {
          "internalType": "uint256",
          "name": "reputation",
          "type": "uint256"
        },
        {
          "internalType": "uint256",
          "name": "questionsAsked",
          "type": "uint256"
        },
        {
          "internalType": "uint256",
          "name": "answersGiven",
          "type": "uint256"
        },
        {
          "internalType": "uint256",
          "name": "answersApproved",
          "type": "uint256"
        }
      ],
      "stateMutability": "view",
      "type": "function"
    },
    {
      "inputs": [],
      "name": "withdrawBalance",
      "outputs": [],
      "stateMutability": "nonpayable",
      "type": "function"
    },
    {
      "inputs": [],
      "name": "x2EarnRewardsPoolContract",
      "outputs": [
        {
          "internalType": "contract IX2EarnRewardsPool",
          "name": "",
          "type": "address"
        }
      ],
      "stateMutability": "view",
      "type": "function"
    }
  ],
  "bytecode": "0x6080604052674563918244f400006003553480156200001d57600080fd5b50604051620026cf380380620026cf833981016040819052620000409162000078565b60008054336001600160a01b031991821617909155600180549091166001600160a01b039390931692909217909155600255620000b4565b600080604083850312156200008c57600080fd5b82516001600160a01b0381168114620000a457600080fd5b6020939093015192949293505050565b61260b80620000c46000396000f3fe6080604052600436106101355760003560e01c80637df88f24116100ab578063b5ab58dc1161006f578063b5ab58dc14610435578063b7b064a814610455578063cf9512fc1461046b578063db88176f1461048b578063f78145f3146104ab578063f7b2a7be146104cb57600080fd5b80637df88f241461036b57806380afdea81461038b5780638da5cb5b146103a1578063a87430ba146103c1578063a8a65a781461041557600080fd5b80634d3820eb116100fd5780634d3820eb146102495780635898852c1461025e5780635da2c0d0146102825780635fd8c710146102ba5780636f77926b146102cf578063705b88451461035857600080fd5b806301fa3bec1461013a578063136d88831461015c57806316bb54031461019657806317599cc5146101e157806331b1b97814610214575b600080fd5b34801561014657600080fd5b5061015a610155366004611e97565b6104e1565b005b34801561016857600080fd5b50610171610845565b6040805194855260208501939093529183015260608201526080015b60405180910390f35b3480156101a257600080fd5b506101d16101b1366004611ef5565b600760209081526000928352604080842090915290825290205460ff1681565b604051901515815260200161018d565b3480156101ed57600080fd5b506102016101fc366004611f1f565b610870565b60405161018d9796959493929190611f88565b34801561022057600080fd5b5061023461022f366004611f1f565b610945565b60405161018d99989796959493929190611fd4565b34801561025557600080fd5b5061015a610aaf565b34801561026a57600080fd5b5061027460095481565b60405190815260200161018d565b34801561028e57600080fd5b506001546102a2906001600160a01b031681565b6040516001600160a01b03909116815260200161018d565b3480156102c657600080fd5b5061015a610b65565b3480156102db57600080fd5b506103266102ea366004612041565b6001600160a01b039081166000908152600660205260409020805460018201546002830154600384015460049094015492909416949093929190565b604080516001600160a01b0390961686526020860194909452928401919091526060830152608082015260a00161018d565b61015a610366366004612063565b610c6f565b34801561037757600080fd5b5061015a610386366004611f1f565b610f39565b34801561039757600080fd5b5061027460025481565b3480156103ad57600080fd5b506000546102a2906001600160a01b031681565b3480156103cd57600080fd5b506103266103dc366004612041565b600660205260009081526040902080546001820154600283015460038401546004909401546001600160a01b0390931693919290919085565b34801561042157600080fd5b5061015a610430366004611f1f565b611104565b34801561044157600080fd5b50610201610450366004611f1f565b611183565b34801561046157600080fd5b5061027460085481565b34801561047757600080fd5b5061015a610486366004611f1f565b6112af565b34801561049757600080fd5b506102346104a6366004611f1f565b6115b9565b3480156104b757600080fd5b5061015a6104c6366004611f1f565b6117b3565b3480156104d757600080fd5b5061027460035481565b816000811180156104f457506008548111155b61053f5760405162461bcd60e51b8152602060048201526017602482015276145d595cdd1a5bdb88191bd95cc81b9bdd08195e1a5cdd604a1b60448201526064015b60405180910390fd5b60008251116105905760405162461bcd60e51b815260206004820152601e60248201527f416e7377657220636f6e74656e742063616e6e6f7420626520656d70747900006044820152606401610536565b60008381526004602052604090206005015460ff166105ea5760405162461bcd60e51b81526020600482015260166024820152755175657374696f6e206973206e6f742061637469766560501b6044820152606401610536565b600083815260046020526040902060010154336001600160a01b03909116036106555760405162461bcd60e51b815260206004820152601f60248201527f43616e6e6f7420616e7377657220796f7572206f776e207175657374696f6e006044820152606401610536565b336000908152600660205260409020546001600160a01b0316610709576040805160a081018252338082526000602080840182815284860183815260608601848152608087018581528686526006909452878520965187546001600160a01b0319166001600160a01b03909116178755915160018701555160028601555160038501555160049093019290925591517f54db7a5cb4735e1aac1f53db512d3390390bb6637bd30ad4bf9fc98667d9b9b99190a25b60098054906000610719836120d3565b90915550506040805160e0810182526009548082526020808301878152338486019081526060850188815260006080870181905260a087018190524260c0880152948552600590935294909220835181559151600183015592516002820180546001600160a01b0319166001600160a01b03909216919091179055915190919060038201906107a89082612174565b506080820151600482015560a082015160058201805460ff191691151591909117905560c090910151600691820155336000908152602091909152604081206003018054916107f6836120d3565b9190505550336001600160a01b0316836009547f1b72a809869907cac4c4e55b8bf6920ff492d2ff53307bb77ba492366b61387c856040516108389190612234565b60405180910390a4505050565b6000806000806008546009546009546008546108619190612247565b47935093509350935090919293565b6005602052600090815260409020805460018201546002830154600384018054939492936001600160a01b0390921692916108aa906120ec565b80601f01602080910402602001604051908101604052809291908181526020018280546108d6906120ec565b80156109235780601f106108f857610100808354040283529160200191610923565b820191906000526020600020905b81548152906001019060200180831161090657829003601f168201915b50505050600483015460058401546006909401549293909260ff909116915087565b60046020526000908152604090208054600182015460028301805492936001600160a01b0390921692610977906120ec565b80601f01602080910402602001604051908101604052809291908181526020018280546109a3906120ec565b80156109f05780601f106109c5576101008083540402835291602001916109f0565b820191906000526020600020905b8154815290600101906020018083116109d357829003601f168201915b505050505090806003018054610a05906120ec565b80601f0160208091040260200160405190810160405280929190818152602001828054610a31906120ec565b8015610a7e5780601f10610a5357610100808354040283529160200191610a7e565b820191906000526020600020905b815481529060010190602001808311610a6157829003601f168201915b5050506004840154600585015460068601546007909601549495919460ff8083169550610100909204909116925089565b336000908152600660205260409020546001600160a01b0316610b63576040805160a081018252338082526000602080840182815284860183815260608601848152608087018581528686526006909452878520965187546001600160a01b0319166001600160a01b03909116178755915160018701555160028601555160038501555160049093019290925591517f54db7a5cb4735e1aac1f53db512d3390390bb6637bd30ad4bf9fc98667d9b9b99190a25b565b6000546001600160a01b03163314610b8f5760405162461bcd60e51b815260040161053690612260565b4780610bd65760405162461bcd60e51b81526020600482015260166024820152754e6f2062616c616e636520746f20776974686472617760501b6044820152606401610536565b600080546040516001600160a01b039091169083908381818185875af1925050503d8060008114610c23576040519150601f19603f3d011682016040523d82523d6000602084013e610c28565b606091505b5050905080610c6b5760405162461bcd60e51b815260206004820152600f60248201526e151c985b9cd9995c8819985a5b1959608a1b6044820152606401610536565b5050565b6000825111610cb85760405162461bcd60e51b81526020600482015260156024820152745469746c652063616e6e6f7420626520656d70747960581b6044820152606401610536565b6000815111610d095760405162461bcd60e51b815260206004820152601b60248201527f4465736372697074696f6e2063616e6e6f7420626520656d70747900000000006044820152606401610536565b336000908152600660205260409020546001600160a01b0316610dbd576040805160a081018252338082526000602080840182815284860183815260608601848152608087018581528686526006909452878520965187546001600160a01b0319166001600160a01b03909116178755915160018701555160028601555160038501555160049093019290925591517f54db7a5cb4735e1aac1f53db512d3390390bb6637bd30ad4bf9fc98667d9b9b99190a25b60088054906000610dcd836120d3565b9091555050604080516101208101825260085480825233602080840191825283850187815260608501879052346080860152600160a08601819052600060c0870181905260e087018190524261010088015294855260049092529490922083518155905191810180546001600160a01b0319166001600160a01b039093169290921790915591519091906002820190610e669082612174565b5060608201516003820190610e7b9082612174565b506080820151600482015560a082015160058201805460c085015161ffff1990911692151561ff00191692909217610100921515830217905560e083015160068084019190915592015160079091015533600090815260209190915260408120600201805491610eea836120d3565b9190505550336001600160a01b03166008547fd9b9e1b916e7a6ed83ba10035a29fbe9306132df4c0b225c9223727dabf5acfa8434604051610f2d9291906122a1565b60405180910390a35050565b80600081118015610f4c57506009548111155b610f685760405162461bcd60e51b8152600401610536906122c3565b33600090815260076020908152604080832085845290915290205460ff1615610fd35760405162461bcd60e51b815260206004820152601b60248201527f416c7265616479207570766f746564207468697320616e7377657200000000006044820152606401610536565b600082815260056020526040902060020154336001600160a01b039091160361103e5760405162461bcd60e51b815260206004820152601d60248201527f43616e6e6f74207570766f746520796f7572206f776e20616e737765720000006044820152606401610536565b600082815260056020526040812060040180549161105b836120d3565b90915550503360009081526007602090815260408083208584528252808320805460ff1916600190811790915560058352818420600201546001600160a01b031684526006909252822081018054919290916110b8908490612247565b9091555050600082815260056020908152604091829020600401549151918252339184917f805896dd3b416f34de785a678446dc15a87bd020164463bcba743a24a075be2e9101610f2d565b6000546001600160a01b0316331461112e5760405162461bcd60e51b815260040161053690612260565b6000811161117e5760405162461bcd60e51b815260206004820152601d60248201527f416d6f756e74206d7573742062652067726561746572207468616e20300000006044820152606401610536565b600355565b600080600060606000806000876000811180156111a257506009548111155b6111be5760405162461bcd60e51b8152600401610536906122c3565b600089815260056020819052604090912080546001820154600283015460048401549484015460068501546003860180549697959694956001600160a01b039094169490939260ff1691908490611214906120ec565b80601f0160208091040260200160405190810160405280929190818152602001828054611240906120ec565b801561128d5780601f106112625761010080835404028352916020019161128d565b820191906000526020600020905b81548152906001019060200180831161127057829003601f168201915b5050505050935098509850985098509850985098505050919395979092949650565b806000811180156112c257506009548111155b6112de5760405162461bcd60e51b8152600401610536906122c3565b600082815260056020908152604080832060019081015480855260049093529220909101546001600160a01b0316331461136a5760405162461bcd60e51b815260206004820152602760248201527f4f6e6c79207175657374696f6e2061736b65722063616e20617070726f766520604482015266616e737765727360c81b6064820152608401610536565b600081815260046020526040902060050154610100900460ff16156113e15760405162461bcd60e51b815260206004820152602760248201527f5175657374696f6e20616c72656164792068617320616e20617070726f7665646044820152661030b739bbb2b960c91b6064820152608401610536565b60008181526004602052604090206005015460ff1661143b5760405162461bcd60e51b81526020600482015260166024820152755175657374696f6e206973206e6f742061637469766560501b6044820152606401610536565b6000838152600560208181526040808420808401805460ff191660011790558585526004808452828620948501805460069687018b905561ffff19166101001790556002909101546001600160a01b03168552929091528220018054916114a1836120d3565b90915550506000838152600560209081526040808320600201546001600160a01b03168352600690915281206001018054600a92906114e1908490612247565b909155505060008181526004602081905260409091200154156115335760008381526005602090815260408083206002015484845260049283905292200154611533916001600160a01b0316906117e2565b600083815260056020526040902060020154611557906001600160a01b0316611920565b6000838152600560209081526040808320600201548484526004808452938290209093015490519081526001600160a01b0390921691839186917f8329ccacea800a071cce42a6f9e4d8aea8cf3cb161d3b13b70ee1aa788c0a35f9101610838565b6000806060806000806000806000896000811180156115da57506008548111155b6116205760405162461bcd60e51b8152602060048201526017602482015276145d595cdd1a5bdb88191bd95cc81b9bdd08195e1a5cdd604a1b6044820152606401610536565b60008b81526004602081905260409091208054600182015492820154600583015460068401546007850154600286018054969795966001600160a01b039096169590946003890194909360ff8083169461010090930416929091908790611686906120ec565b80601f01602080910402602001604051908101604052809291908181526020018280546116b2906120ec565b80156116ff5780601f106116d4576101008083540402835291602001916116ff565b820191906000526020600020905b8154815290600101906020018083116116e257829003601f168201915b50505050509650858054611712906120ec565b80601f016020809104026020016040519081016040528092919081815260200182805461173e906120ec565b801561178b5780601f106117605761010080835404028352916020019161178b565b820191906000526020600020905b81548152906001019060200180831161176e57829003601f168201915b505050505095509a509a509a509a509a509a509a509a509a5050509193959799909294969850565b6000546001600160a01b031633146117dd5760405162461bcd60e51b815260040161053690612260565b600255565b600081116118325760405162461bcd60e51b815260206004820152601760248201527f4e6f20626f756e747920746f20646973747269627574650000000000000000006044820152606401610536565b804710156118825760405162461bcd60e51b815260206004820152601d60248201527f496e73756666696369656e7420636f6e74726163742062616c616e63650000006044820152606401610536565b6000826001600160a01b03168260405160006040518083038185875af1925050503d80600081146118cf576040519150601f19603f3d011682016040523d82523d6000602084013e6118d4565b606091505b505090508061191b5760405162461bcd60e51b8152602060048201526013602482015272159155081d1c985b9cd9995c8819985a5b1959606a1b6044820152606401610536565b505050565b60006003541161197e5760405162461bcd60e51b8152602060048201526024808201527f52657761726420616d6f756e74206d75737420626520677265617465722074686044820152630616e20360e41b6064820152608401610536565b600154600254604051633c9d10cd60e21b81526001600160a01b039092169163f2744334916119b39160040190815260200190565b602060405180830381865afa1580156119d0573d6000803e3d6000fd5b505050506040513d601f19601f820116820180604052508101906119f491906122f2565b6003541115611a5c5760405162461bcd60e51b815260206004820152602e60248201527f496e73756666696369656e742066756e647320696e205665426574746572444160448201526d13c81c995dd85c991cc81c1bdbdb60921b6064820152608401610536565b6000611a6782611b46565b611a7042611c8d565b604051602001611a8192919061230b565b60408051601f198184030181529082905260015460025460035463f7335f1160e01b85529294506001600160a01b039091169263f7335f1192611acb9291879087906004016123b3565b600060405180830381600087803b158015611ae557600080fd5b505af1158015611af9573d6000803e3d6000fd5b50505050816001600160a01b03167f49649141d16971a88c3cfdd73fec34babb1cf163cf8b804c8f537a023c6ce50660035483604051611b3a9291906123ea565b60405180910390a25050565b60408051602880825260608281019093526000919060208201818036833701905050905060005b6014811015611c86576000611b8382601361240b565b611b8e90600861241e565b611b99906002612519565b611bac906001600160a01b03871661253b565b60f81b9050600060108260f81c611bc3919061254f565b60f81b905060008160f81c6010611bda9190612571565b8360f81c611be8919061258d565b60f81b9050611bf682611db9565b85611c0286600261241e565b81518110611c1257611c126125a6565b60200101906001600160f81b031916908160001a905350611c3281611db9565b85611c3e86600261241e565b611c49906001612247565b81518110611c5957611c596125a6565b60200101906001600160f81b031916908160001a9053505050508080611c7e906120d3565b915050611b6d565b5092915050565b606081600003611cb45750506040805180820190915260018152600360fc1b602082015290565b8160005b8115611cde5780611cc8816120d3565b9150611cd79050600a8361253b565b9150611cb8565b60008167ffffffffffffffff811115611cf957611cf9611df4565b6040519080825280601f01601f191660200182016040528015611d23576020820181803683370190505b509050815b8515611db057611d3960018261240b565b90506000611d48600a8861253b565b611d5390600a61241e565b611d5d908861240b565b611d689060306125bc565b905060008160f81b905080848481518110611d8557611d856125a6565b60200101906001600160f81b031916908160001a905350611da7600a8961253b565b97505050611d28565b50949350505050565b6000600a60f883901c1015611de057611dd760f883901c60306125bc565b60f81b92915050565b611dd760f883901c60576125bc565b919050565b634e487b7160e01b600052604160045260246000fd5b600082601f830112611e1b57600080fd5b813567ffffffffffffffff80821115611e3657611e36611df4565b604051601f8301601f19908116603f01168101908282118183101715611e5e57611e5e611df4565b81604052838152866020858801011115611e7757600080fd5b836020870160208301376000602085830101528094505050505092915050565b60008060408385031215611eaa57600080fd5b82359150602083013567ffffffffffffffff811115611ec857600080fd5b611ed485828601611e0a565b9150509250929050565b80356001600160a01b0381168114611def57600080fd5b60008060408385031215611f0857600080fd5b611f1183611ede565b946020939093013593505050565b600060208284031215611f3157600080fd5b5035919050565b60005b83811015611f53578181015183820152602001611f3b565b50506000910152565b60008151808452611f74816020860160208601611f38565b601f01601f19169290920160200192915050565b87815286602082015260018060a01b038616604082015260e060608201526000611fb560e0830187611f5c565b60808301959095525091151560a083015260c090910152949350505050565b8981526001600160a01b038916602082015261012060408201819052600090611fff8382018b611f5c565b90508281036060840152612013818a611f5c565b6080840198909852505093151560a085015291151560c084015260e083015261010090910152949350505050565b60006020828403121561205357600080fd5b61205c82611ede565b9392505050565b6000806040838503121561207657600080fd5b823567ffffffffffffffff8082111561208e57600080fd5b61209a86838701611e0a565b935060208501359150808211156120b057600080fd5b50611ed485828601611e0a565b634e487b7160e01b600052601160045260246000fd5b6000600182016120e5576120e56120bd565b5060010190565b600181811c9082168061210057607f821691505b60208210810361212057634e487b7160e01b600052602260045260246000fd5b50919050565b601f82111561191b57600081815260208120601f850160051c8101602086101561214d5750805b601f850160051c820191505b8181101561216c57828155600101612159565b505050505050565b815167ffffffffffffffff81111561218e5761218e611df4565b6121a28161219c84546120ec565b84612126565b602080601f8311600181146121d757600084156121bf5750858301515b600019600386901b1c1916600185901b17855561216c565b600085815260208120601f198616915b82811015612206578886015182559484019460019091019084016121e7565b50858210156122245787850151600019600388901b60f8161c191681555b5050505050600190811b01905550565b60208152600061205c6020830184611f5c565b8082018082111561225a5761225a6120bd565b92915050565b60208082526021908201527f4f6e6c79206f776e65722063616e2063616c6c20746869732066756e6374696f6040820152603760f91b606082015260800190565b6040815260006122b46040830185611f5c565b90508260208301529392505050565b602080825260159082015274105b9cddd95c88191bd95cc81b9bdd08195e1a5cdd605a1b604082015260600190565b60006020828403121561230457600080fd5b5051919050565b7f7b2274797065223a2271615f706c6174666f726d222c22616374696f6e223a2281527f616e737765725f617070726f766564222c22616e737765726572223a2200000060208201526000835161236981603d850160208801611f38565b6e1116113a34b6b2b9ba30b6b8111d1160891b603d91840191820152835161239881604c840160208801611f38565b61227d60f01b604c9290910191820152604e01949350505050565b84815283602082015260018060a01b03831660408201526080606082015260006123e06080830184611f5c565b9695505050505050565b8281526040602082015260006124036040830184611f5c565b949350505050565b8181038181111561225a5761225a6120bd565b808202811582820484141761225a5761225a6120bd565b600181815b80851115612470578160001904821115612456576124566120bd565b8085161561246357918102915b93841c939080029061243a565b509250929050565b6000826124875750600161225a565b816124945750600061225a565b81600181146124aa57600281146124b4576124d0565b600191505061225a565b60ff8411156124c5576124c56120bd565b50506001821b61225a565b5060208310610133831016604e8410600b84101617156124f3575081810a61225a565b6124fd8383612435565b8060001904821115612511576125116120bd565b029392505050565b600061205c8383612478565b634e487b7160e01b600052601260045260246000fd5b60008261254a5761254a612525565b500490565b600060ff83168061256257612562612525565b8060ff84160491505092915050565b60ff8181168382160290811690818114611c8657611c866120bd565b60ff828116828216039081111561225a5761225a6120bd565b634e487b7160e01b600052603260045260246000fd5b60ff818116838216019081111561225a5761225a6120bd56fea26469706673582212203a6e214a295db99b38f8dc083f2efbc30ec3d18d66179360316ec90abb99e82264736f6c63430008140033",
  "linkReferences": {},
  "deployedLinkReferences": {}
}