{
  "_format": "hh-sol-artifact-1",
  "contractName": "SimpleQA",
  "sourceName": "contracts/SimpleQA.sol",
  "abi": [
    {
      "inputs": [
        {
          "internalType": "address",
          "name": "_x2EarnRewardsPoolContract",
          "type": "address"
        },
        {
          "internalType": "bytes32",
          "name": "_appId",
          "type": "bytes32"
        }
      ],
      "stateMutability": "nonpayable",
      "type": "constructor"
    },
    {
      "anonymous": false,
      "inputs": [
        {
          "indexed": true,
          "internalType": "uint256",
          "name": "answerId",
          "type": "uint256"
        },
        {
          "indexed": true,
          "internalType": "uint256",
          "name": "questionId",
          "type": "uint256"
        },
        {
          "indexed": true,
          "internalType": "address",
          "name": "answerer",
          "type": "address"
        },
        {
          "indexed": false,
          "internalType": "uint256",
          "name": "rewardAmount",
          "type": "uint256"
        }
      ],
      "name": "AnswerApproved",
      "type": "event"
    },
    {
      "anonymous": false,
      "inputs": [
        {
          "indexed": true,
          "internalType": "uint256",
          "name": "answerId",
          "type": "uint256"
        },
        {
          "indexed": true,
          "internalType": "uint256",
          "name": "questionId",
          "type": "uint256"
        },
        {
          "indexed": true,
          "internalType": "address",
          "name": "answerer",
          "type": "address"
        },
        {
          "indexed": false,
          "internalType": "string",
          "name": "content",
          "type": "string"
        }
      ],
      "name": "AnswerSubmitted",
      "type": "event"
    },
    {
      "anonymous": false,
      "inputs": [
        {
          "indexed": true,
          "internalType": "uint256",
          "name": "answerId",
          "type": "uint256"
        },
        {
          "indexed": true,
          "internalType": "address",
          "name": "upvoter",
          "type": "address"
        },
        {
          "indexed": false,
          "internalType": "uint256",
          "name": "newUpvoteCount",
          "type": "uint256"
        }
      ],
      "name": "AnswerUpvoted",
      "type": "event"
    },
    {
      "anonymous": false,
      "inputs": [
        {
          "indexed": true,
          "internalType": "uint256",
          "name": "questionId",
          "type": "uint256"
        },
        {
          "indexed": true,
          "internalType": "address",
          "name": "asker",
          "type": "address"
        },
        {
          "indexed": false,
          "internalType": "string",
          "name": "title",
          "type": "string"
        },
        {
          "indexed": false,
          "internalType": "uint256",
          "name": "bounty",
          "type": "uint256"
        }
      ],
      "name": "QuestionAsked",
      "type": "event"
    },
    {
      "anonymous": false,
      "inputs": [
        {
          "indexed": true,
          "internalType": "address",
          "name": "receiver",
          "type": "address"
        },
        {
          "indexed": false,
          "internalType": "uint256",
          "name": "amount",
          "type": "uint256"
        },
        {
          "indexed": false,
          "internalType": "string",
          "name": "proof",
          "type": "string"
        }
      ],
      "name": "RewardDistributed",
      "type": "event"
    },
    {
      "anonymous": false,
      "inputs": [
        {
          "indexed": true,
          "internalType": "address",
          "name": "user",
          "type": "address"
        }
      ],
      "name": "UserRegistered",
      "type": "event"
    },
    {
      "inputs": [],
      "name": "answerCounter",
      "outputs": [
        {
          "internalType": "uint256",
          "name": "",
          "type": "uint256"
        }
      ],
      "stateMutability": "view",
      "type": "function"
    },
    {
      "inputs": [
        {
          "internalType": "uint256",
          "name": "",
          "type": "uint256"
        }
      ],
      "name": "answers",
      "outputs": [
        {
          "internalType": "uint256",
          "name": "id",
          "type": "uint256"
        },
        {
          "internalType": "uint256",
          "name": "questionId",
          "type": "uint256"
        },
        {
          "internalType": "address",
          "name": "answerer",
          "type": "address"
        },
        {
          "internalType": "string",
          "name": "content",
          "type": "string"
        },
        {
          "internalType": "uint256",
          "name": "upvotes",
          "type": "uint256"
        },
        {
          "internalType": "bool",
          "name": "isApproved",
          "type": "bool"
        },
        {
          "internalType": "uint256",
          "name": "timestamp",
          "type": "uint256"
        }
      ],
      "stateMutability": "view",
      "type": "function"
    },
    {
      "inputs": [],
      "name": "appId",
      "outputs": [
        {
          "internalType": "bytes32",
          "name": "",
          "type": "bytes32"
        }
      ],
      "stateMutability": "view",
      "type": "function"
    },
    {
      "inputs": [
        {
          "internalType": "uint256",
          "name": "_answerId",
          "type": "uint256"
        },
        {
          "internalType": "address",
          "name": "_approver",
          "type": "address"
        }
      ],
      "name": "approveAnswer",
      "outputs": [],
      "stateMutability": "nonpayable",
      "type": "function"
    },
    {
      "inputs": [
        {
          "internalType": "string",
          "name": "_title",
          "type": "string"
        },
        {
          "internalType": "string",
          "name": "_description",
          "type": "string"
        },
        {
          "internalType": "address",
          "name": "_asker",
          "type": "address"
        }
      ],
      "name": "askQuestion",
      "outputs": [],
      "stateMutability": "payable",
      "type": "function"
    },
    {
      "inputs": [
        {
          "internalType": "uint256",
          "name": "_answerId",
          "type": "uint256"
        }
      ],
      "name": "getAnswer",
      "outputs": [
        {
          "internalType": "uint256",
          "name": "id",
          "type": "uint256"
        },
        {
          "internalType": "uint256",
          "name": "questionId",
          "type": "uint256"
        },
        {
          "internalType": "address",
          "name": "answerer",
          "type": "address"
        },
        {
          "internalType": "string",
          "name": "content",
          "type": "string"
        },
        {
          "internalType": "uint256",
          "name": "upvotes",
          "type": "uint256"
        },
        {
          "internalType": "bool",
          "name": "isApproved",
          "type": "bool"
        },
        {
          "internalType": "uint256",
          "name": "timestamp",
          "type": "uint256"
        }
      ],
      "stateMutability": "view",
      "type": "function"
    },
    {
      "inputs": [
        {
          "internalType": "uint256",
          "name": "_answerId",
          "type": "uint256"
        }
      ],
      "name": "getAnswerer",
      "outputs": [
        {
          "internalType": "address",
          "name": "answerer",
          "type": "address"
        }
      ],
      "stateMutability": "view",
      "type": "function"
    },
    {
      "inputs": [],
      "name": "getPlatformStats",
      "outputs": [
        {
          "internalType": "uint256",
          "name": "totalQuestions",
          "type": "uint256"
        },
        {
          "internalType": "uint256",
          "name": "totalAnswers",
          "type": "uint256"
        },
        {
          "internalType": "uint256",
          "name": "totalUsers",
          "type": "uint256"
        },
        {
          "internalType": "uint256",
          "name": "contractBalance",
          "type": "uint256"
        }
      ],
      "stateMutability": "view",
      "type": "function"
    },
    {
      "inputs": [
        {
          "internalType": "uint256",
          "name": "_questionId",
          "type": "uint256"
        }
      ],
      "name": "getQuestion",
      "outputs": [
        {
          "internalType": "uint256",
          "name": "id",
          "type": "uint256"
        },
        {
          "internalType": "address",
          "name": "asker",
          "type": "address"
        },
        {
          "internalType": "string",
          "name": "title",
          "type": "string"
        },
        {
          "internalType": "string",
          "name": "description",
          "type": "string"
        },
        {
          "internalType": "uint256",
          "name": "bounty",
          "type": "uint256"
        },
        {
          "internalType": "bool",
          "name": "hasApprovedAnswer",
          "type": "bool"
        },
        {
          "internalType": "uint256",
          "name": "approvedAnswerId",
          "type": "uint256"
        },
        {
          "internalType": "uint256",
          "name": "timestamp",
          "type": "uint256"
        }
      ],
      "stateMutability": "view",
      "type": "function"
    },
    {
      "inputs": [
        {
          "internalType": "uint256",
          "name": "_questionId",
          "type": "uint256"
        }
      ],
      "name": "getQuestionAsker",
      "outputs": [
        {
          "internalType": "address",
          "name": "asker",
          "type": "address"
        }
      ],
      "stateMutability": "view",
      "type": "function"
    },
    {
      "inputs": [
        {
          "internalType": "address",
          "name": "_user",
          "type": "address"
        }
      ],
      "name": "getUser",
      "outputs": [
        {
          "internalType": "address",
          "name": "wallet",
          "type": "address"
        },
        {
          "internalType": "uint256",
          "name": "reputation",
          "type": "uint256"
        },
        {
          "internalType": "uint256",
          "name": "questionsAsked",
          "type": "uint256"
        },
        {
          "internalType": "uint256",
          "name": "answersGiven",
          "type": "uint256"
        },
        {
          "internalType": "uint256",
          "name": "answersApproved",
          "type": "uint256"
        }
      ],
      "stateMutability": "view",
      "type": "function"
    },
    {
      "inputs": [
        {
          "internalType": "address",
          "name": "",
          "type": "address"
        },
        {
          "internalType": "uint256",
          "name": "",
          "type": "uint256"
        }
      ],
      "name": "hasUpvoted",
      "outputs": [
        {
          "internalType": "bool",
          "name": "",
          "type": "bool"
        }
      ],
      "stateMutability": "view",
      "type": "function"
    },
    {
      "inputs": [],
      "name": "owner",
      "outputs": [
        {
          "internalType": "address",
          "name": "",
          "type": "address"
        }
      ],
      "stateMutability": "view",
      "type": "function"
    },
    {
      "inputs": [],
      "name": "questionCounter",
      "outputs": [
        {
          "internalType": "uint256",
          "name": "",
          "type": "uint256"
        }
      ],
      "stateMutability": "view",
      "type": "function"
    },
    {
      "inputs": [
        {
          "internalType": "uint256",
          "name": "",
          "type": "uint256"
        }
      ],
      "name": "questions",
      "outputs": [
        {
          "internalType": "uint256",
          "name": "id",
          "type": "uint256"
        },
        {
          "internalType": "address",
          "name": "asker",
          "type": "address"
        },
        {
          "internalType": "string",
          "name": "title",
          "type": "string"
        },
        {
          "internalType": "string",
          "name": "description",
          "type": "string"
        },
        {
          "internalType": "uint256",
          "name": "bounty",
          "type": "uint256"
        },
        {
          "internalType": "bool",
          "name": "hasApprovedAnswer",
          "type": "bool"
        },
        {
          "internalType": "uint256",
          "name": "approvedAnswerId",
          "type": "uint256"
        },
        {
          "internalType": "uint256",
          "name": "timestamp",
          "type": "uint256"
        }
      ],
      "stateMutability": "view",
      "type": "function"
    },
    {
      "inputs": [],
      "name": "registerUser",
      "outputs": [],
      "stateMutability": "nonpayable",
      "type": "function"
    },
    {
      "inputs": [],
      "name": "rewardAmount",
      "outputs": [
        {
          "internalType": "uint256",
          "name": "",
          "type": "uint256"
        }
      ],
      "stateMutability": "view",
      "type": "function"
    },
    {
      "inputs": [
        {
          "internalType": "uint256",
          "name": "_amount",
          "type": "uint256"
        }
      ],
      "name": "setRewardAmount",
      "outputs": [],
      "stateMutability": "nonpayable",
      "type": "function"
    },
    {
      "inputs": [
        {
          "internalType": "uint256",
          "name": "_questionId",
          "type": "uint256"
        },
        {
          "internalType": "string",
          "name": "_content",
          "type": "string"
        },
        {
          "internalType": "address",
          "name": "_answerer",
          "type": "address"
        }
      ],
      "name": "submitAnswer",
      "outputs": [],
      "stateMutability": "nonpayable",
      "type": "function"
    },
    {
      "inputs": [
        {
          "internalType": "bytes32",
          "name": "_appId",
          "type": "bytes32"
        }
      ],
      "name": "updateAppId",
      "outputs": [],
      "stateMutability": "nonpayable",
      "type": "function"
    },
    {
      "inputs": [
        {
          "internalType": "uint256",
          "name": "_answerId",
          "type": "uint256"
        },
        {
          "internalType": "address",
          "name": "_voter",
          "type": "address"
        }
      ],
      "name": "upvoteAnswer",
      "outputs": [],
      "stateMutability": "nonpayable",
      "type": "function"
    },
    {
      "inputs": [
        {
          "internalType": "address",
          "name": "",
          "type": "address"
        }
      ],
      "name": "users",
      "outputs": [
        {
          "internalType": "address",
          "name": "wallet",
          "type": "address"
        },
        {
          "internalType": "uint256",
          "name": "reputation",
          "type": "uint256"
        },
        {
          "internalType": "uint256",
          "name": "questionsAsked",
          "type": "uint256"
        },
        {
          "internalType": "uint256",
          "name": "answersGiven",
          "type": "uint256"
        },
        {
          "internalType": "uint256",
          "name": "answersApproved",
          "type": "uint256"
        }
      ],
      "stateMutability": "view",
      "type": "function"
    },
    {
      "inputs": [],
      "name": "withdrawBalance",
      "outputs": [],
      "stateMutability": "nonpayable",
      "type": "function"
    },
    {
      "inputs": [],
      "name": "x2EarnRewardsPoolContract",
      "outputs": [
        {
          "internalType": "contract IX2EarnRewardsPool",
          "name": "",
          "type": "address"
        }
      ],
      "stateMutability": "view",
      "type": "function"
    }
  ],
  "bytecode": "0x6080604052674563918244f400006003553480156200001d57600080fd5b50604051620028ca380380620028ca833981016040819052620000409162000078565b60008054336001600160a01b031991821617909155600180549091166001600160a01b039390931692909217909155600255620000b4565b600080604083850312156200008c57600080fd5b82516001600160a01b0381168114620000a457600080fd5b6020939093015192949293505050565b61280680620000c46000396000f3fe60806040526004361061014b5760003560e01c80638da5cb5b116100b6578063b7b064a81161006f578063b7b064a81461048a578063cb9829e8146104a0578063db88176f146104c0578063df1901b0146104e0578063f78145f314610500578063f7b2a7be1461052057600080fd5b80638da5cb5b146103a3578063998d9330146103c3578063a4fddf36146103e3578063a87430ba146103f6578063a8a65a781461044a578063b5ab58dc1461046a57600080fd5b80635da2c0d0116101085780635da2c0d0146102775780635fd8c710146102af5780636ed461b8146102c45780636f77926b146102e457806373f801431461036d57806380afdea81461038d57600080fd5b8063136d88831461015057806316bb54031461018a57806317599cc5146101d557806331b1b978146102085780634d3820eb1461023c5780635898852c14610253575b600080fd5b34801561015c57600080fd5b50610165610536565b6040805194855260208501939093529183015260608201526080015b60405180910390f35b34801561019657600080fd5b506101c56101a5366004611f9d565b600760209081526000928352604080842090915290825290205460ff1681565b6040519015158152602001610181565b3480156101e157600080fd5b506101f56101f0366004611fc7565b610561565b6040516101819796959493929190612030565b34801561021457600080fd5b50610228610223366004611fc7565b610636565b60405161018198979695949392919061207c565b34801561024857600080fd5b50610251610796565b005b34801561025f57600080fd5b5061026960095481565b604051908152602001610181565b34801561028357600080fd5b50600154610297906001600160a01b031681565b6040516001600160a01b039091168152602001610181565b3480156102bb57600080fd5b5061025161084c565b3480156102d057600080fd5b506102976102df366004611fc7565b61095f565b3480156102f057600080fd5b5061033b6102ff3660046120e3565b6001600160a01b039081166000908152600660205260409020805460018201546002830154600384015460049094015492909416949093929190565b604080516001600160a01b0390961686526020860194909452928401919091526060830152608082015260a001610181565b34801561037957600080fd5b50610297610388366004611fc7565b6109b4565b34801561039957600080fd5b5061026960025481565b3480156103af57600080fd5b50600054610297906001600160a01b031681565b3480156103cf57600080fd5b506102516103de366004612105565b610a05565b6102516103f13660046121d4565b610deb565b34801561040257600080fd5b5061033b6104113660046120e3565b600660205260009081526040902080546001820154600283015460038401546004909401546001600160a01b0390931693919290919085565b34801561045657600080fd5b50610251610465366004611fc7565b611101565b34801561047657600080fd5b506101f5610485366004611fc7565b611180565b34801561049657600080fd5b5061026960085481565b3480156104ac57600080fd5b506102516104bb366004612248565b6112ac565b3480156104cc57600080fd5b506102286104db366004611fc7565b611577565b3480156104ec57600080fd5b506102516104fb366004612105565b611738565b34801561050c57600080fd5b5061025161051b366004611fc7565b611945565b34801561052c57600080fd5b5061026960035481565b600080600080600854600954600954600854610552919061229d565b47935093509350935090919293565b6005602052600090815260409020805460018201546002830154600384018054939492936001600160a01b03909216929161059b906122b6565b80601f01602080910402602001604051908101604052809291908181526020018280546105c7906122b6565b80156106145780601f106105e957610100808354040283529160200191610614565b820191906000526020600020905b8154815290600101906020018083116105f757829003601f168201915b50505050600483015460058401546006909401549293909260ff909116915087565b60046020526000908152604090208054600182015460028301805492936001600160a01b0390921692610668906122b6565b80601f0160208091040260200160405190810160405280929190818152602001828054610694906122b6565b80156106e15780601f106106b6576101008083540402835291602001916106e1565b820191906000526020600020905b8154815290600101906020018083116106c457829003601f168201915b5050505050908060030180546106f6906122b6565b80601f0160208091040260200160405190810160405280929190818152602001828054610722906122b6565b801561076f5780601f106107445761010080835404028352916020019161076f565b820191906000526020600020905b81548152906001019060200180831161075257829003601f168201915b505050506004830154600584015460068501546007909501549394919360ff909116925088565b336000908152600660205260409020546001600160a01b031661084a576040805160a081018252338082526000602080840182815284860183815260608601848152608087018581528686526006909452878520965187546001600160a01b0319166001600160a01b03909116178755915160018701555160028601555160038501555160049093019290925591517f54db7a5cb4735e1aac1f53db512d3390390bb6637bd30ad4bf9fc98667d9b9b99190a25b565b6000546001600160a01b0316331461087f5760405162461bcd60e51b8152600401610876906122ea565b60405180910390fd5b47806108c65760405162461bcd60e51b81526020600482015260166024820152754e6f2062616c616e636520746f20776974686472617760501b6044820152606401610876565b600080546040516001600160a01b039091169083908381818185875af1925050503d8060008114610913576040519150601f19603f3d011682016040523d82523d6000602084013e610918565b606091505b505090508061095b5760405162461bcd60e51b815260206004820152600f60248201526e151c985b9cd9995c8819985a5b1959608a1b6044820152606401610876565b5050565b60008160008111801561097457506009548111155b6109905760405162461bcd60e51b81526004016108769061232b565b6000838152600560205260409020600201546001600160a01b031691505b50919050565b6000816000811180156109c957506008548111155b6109e55760405162461bcd60e51b81526004016108769061235a565b50506000908152600460205260409020600101546001600160a01b031690565b81600081118015610a1857506009548111155b610a345760405162461bcd60e51b81526004016108769061232b565b6000838152600560205260409020600101546001600160a01b038316610a9c5760405162461bcd60e51b815260206004820152601f60248201527f417070726f76657220616464726573732063616e6e6f74206265207a65726f006044820152606401610876565b6000818152600460205260409020600101546001600160a01b03848116911614610b185760405162461bcd60e51b815260206004820152602760248201527f4f6e6c79207175657374696f6e2061736b65722063616e20617070726f766520604482015266616e737765727360c81b6064820152608401610876565b60008181526004602052604090206005015460ff1615610b8a5760405162461bcd60e51b815260206004820152602760248201527f5175657374696f6e20616c72656164792068617320616e20617070726f7665646044820152661030b739bbb2b960c91b6064820152608401610876565b60008481526005602081815260408084208084018054600160ff19918216811790925587875260048552838720958601805490911690911790556006938401899055600201546001600160a01b039081168552929091529091205416610c73576040805160a0810182526000868152600560209081528382206002908101546001600160a01b039081168086528386018581528688018681526060880187815260808901888152938852600690965297909520955186546001600160a01b0319169216919091178555925160018501559351938301939093559151600382015590516004909101555b6000848152600560209081526040808320600201546001600160a01b0316835260069091528120600401805491610ca983612391565b90915550506000848152600560209081526040808320600201546001600160a01b03168352600690915281206001018054600a9290610ce990849061229d565b90915550506000818152600460208190526040909120015415801590610d215750600081815260046020819052604090912001544710155b15610d5b5760008481526005602090815260408083206002015484845260049283905292200154610d5b916001600160a01b031690611974565b600084815260056020526040902060020154610d7f906001600160a01b0316611ab2565b6000848152600560209081526040808320600201548484526004808452938290209093015490519081526001600160a01b0390921691839187917f8329ccacea800a071cce42a6f9e4d8aea8cf3cb161d3b13b70ee1aa788c0a35f91015b60405180910390a450505050565b6000835111610e345760405162461bcd60e51b81526020600482015260156024820152745469746c652063616e6e6f7420626520656d70747960581b6044820152606401610876565b6000825111610e855760405162461bcd60e51b815260206004820152601b60248201527f4465736372697074696f6e2063616e6e6f7420626520656d70747900000000006044820152606401610876565b6001600160a01b038116610edb5760405162461bcd60e51b815260206004820152601c60248201527f41736b657220616464726573732063616e6e6f74206265207a65726f000000006044820152606401610876565b6001600160a01b0381811660009081526006602052604090205416610f98576040805160a0810182526001600160a01b038381168083526000602080850182815285870183815260608701848152608088018581528686526006909452888520975188546001600160a01b031916971696909617875590516001870155516002860155925160038501559151600490930192909255915190917f54db7a5cb4735e1aac1f53db512d3390390bb6637bd30ad4bf9fc98667d9b9b991a25b60088054906000610fa883612391565b909155505060408051610100810182526008548082526001600160a01b03848116602080850191825284860189815260608601899052346080870152600060a0870181905260c087018190524260e08801529485526004909152949092208351815591516001830180546001600160a01b031916919092161790559151909190600282019061103790826123f8565b506060820151600382019061104c90826123f8565b506080820151600482015560a082015160058201805460ff191691151591909117905560c082015160068083019190915560e0909201516007909101556001600160a01b0382166000908152602091909152604081206002018054916110b183612391565b9190505550336001600160a01b03166008547fd9b9e1b916e7a6ed83ba10035a29fbe9306132df4c0b225c9223727dabf5acfa85346040516110f49291906124b8565b60405180910390a3505050565b6000546001600160a01b0316331461112b5760405162461bcd60e51b8152600401610876906122ea565b6000811161117b5760405162461bcd60e51b815260206004820152601d60248201527f416d6f756e74206d7573742062652067726561746572207468616e20300000006044820152606401610876565b600355565b6000806000606060008060008760008111801561119f57506009548111155b6111bb5760405162461bcd60e51b81526004016108769061232b565b600089815260056020819052604090912080546001820154600283015460048401549484015460068501546003860180549697959694956001600160a01b039094169490939260ff1691908490611211906122b6565b80601f016020809104026020016040519081016040528092919081815260200182805461123d906122b6565b801561128a5780601f1061125f5761010080835404028352916020019161128a565b820191906000526020600020905b81548152906001019060200180831161126d57829003601f168201915b5050505050935098509850985098509850985098505050919395979092949650565b826000811180156112bf57506008548111155b6112db5760405162461bcd60e51b81526004016108769061235a565b600083511161132c5760405162461bcd60e51b815260206004820152601e60248201527f416e7377657220636f6e74656e742063616e6e6f7420626520656d70747900006044820152606401610876565b6001600160a01b0382166113825760405162461bcd60e51b815260206004820152601f60248201527f416e73776572657220616464726573732063616e6e6f74206265207a65726f006044820152606401610876565b6001600160a01b038281166000908152600660205260409020541661143f576040805160a0810182526001600160a01b038481168083526000602080850182815285870183815260608701848152608088018581528686526006909452888520975188546001600160a01b031916971696909617875590516001870155516002860155925160038501559151600490930192909255915190917f54db7a5cb4735e1aac1f53db512d3390390bb6637bd30ad4bf9fc98667d9b9b991a25b6009805490600061144f83612391565b90915550506040805160e08101825260095480825260208083018881526001600160a01b03878116858701908152606086018a815260006080880181905260a088018190524260c0890152958652600590945295909320845181559051600182015593516002850180546001600160a01b03191691909316179091555190919060038201906114de90826123f8565b506080820151600482015560a082015160058201805460ff191691151591909117905560c0909101516006918201556001600160a01b03831660009081526020919091526040812060030180549161153583612391565b9190505550336001600160a01b0316846009547f1b72a809869907cac4c4e55b8bf6920ff492d2ff53307bb77ba492366b61387c86604051610ddd91906124da565b6000806060806000806000808860008111801561159657506008548111155b6115b25760405162461bcd60e51b81526004016108769061235a565b60008a81526004602081905260409091208054600182015492820154600583015460068401546007850154600286018054969795966001600160a01b039096169590946003890194909360ff909116929091869061160f906122b6565b80601f016020809104026020016040519081016040528092919081815260200182805461163b906122b6565b80156116885780601f1061165d57610100808354040283529160200191611688565b820191906000526020600020905b81548152906001019060200180831161166b57829003601f168201915b5050505050955084805461169b906122b6565b80601f01602080910402602001604051908101604052809291908181526020018280546116c7906122b6565b80156117145780601f106116e957610100808354040283529160200191611714565b820191906000526020600020905b8154815290600101906020018083116116f757829003601f168201915b50505050509450995099509950995099509950995099505050919395975091939597565b8160008111801561174b57506009548111155b6117675760405162461bcd60e51b81526004016108769061232b565b6001600160a01b0382166117bd5760405162461bcd60e51b815260206004820152601c60248201527f566f74657220616464726573732063616e6e6f74206265207a65726f000000006044820152606401610876565b60008381526005602052604081206004018054916117da83612391565b90915550506001600160a01b0380831660009081526007602090815260408083208784528252808320805460ff191660011790556005825280832060020154841683526006909152902054166118b3576040805160a0810182526000858152600560209081528382206002908101546001600160a01b039081168086528386018581528688018681526060880187815260808901888152938852600690965297909520955186546001600160a01b0319169216919091178555925160018501559351938301939093559151600382015590516004909101555b6000838152600560209081526040808320600201546001600160a01b031683526006909152812060019081018054919290916118f090849061229d565b90915550506000838152600560209081526040918290206004015491519182526001600160a01b0384169185917f805896dd3b416f34de785a678446dc15a87bd020164463bcba743a24a075be2e91016110f4565b6000546001600160a01b0316331461196f5760405162461bcd60e51b8152600401610876906122ea565b600255565b600081116119c45760405162461bcd60e51b815260206004820152601760248201527f4e6f20626f756e747920746f20646973747269627574650000000000000000006044820152606401610876565b80471015611a145760405162461bcd60e51b815260206004820152601d60248201527f496e73756666696369656e7420636f6e74726163742062616c616e63650000006044820152606401610876565b6000826001600160a01b03168260405160006040518083038185875af1925050503d8060008114611a61576040519150601f19603f3d011682016040523d82523d6000602084013e611a66565b606091505b5050905080611aad5760405162461bcd60e51b8152602060048201526013602482015272159155081d1c985b9cd9995c8819985a5b1959606a1b6044820152606401610876565b505050565b600060035411611b105760405162461bcd60e51b8152602060048201526024808201527f52657761726420616d6f756e74206d75737420626520677265617465722074686044820152630616e20360e41b6064820152608401610876565b600154600254604051633c9d10cd60e21b81526001600160a01b039092169163f274433491611b459160040190815260200190565b602060405180830381865afa158015611b62573d6000803e3d6000fd5b505050506040513d601f19601f82011682018060405250810190611b8691906124ed565b6003541115611bee5760405162461bcd60e51b815260206004820152602e60248201527f496e73756666696369656e742066756e647320696e205665426574746572444160448201526d13c81c995dd85c991cc81c1bdbdb60921b6064820152608401610876565b6000611bf982611cd8565b611c0242611e1f565b604051602001611c13929190612506565b60408051601f198184030181529082905260015460025460035463f7335f1160e01b85529294506001600160a01b039091169263f7335f1192611c5d9291879087906004016125ae565b600060405180830381600087803b158015611c7757600080fd5b505af1158015611c8b573d6000803e3d6000fd5b50505050816001600160a01b03167f49649141d16971a88c3cfdd73fec34babb1cf163cf8b804c8f537a023c6ce50660035483604051611ccc9291906125e5565b60405180910390a25050565b60408051602880825260608281019093526000919060208201818036833701905050905060005b6014811015611e18576000611d15826013612606565b611d20906008612619565b611d2b906002612714565b611d3e906001600160a01b038716612736565b60f81b9050600060108260f81c611d55919061274a565b60f81b905060008160f81c6010611d6c919061276c565b8360f81c611d7a9190612788565b60f81b9050611d8882611f4b565b85611d94866002612619565b81518110611da457611da46127a1565b60200101906001600160f81b031916908160001a905350611dc481611f4b565b85611dd0866002612619565b611ddb90600161229d565b81518110611deb57611deb6127a1565b60200101906001600160f81b031916908160001a9053505050508080611e1090612391565b915050611cff565b5092915050565b606081600003611e465750506040805180820190915260018152600360fc1b602082015290565b8160005b8115611e705780611e5a81612391565b9150611e699050600a83612736565b9150611e4a565b60008167ffffffffffffffff811115611e8b57611e8b612131565b6040519080825280601f01601f191660200182016040528015611eb5576020820181803683370190505b509050815b8515611f4257611ecb600182612606565b90506000611eda600a88612736565b611ee590600a612619565b611eef9088612606565b611efa9060306127b7565b905060008160f81b905080848481518110611f1757611f176127a1565b60200101906001600160f81b031916908160001a905350611f39600a89612736565b97505050611eba565b50949350505050565b6000600a60f883901c1015611f7257611f6960f883901c60306127b7565b60f81b92915050565b611f6960f883901c60576127b7565b919050565b80356001600160a01b0381168114611f8157600080fd5b60008060408385031215611fb057600080fd5b611fb983611f86565b946020939093013593505050565b600060208284031215611fd957600080fd5b5035919050565b60005b83811015611ffb578181015183820152602001611fe3565b50506000910152565b6000815180845261201c816020860160208601611fe0565b601f01601f19169290920160200192915050565b87815286602082015260018060a01b038616604082015260e06060820152600061205d60e0830187612004565b60808301959095525091151560a083015260c090910152949350505050565b8881526001600160a01b0388166020820152610100604082018190526000906120a78382018a612004565b905082810360608401526120bb8189612004565b6080840197909752505092151560a084015260c083019190915260e090910152949350505050565b6000602082840312156120f557600080fd5b6120fe82611f86565b9392505050565b6000806040838503121561211857600080fd5b8235915061212860208401611f86565b90509250929050565b634e487b7160e01b600052604160045260246000fd5b600082601f83011261215857600080fd5b813567ffffffffffffffff8082111561217357612173612131565b604051601f8301601f19908116603f0116810190828211818310171561219b5761219b612131565b816040528381528660208588010111156121b457600080fd5b836020870160208301376000602085830101528094505050505092915050565b6000806000606084860312156121e957600080fd5b833567ffffffffffffffff8082111561220157600080fd5b61220d87838801612147565b9450602086013591508082111561222357600080fd5b5061223086828701612147565b92505061223f60408501611f86565b90509250925092565b60008060006060848603121561225d57600080fd5b83359250602084013567ffffffffffffffff81111561227b57600080fd5b61223086828701612147565b634e487b7160e01b600052601160045260246000fd5b808201808211156122b0576122b0612287565b92915050565b600181811c908216806122ca57607f821691505b6020821081036109ae57634e487b7160e01b600052602260045260246000fd5b60208082526021908201527f4f6e6c79206f776e65722063616e2063616c6c20746869732066756e6374696f6040820152603760f91b606082015260800190565b602080825260159082015274105b9cddd95c88191bd95cc81b9bdd08195e1a5cdd605a1b604082015260600190565b60208082526017908201527f5175657374696f6e20646f6573206e6f74206578697374000000000000000000604082015260600190565b6000600182016123a3576123a3612287565b5060010190565b601f821115611aad57600081815260208120601f850160051c810160208610156123d15750805b601f850160051c820191505b818110156123f0578281556001016123dd565b505050505050565b815167ffffffffffffffff81111561241257612412612131565b6124268161242084546122b6565b846123aa565b602080601f83116001811461245b57600084156124435750858301515b600019600386901b1c1916600185901b1785556123f0565b600085815260208120601f198616915b8281101561248a5788860151825594840194600190910190840161246b565b50858210156124a85787850151600019600388901b60f8161c191681555b5050505050600190811b01905550565b6040815260006124cb6040830185612004565b90508260208301529392505050565b6020815260006120fe6020830184612004565b6000602082840312156124ff57600080fd5b5051919050565b7f7b2274797065223a2271615f706c6174666f726d222c22616374696f6e223a2281527f616e737765725f617070726f766564222c22616e737765726572223a2200000060208201526000835161256481603d850160208801611fe0565b6e1116113a34b6b2b9ba30b6b8111d1160891b603d91840191820152835161259381604c840160208801611fe0565b61227d60f01b604c9290910191820152604e01949350505050565b84815283602082015260018060a01b03831660408201526080606082015260006125db6080830184612004565b9695505050505050565b8281526040602082015260006125fe6040830184612004565b949350505050565b818103818111156122b0576122b0612287565b80820281158282048414176122b0576122b0612287565b600181815b8085111561266b57816000190482111561265157612651612287565b8085161561265e57918102915b93841c9390800290612635565b509250929050565b600082612682575060016122b0565b8161268f575060006122b0565b81600181146126a557600281146126af576126cb565b60019150506122b0565b60ff8411156126c0576126c0612287565b50506001821b6122b0565b5060208310610133831016604e8410600b84101617156126ee575081810a6122b0565b6126f88383612630565b806000190482111561270c5761270c612287565b029392505050565b60006120fe8383612673565b634e487b7160e01b600052601260045260246000fd5b60008261274557612745612720565b500490565b600060ff83168061275d5761275d612720565b8060ff84160491505092915050565b60ff8181168382160290811690818114611e1857611e18612287565b60ff82811682821603908111156122b0576122b0612287565b634e487b7160e01b600052603260045260246000fd5b60ff81811683821601908111156122b0576122b061228756fea26469706673582212206e8028971c5f571b4e83312ca5c5b7a7b35797111e17f087521a9aa7106bba7d64736f6c63430008140033",
  "linkReferences": {},
  "deployedLinkReferences": {}
}