{
  "_format": "hh-sol-artifact-1",
  "contractName": "SimpleTest",
  "sourceName": "contracts/SimpleTest.sol",
  "abi": [
    {
      "inputs": [],
      "stateMutability": "nonpayable",
      "type": "constructor"
    },
    {
      "inputs": [],
      "name": "getMessage",
      "outputs": [
        {
          "internalType": "string",
          "name": "",
          "type": "string"
        }
      ],
      "stateMutability": "view",
      "type": "function"
    },
    {
      "inputs": [],
      "name": "message",
      "outputs": [
        {
          "internalType": "string",
          "name": "",
          "type": "string"
        }
      ],
      "stateMutability": "view",
      "type": "function"
    },
    {
      "inputs": [],
      "name": "owner",
      "outputs": [
        {
          "internalType": "address",
          "name": "",
          "type": "address"
        }
      ],
      "stateMutability": "view",
      "type": "function"
    },
    {
      "inputs": [
        {
          "internalType": "string",
          "name": "_message",
          "type": "string"
        }
      ],
      "name": "setMessage",
      "outputs": [],
      "stateMutability": "nonpayable",
      "type": "function"
    }
  ],
  "bytecode": "0x608060405234801561001057600080fd5b5060408051808201909152600e81526d48656c6c6f205665436861696e2160901b602082015260009061004390826100fa565b50600180546001600160a01b031916331790556101b9565b634e487b7160e01b600052604160045260246000fd5b600181811c9082168061008557607f821691505b6020821081036100a557634e487b7160e01b600052602260045260246000fd5b50919050565b601f8211156100f557600081815260208120601f850160051c810160208610156100d25750805b601f850160051c820191505b818110156100f1578281556001016100de565b5050505b505050565b81516001600160401b038111156101135761011361005b565b610127816101218454610071565b846100ab565b602080601f83116001811461015c57600084156101445750858301515b600019600386901b1c1916600185901b1785556100f1565b600085815260208120601f198616915b8281101561018b5788860151825594840194600190910190840161016c565b50858210156101a95787850151600019600388901b60f8161c191681555b5050505050600190811b01905550565b6104d5806101c86000396000f3fe608060405234801561001057600080fd5b506004361061004c5760003560e01c8063368b8772146100515780638da5cb5b14610066578063ce6d41de14610096578063e21f37ce146100ab575b600080fd5b61006461005f366004610257565b6100b3565b005b600154610079906001600160a01b031681565b6040516001600160a01b0390911681526020015b60405180910390f35b61009e610121565b60405161008d9190610308565b61009e6101b3565b6001546001600160a01b031633146101115760405162461bcd60e51b815260206004820152601a60248201527f4f6e6c79206f776e65722063616e20736574206d657373616765000000000000604482015260640160405180910390fd5b600061011d82826103df565b5050565b60606000805461013090610356565b80601f016020809104026020016040519081016040528092919081815260200182805461015c90610356565b80156101a95780601f1061017e576101008083540402835291602001916101a9565b820191906000526020600020905b81548152906001019060200180831161018c57829003601f168201915b5050505050905090565b600080546101c090610356565b80601f01602080910402602001604051908101604052809291908181526020018280546101ec90610356565b80156102395780601f1061020e57610100808354040283529160200191610239565b820191906000526020600020905b81548152906001019060200180831161021c57829003601f168201915b505050505081565b634e487b7160e01b600052604160045260246000fd5b60006020828403121561026957600080fd5b813567ffffffffffffffff8082111561028157600080fd5b818401915084601f83011261029557600080fd5b8135818111156102a7576102a7610241565b604051601f8201601f19908116603f011681019083821181831017156102cf576102cf610241565b816040528281528760208487010111156102e857600080fd5b826020860160208301376000928101602001929092525095945050505050565b600060208083528351808285015260005b8181101561033557858101830151858201604001528201610319565b506000604082860101526040601f19601f8301168501019250505092915050565b600181811c9082168061036a57607f821691505b60208210810361038a57634e487b7160e01b600052602260045260246000fd5b50919050565b601f8211156103da57600081815260208120601f850160051c810160208610156103b75750805b601f850160051c820191505b818110156103d6578281556001016103c3565b5050505b505050565b815167ffffffffffffffff8111156103f9576103f9610241565b61040d816104078454610356565b84610390565b602080601f831160018114610442576000841561042a5750858301515b600019600386901b1c1916600185901b1785556103d6565b600085815260208120601f198616915b8281101561047157888601518255948401946001909101908401610452565b508582101561048f5787850151600019600388901b60f8161c191681555b5050505050600190811b0190555056fea2646970667358221220c5b8c50ca48fbf4c4aeb5c0315c5c0f235d49798bbfb3a1f995fd6bd571dc36664736f6c63430008140033",
  "linkReferences": {},
  "deployedLinkReferences": {}
}