{
  "_format": "hh-sol-artifact-1",
  "contractName": "QuestionManager",
  "sourceName": "contracts/QuestionManager.sol",
  "abi": [
    {
      "inputs": [],
      "stateMutability": "nonpayable",
      "type": "constructor"
    },
    {
      "anonymous": false,
      "inputs": [
        {
          "indexed": true,
          "internalType": "uint256",
          "name": "questionId",
          "type": "uint256"
        },
        {
          "indexed": true,
          "internalType": "uint256",
          "name": "answerId",
          "type": "uint256"
        },
        {
          "indexed": true,
          "internalType": "address",
          "name": "asker",
          "type": "address"
        }
      ],
      "name": "AnswerApproved",
      "type": "event"
    },
    {
      "anonymous": false,
      "inputs": [
        {
          "indexed": true,
          "internalType": "uint256",
          "name": "answerId",
          "type": "uint256"
        },
        {
          "indexed": true,
          "internalType": "uint256",
          "name": "questionId",
          "type": "uint256"
        },
        {
          "indexed": true,
          "internalType": "address",
          "name": "author",
          "type": "address"
        },
        {
          "indexed": false,
          "internalType": "string",
          "name": "content",
          "type": "string"
        }
      ],
      "name": "AnswerPosted",
      "type": "event"
    },
    {
      "anonymous": false,
      "inputs": [
        {
          "indexed": true,
          "internalType": "uint256",
          "name": "answerId",
          "type": "uint256"
        },
        {
          "indexed": true,
          "internalType": "address",
          "name": "voter",
          "type": "address"
        },
        {
          "indexed": true,
          "internalType": "address",
          "name": "author",
          "type": "address"
        }
      ],
      "name": "AnswerUpvoted",
      "type": "event"
    },
    {
      "anonymous": false,
      "inputs": [
        {
          "indexed": true,
          "internalType": "address",
          "name": "previousOwner",
          "type": "address"
        },
        {
          "indexed": true,
          "internalType": "address",
          "name": "newOwner",
          "type": "address"
        }
      ],
      "name": "OwnershipTransferred",
      "type": "event"
    },
    {
      "anonymous": false,
      "inputs": [
        {
          "indexed": true,
          "internalType": "uint256",
          "name": "questionId",
          "type": "uint256"
        },
        {
          "indexed": true,
          "internalType": "address",
          "name": "asker",
          "type": "address"
        },
        {
          "indexed": false,
          "internalType": "string",
          "name": "title",
          "type": "string"
        },
        {
          "indexed": false,
          "internalType": "string[]",
          "name": "tags",
          "type": "string[]"
        },
        {
          "indexed": false,
          "internalType": "uint256",
          "name": "bounty",
          "type": "uint256"
        }
      ],
      "name": "QuestionAsked",
      "type": "event"
    },
    {
      "anonymous": false,
      "inputs": [
        {
          "indexed": true,
          "internalType": "address",
          "name": "user",
          "type": "address"
        },
        {
          "indexed": false,
          "internalType": "uint256",
          "name": "newReputation",
          "type": "uint256"
        },
        {
          "indexed": false,
          "internalType": "uint256",
          "name": "change",
          "type": "uint256"
        }
      ],
      "name": "ReputationUpdated",
      "type": "event"
    },
    {
      "inputs": [],
      "name": "MAX_DAILY_ANSWERS",
      "outputs": [
        {
          "internalType": "uint256",
          "name": "",
          "type": "uint256"
        }
      ],
      "stateMutability": "view",
      "type": "function"
    },
    {
      "inputs": [],
      "name": "MAX_DAILY_QUESTIONS",
      "outputs": [
        {
          "internalType": "uint256",
          "name": "",
          "type": "uint256"
        }
      ],
      "stateMutability": "view",
      "type": "function"
    },
    {
      "inputs": [],
      "name": "MIN_ANSWER_INTERVAL",
      "outputs": [
        {
          "internalType": "uint256",
          "name": "",
          "type": "uint256"
        }
      ],
      "stateMutability": "view",
      "type": "function"
    },
    {
      "inputs": [],
      "name": "MIN_QUESTION_INTERVAL",
      "outputs": [
        {
          "internalType": "uint256",
          "name": "",
          "type": "uint256"
        }
      ],
      "stateMutability": "view",
      "type": "function"
    },
    {
      "inputs": [],
      "name": "MIN_REPUTATION_TO_ASK",
      "outputs": [
        {
          "internalType": "uint256",
          "name": "",
          "type": "uint256"
        }
      ],
      "stateMutability": "view",
      "type": "function"
    },
    {
      "inputs": [],
      "name": "answerCounter",
      "outputs": [
        {
          "internalType": "uint256",
          "name": "",
          "type": "uint256"
        }
      ],
      "stateMutability": "view",
      "type": "function"
    },
    {
      "inputs": [
        {
          "internalType": "uint256",
          "name": "",
          "type": "uint256"
        },
        {
          "internalType": "address",
          "name": "",
          "type": "address"
        }
      ],
      "name": "answerDownvoters",
      "outputs": [
        {
          "internalType": "bool",
          "name": "",
          "type": "bool"
        }
      ],
      "stateMutability": "view",
      "type": "function"
    },
    {
      "inputs": [
        {
          "internalType": "uint256",
          "name": "",
          "type": "uint256"
        },
        {
          "internalType": "address",
          "name": "",
          "type": "address"
        }
      ],
      "name": "answerUpvoters",
      "outputs": [
        {
          "internalType": "bool",
          "name": "",
          "type": "bool"
        }
      ],
      "stateMutability": "view",
      "type": "function"
    },
    {
      "inputs": [
        {
          "internalType": "uint256",
          "name": "",
          "type": "uint256"
        }
      ],
      "name": "answers",
      "outputs": [
        {
          "internalType": "uint256",
          "name": "id",
          "type": "uint256"
        },
        {
          "internalType": "uint256",
          "name": "questionId",
          "type": "uint256"
        },
        {
          "internalType": "address",
          "name": "author",
          "type": "address"
        },
        {
          "internalType": "string",
          "name": "content",
          "type": "string"
        },
        {
          "internalType": "uint256",
          "name": "timestamp",
          "type": "uint256"
        },
        {
          "internalType": "uint256",
          "name": "upvotes",
          "type": "uint256"
        },
        {
          "internalType": "uint256",
          "name": "downvotes",
          "type": "uint256"
        },
        {
          "internalType": "bool",
          "name": "isApproved",
          "type": "bool"
        }
      ],
      "stateMutability": "view",
      "type": "function"
    },
    {
      "inputs": [
        {
          "internalType": "uint256",
          "name": "questionId",
          "type": "uint256"
        },
        {
          "internalType": "uint256",
          "name": "answerId",
          "type": "uint256"
        }
      ],
      "name": "approveAnswer",
      "outputs": [],
      "stateMutability": "nonpayable",
      "type": "function"
    },
    {
      "inputs": [
        {
          "internalType": "string",
          "name": "title",
          "type": "string"
        },
        {
          "internalType": "string",
          "name": "content",
          "type": "string"
        },
        {
          "internalType": "string[]",
          "name": "tags",
          "type": "string[]"
        },
        {
          "internalType": "uint256",
          "name": "bounty",
          "type": "uint256"
        }
      ],
      "name": "askQuestion",
      "outputs": [],
      "stateMutability": "payable",
      "type": "function"
    },
    {
      "inputs": [
        {
          "internalType": "address",
          "name": "",
          "type": "address"
        }
      ],
      "name": "dailyAnswers",
      "outputs": [
        {
          "internalType": "uint256",
          "name": "",
          "type": "uint256"
        }
      ],
      "stateMutability": "view",
      "type": "function"
    },
    {
      "inputs": [
        {
          "internalType": "address",
          "name": "",
          "type": "address"
        }
      ],
      "name": "dailyQuestions",
      "outputs": [
        {
          "internalType": "uint256",
          "name": "",
          "type": "uint256"
        }
      ],
      "stateMutability": "view",
      "type": "function"
    },
    {
      "inputs": [],
      "name": "emergencyWithdraw",
      "outputs": [],
      "stateMutability": "nonpayable",
      "type": "function"
    },
    {
      "inputs": [
        {
          "internalType": "uint256",
          "name": "answerId",
          "type": "uint256"
        }
      ],
      "name": "getAnswer",
      "outputs": [
        {
          "internalType": "uint256",
          "name": "id",
          "type": "uint256"
        },
        {
          "internalType": "uint256",
          "name": "questionId",
          "type": "uint256"
        },
        {
          "internalType": "address",
          "name": "author",
          "type": "address"
        },
        {
          "internalType": "string",
          "name": "content",
          "type": "string"
        },
        {
          "internalType": "uint256",
          "name": "timestamp",
          "type": "uint256"
        },
        {
          "internalType": "uint256",
          "name": "upvotes",
          "type": "uint256"
        },
        {
          "internalType": "uint256",
          "name": "downvotes",
          "type": "uint256"
        },
        {
          "internalType": "bool",
          "name": "isApproved",
          "type": "bool"
        }
      ],
      "stateMutability": "view",
      "type": "function"
    },
    {
      "inputs": [
        {
          "internalType": "uint256",
          "name": "questionId",
          "type": "uint256"
        }
      ],
      "name": "getQuestion",
      "outputs": [
        {
          "internalType": "uint256",
          "name": "id",
          "type": "uint256"
        },
        {
          "internalType": "address",
          "name": "asker",
          "type": "address"
        },
        {
          "internalType": "string",
          "name": "title",
          "type": "string"
        },
        {
          "internalType": "string",
          "name": "content",
          "type": "string"
        },
        {
          "internalType": "string[]",
          "name": "tags",
          "type": "string[]"
        },
        {
          "internalType": "uint256",
          "name": "timestamp",
          "type": "uint256"
        },
        {
          "internalType": "uint256",
          "name": "bounty",
          "type": "uint256"
        },
        {
          "internalType": "bool",
          "name": "isResolved",
          "type": "bool"
        },
        {
          "internalType": "address",
          "name": "approvedAnswer",
          "type": "address"
        },
        {
          "internalType": "uint256",
          "name": "totalAnswers",
          "type": "uint256"
        },
        {
          "internalType": "uint256",
          "name": "totalUpvotes",
          "type": "uint256"
        }
      ],
      "stateMutability": "view",
      "type": "function"
    },
    {
      "inputs": [
        {
          "internalType": "string",
          "name": "tag",
          "type": "string"
        }
      ],
      "name": "getQuestionsByTag",
      "outputs": [
        {
          "internalType": "uint256[]",
          "name": "",
          "type": "uint256[]"
        }
      ],
      "stateMutability": "view",
      "type": "function"
    },
    {
      "inputs": [
        {
          "internalType": "address",
          "name": "user",
          "type": "address"
        }
      ],
      "name": "getUserAnswers",
      "outputs": [
        {
          "internalType": "uint256[]",
          "name": "",
          "type": "uint256[]"
        }
      ],
      "stateMutability": "view",
      "type": "function"
    },
    {
      "inputs": [
        {
          "internalType": "address",
          "name": "user",
          "type": "address"
        }
      ],
      "name": "getUserProfile",
      "outputs": [
        {
          "internalType": "uint256",
          "name": "questionsAsked",
          "type": "uint256"
        },
        {
          "internalType": "uint256",
          "name": "answersGiven",
          "type": "uint256"
        },
        {
          "internalType": "uint256",
          "name": "totalUpvotes",
          "type": "uint256"
        },
        {
          "internalType": "uint256",
          "name": "reputation",
          "type": "uint256"
        },
        {
          "internalType": "bool",
          "name": "isVerified",
          "type": "bool"
        },
        {
          "internalType": "uint256",
          "name": "lastActivity",
          "type": "uint256"
        }
      ],
      "stateMutability": "view",
      "type": "function"
    },
    {
      "inputs": [
        {
          "internalType": "address",
          "name": "user",
          "type": "address"
        }
      ],
      "name": "getUserQuestions",
      "outputs": [
        {
          "internalType": "uint256[]",
          "name": "",
          "type": "uint256[]"
        }
      ],
      "stateMutability": "view",
      "type": "function"
    },
    {
      "inputs": [
        {
          "internalType": "address",
          "name": "",
          "type": "address"
        }
      ],
      "name": "lastAnswerTime",
      "outputs": [
        {
          "internalType": "uint256",
          "name": "",
          "type": "uint256"
        }
      ],
      "stateMutability": "view",
      "type": "function"
    },
    {
      "inputs": [
        {
          "internalType": "address",
          "name": "",
          "type": "address"
        }
      ],
      "name": "lastDailyReset",
      "outputs": [
        {
          "internalType": "uint256",
          "name": "",
          "type": "uint256"
        }
      ],
      "stateMutability": "view",
      "type": "function"
    },
    {
      "inputs": [
        {
          "internalType": "address",
          "name": "",
          "type": "address"
        }
      ],
      "name": "lastQuestionTime",
      "outputs": [
        {
          "internalType": "uint256",
          "name": "",
          "type": "uint256"
        }
      ],
      "stateMutability": "view",
      "type": "function"
    },
    {
      "inputs": [],
      "name": "owner",
      "outputs": [
        {
          "internalType": "address",
          "name": "",
          "type": "address"
        }
      ],
      "stateMutability": "view",
      "type": "function"
    },
    {
      "inputs": [
        {
          "internalType": "uint256",
          "name": "questionId",
          "type": "uint256"
        },
        {
          "internalType": "string",
          "name": "content",
          "type": "string"
        }
      ],
      "name": "postAnswer",
      "outputs": [],
      "stateMutability": "nonpayable",
      "type": "function"
    },
    {
      "inputs": [],
      "name": "questionCounter",
      "outputs": [
        {
          "internalType": "uint256",
          "name": "",
          "type": "uint256"
        }
      ],
      "stateMutability": "view",
      "type": "function"
    },
    {
      "inputs": [
        {
          "internalType": "uint256",
          "name": "",
          "type": "uint256"
        }
      ],
      "name": "questions",
      "outputs": [
        {
          "internalType": "uint256",
          "name": "id",
          "type": "uint256"
        },
        {
          "internalType": "address",
          "name": "asker",
          "type": "address"
        },
        {
          "internalType": "string",
          "name": "title",
          "type": "string"
        },
        {
          "internalType": "string",
          "name": "content",
          "type": "string"
        },
        {
          "internalType": "uint256",
          "name": "timestamp",
          "type": "uint256"
        },
        {
          "internalType": "uint256",
          "name": "bounty",
          "type": "uint256"
        },
        {
          "internalType": "bool",
          "name": "isResolved",
          "type": "bool"
        },
        {
          "internalType": "address",
          "name": "approvedAnswer",
          "type": "address"
        },
        {
          "internalType": "uint256",
          "name": "totalAnswers",
          "type": "uint256"
        },
        {
          "internalType": "uint256",
          "name": "totalUpvotes",
          "type": "uint256"
        }
      ],
      "stateMutability": "view",
      "type": "function"
    },
    {
      "inputs": [
        {
          "internalType": "string",
          "name": "",
          "type": "string"
        },
        {
          "internalType": "uint256",
          "name": "",
          "type": "uint256"
        }
      ],
      "name": "questionsByTag",
      "outputs": [
        {
          "internalType": "uint256",
          "name": "",
          "type": "uint256"
        }
      ],
      "stateMutability": "view",
      "type": "function"
    },
    {
      "inputs": [],
      "name": "renounceOwnership",
      "outputs": [],
      "stateMutability": "nonpayable",
      "type": "function"
    },
    {
      "inputs": [],
      "name": "totalBountyPool",
      "outputs": [
        {
          "internalType": "uint256",
          "name": "",
          "type": "uint256"
        }
      ],
      "stateMutability": "view",
      "type": "function"
    },
    {
      "inputs": [
        {
          "internalType": "address",
          "name": "newOwner",
          "type": "address"
        }
      ],
      "name": "transferOwnership",
      "outputs": [],
      "stateMutability": "nonpayable",
      "type": "function"
    },
    {
      "inputs": [
        {
          "internalType": "uint256",
          "name": "answerId",
          "type": "uint256"
        }
      ],
      "name": "upvoteAnswer",
      "outputs": [],
      "stateMutability": "nonpayable",
      "type": "function"
    },
    {
      "inputs": [
        {
          "internalType": "address",
          "name": "",
          "type": "address"
        },
        {
          "internalType": "uint256",
          "name": "",
          "type": "uint256"
        }
      ],
      "name": "userAnswers",
      "outputs": [
        {
          "internalType": "uint256",
          "name": "",
          "type": "uint256"
        }
      ],
      "stateMutability": "view",
      "type": "function"
    },
    {
      "inputs": [
        {
          "internalType": "address",
          "name": "",
          "type": "address"
        }
      ],
      "name": "userProfiles",
      "outputs": [
        {
          "internalType": "address",
          "name": "user",
          "type": "address"
        },
        {
          "internalType": "uint256",
          "name": "questionsAsked",
          "type": "uint256"
        },
        {
          "internalType": "uint256",
          "name": "answersGiven",
          "type": "uint256"
        },
        {
          "internalType": "uint256",
          "name": "totalUpvotes",
          "type": "uint256"
        },
        {
          "internalType": "uint256",
          "name": "reputation",
          "type": "uint256"
        },
        {
          "internalType": "bool",
          "name": "isVerified",
          "type": "bool"
        },
        {
          "internalType": "uint256",
          "name": "lastActivity",
          "type": "uint256"
        }
      ],
      "stateMutability": "view",
      "type": "function"
    },
    {
      "inputs": [
        {
          "internalType": "address",
          "name": "",
          "type": "address"
        },
        {
          "internalType": "uint256",
          "name": "",
          "type": "uint256"
        }
      ],
      "name": "userQuestions",
      "outputs": [
        {
          "internalType": "uint256",
          "name": "",
          "type": "uint256"
        }
      ],
      "stateMutability": "view",
      "type": "function"
    },
    {
      "inputs": [
        {
          "internalType": "address",
          "name": "user",
          "type": "address"
        }
      ],
      "name": "verifyUser",
      "outputs": [],
      "stateMutability": "nonpayable",
      "type": "function"
    }
  ],
  "bytecode": "0x608060405234801561001057600080fd5b5061001a33610023565b60018055610073565b600080546001600160a01b038381166001600160a01b0319831681178455604051919092169283917f8be0079c531659141344cd1fd0a4f28419497f9722a3daafe3b4186f6b6457e09190a35050565b6128e7806100826000396000f3fe60806040526004361061020f5760003560e01c80638da5cb5b11610118578063c921d66c116100a0578063db88176f1161006f578063db88176f1461073e578063df9b087614610775578063f2fde38b14610795578063f5d6b5d1146107b5578063faf99c87146107d557600080fd5b8063c921d66c146106bc578063cd7ce856146106dc578063da076840146106fc578063db2e21bc1461072957600080fd5b8063b0508a62116100e7578063b0508a6214610620578063b5ab58dc1461065b578063b7b064a81461067b578063c3180cef14610691578063c581c423146106a757600080fd5b80638da5cb5b146105525780638fd56938146102e6578063987ee1561461057a578063a2885fba1461060a57600080fd5b8063332d56d71161019b5780635898852c1161016a5780635898852c146104ad578063663cc040146104c3578063715018a6146104f05780637813d782146105055780637df88f241461053257600080fd5b8063332d56d7146103875780634a401dff1461042d5780634d8131201461047857806354b8d6be1461049a57600080fd5b8063203bfd2c116101e2578063203bfd2c146102e65780632776a444146102fb5780632af3d7ed146103115780632f068cfa1461033157806331b1b9781461035157600080fd5b806301c2a6fe1461021457806310aa0be81461024a57806317599cc5146102855780631fe1881c146102b9575b600080fd5b34801561022057600080fd5b5061023461022f366004612102565b6107f5565b6040516102419190612124565b60405180910390f35b34801561025657600080fd5b50610277610265366004612102565b600d6020526000908152604090205481565b604051908152602001610241565b34801561029157600080fd5b506102a56102a0366004612168565b610861565b6040516102419897969594939291906121d1565b3480156102c557600080fd5b506102776102d4366004612102565b600f6020526000908152604090205481565b3480156102f257600080fd5b50610277600a81565b34801561030757600080fd5b5061027761070881565b34801561031d57600080fd5b5061023461032c366004612102565b61093a565b34801561033d57600080fd5b5061027761034c36600461222d565b6109a4565b34801561035d57600080fd5b5061037161036c366004612168565b6109d5565b6040516102419a99989796959493929190612257565b34801561039357600080fd5b506103ec6103a2366004612102565b60096020526000908152604090208054600182015460028301546003840154600485015460058601546006909601546001600160a01b0390951695939492939192909160ff169087565b604080516001600160a01b03909816885260208801969096529486019390935260608501919091526080840152151560a083015260c082015260e001610241565b34801561043957600080fd5b506104686104483660046122d0565b600360209081526000928352604080842090915290825290205460ff1681565b6040519015158152602001610241565b34801561048457600080fd5b50610498610493366004612102565b610b4b565b005b6104986104a83660046123b3565b610b7a565b3480156104b957600080fd5b5061027760055481565b3480156104cf57600080fd5b506102776104de366004612102565b600e6020526000908152604090205481565b3480156104fc57600080fd5b506104986110ed565b34801561051157600080fd5b50610277610520366004612102565b60116020526000908152604090205481565b34801561053e57600080fd5b5061049861054d366004612168565b611101565b34801561055e57600080fd5b506000546040516001600160a01b039091168152602001610241565b34801561058657600080fd5b506105db610595366004612102565b6001600160a01b0316600090815260096020526040902060018101546002820154600383015460048401546005850154600690950154939592949193909260ff90921691565b6040805196875260208701959095529385019290925260608401521515608083015260a082015260c001610241565b34801561061657600080fd5b5061027760065481565b34801561062c57600080fd5b5061046861063b3660046122d0565b600260209081526000928352604080842090915290825290205460ff1681565b34801561066757600080fd5b506102a5610676366004612168565b6113bb565b34801561068757600080fd5b5061027760045481565b34801561069d57600080fd5b50610277610e1081565b3480156106b357600080fd5b50610277603281565b3480156106c857600080fd5b506104986106d73660046124c3565b6114ce565b3480156106e857600080fd5b506102346106f736600461250a565b61186d565b34801561070857600080fd5b50610277610717366004612102565b60106020526000908152604090205481565b34801561073557600080fd5b506104986118db565b34801561074a57600080fd5b5061075e610759366004612168565b611920565b6040516102419b9a9998979695949392919061259c565b34801561078157600080fd5b5061027761079036600461262b565b611bc0565b3480156107a157600080fd5b506104986107b0366004612102565b611beb565b3480156107c157600080fd5b506104986107d0366004612670565b611c61565b3480156107e157600080fd5b506102776107f036600461222d565b611f0a565b6001600160a01b0381166000908152600a602090815260409182902080548351818402810184019094528084526060939283018282801561085557602002820191906000526020600020905b815481526020019060010190808311610841575b50505050509050919050565b6008602052600090815260409020805460018201546002830154600384018054939492936001600160a01b03909216929161089b90612692565b80601f01602080910402602001604051908101604052809291908181526020018280546108c790612692565b80156109145780601f106108e957610100808354040283529160200191610914565b820191906000526020600020905b8154815290600101906020018083116108f757829003601f168201915b505050506004830154600584015460068501546007909501549394919390925060ff1688565b6001600160a01b0381166000908152600b602090815260409182902080548351818402810184019094528084526060939283018282801561085557602002820191906000526020600020908154815260200190600101908083116108415750505050509050919050565b600a60205281600052604060002081815481106109c057600080fd5b90600052602060002001600091509150505481565b60076020526000908152604090208054600182015460028301805492936001600160a01b0390921692610a0790612692565b80601f0160208091040260200160405190810160405280929190818152602001828054610a3390612692565b8015610a805780601f10610a5557610100808354040283529160200191610a80565b820191906000526020600020905b815481529060010190602001808311610a6357829003601f168201915b505050505090806003018054610a9590612692565b80601f0160208091040260200160405190810160405280929190818152602001828054610ac190612692565b8015610b0e5780601f10610ae357610100808354040283529160200191610b0e565b820191906000526020600020905b815481529060010190602001808311610af157829003601f168201915b5050505060058301546006840154600785015460088601546009909601549495929491935060ff8116926101009091046001600160a01b0316918a565b610b53611f26565b6001600160a01b03166000908152600960205260409020600501805460ff19166001179055565b610b82611f80565b6000845111610bd05760405162461bcd60e51b81526020600482015260156024820152745469746c652063616e6e6f7420626520656d70747960581b60448201526064015b60405180910390fd5b6000835111610c215760405162461bcd60e51b815260206004820152601760248201527f436f6e74656e742063616e6e6f7420626520656d7074790000000000000000006044820152606401610bc7565b6000825111610c725760405162461bcd60e51b815260206004820152601960248201527f4174206c65617374206f6e6520746167207265717569726564000000000000006044820152606401610bc7565b80341015610cb85760405162461bcd60e51b8152602060048201526013602482015272496e73756666696369656e7420626f756e747960681b6044820152606401610bc7565b33600090815260096020526040902060040154600a1115610d2c5760405162461bcd60e51b815260206004820152602860248201527f496e73756666696369656e742072657075746174696f6e20746f2061736b207160448201526775657374696f6e7360c01b6064820152608401610bc7565b336000908152600d6020526040902054610e1090610d4a90426126e2565b1015610d985760405162461bcd60e51b815260206004820181905260248201527f546f6f20736f6f6e20746f2061736b20616e6f74686572207175657374696f6e6044820152606401610bc7565b336000908152600f6020526040902054600a11610df75760405162461bcd60e51b815260206004820152601c60248201527f4461696c79207175657374696f6e206c696d69742072656163686564000000006044820152606401610bc7565b336000908152601160205260409020546201518090610e1690426126e2565b10610e4557336000908152600f6020908152604080832083905560108252808320839055601190915290204290555b60048054906000610e55836126fb565b9091555050600454604080516101608101825282815233602080830191825282840189815260608401899052608084018890524260a085015260c08401879052600060e0850181905261010085018190526101208501819052610140850181905286815260079092529390208251815590516001820180546001600160a01b0319166001600160a01b0390921691909117905591519091906002820190610efc9082612763565b5060608201516003820190610f119082612763565b5060808201518051610f2d916004840191602090910190612029565b5060a0820151600582015560c0820151600682015560e0820151600782018054610100808601516001600160a01b031602610100600160a81b0319931515939093166001600160a81b03199091161791909117905561012082015160088201556101409091015160099182015533600090815260209190915260408120600101805491610fb9836126fb565b909155505033600090815260096020908152604080832042600690910155600a825282208054600181018255908352908220018290555b835181101561105857600c84828151811061100d5761100d612823565b60200260200101516040516110229190612839565b90815260405160209181900382019020805460018101825560009182529190200182905580611050816126fb565b915050610ff0565b50336000908152600d60209081526040808320429055600f9091528120805491611081836126fb565b919050555081600660008282546110989190612855565b9091555050604051339082907f6430b579f7adaee3ac1054c20474eecc9c0ddd0ac3a0b3204a81f966f10dca35906110d590899088908890612868565b60405180910390a3506110e760018055565b50505050565b6110f5611f26565b6110ff6000611fd9565b565b60008181526008602052604081205490036111565760405162461bcd60e51b8152602060048201526015602482015274105b9cddd95c88191bd95cc81b9bdd08195e1a5cdd605a1b6044820152606401610bc7565b600081815260026020908152604080832033845290915290205460ff16156111b25760405162461bcd60e51b815260206004820152600f60248201526e105b1c9958591e481d5c1d9bdd1959608a1b6044820152606401610bc7565b600081815260086020526040902060020154336001600160a01b039091160361121d5760405162461bcd60e51b815260206004820152601860248201527f43616e6e6f74207570766f7465206f776e20616e7377657200000000000000006044820152606401610bc7565b600081815260086020526040812060050180549161123a836126fb565b909155505060008181526002602090815260408083203384528252808320805460ff1916600190811790915584845260088352818420015483526007909152812060090180549161128a836126fb565b90915550506000818152600860209081526040808320600201546001600160a01b03168352600990915281206003018054916112c5836126fb565b90915550506000818152600860209081526040808320600201546001600160a01b0316835260099091528120600401805460059290611305908490612855565b90915550506000818152600860205260408082206002015490516001600160a01b0390911691339184917fe2a4e74b41d2573dc39ea73d8299312308dc994f1ee2b52b57004211b0f285a191a46000818152600860209081526040808320600201546001600160a01b031680845260098352928190206004015481519081526005928101929092527f5b88a2e3fc1a53234357ab78c104df11c33ccfa79886793654565ad70b8afb6e910160405180910390a250565b600080600060606000806000806000600860008b81526020019081526020016000209050806000015481600101548260020160009054906101000a90046001600160a01b0316836003018460040154856005015486600601548760070160009054906101000a900460ff1684805461143290612692565b80601f016020809104026020016040519081016040528092919081815260200182805461145e90612692565b80156114ab5780601f10611480576101008083540402835291602001916114ab565b820191906000526020600020905b81548152906001019060200180831161148e57829003601f168201915b505050505094509850985098509850985098509850985050919395975091939597565b6114d6611f80565b600082815260076020526040812054900361152d5760405162461bcd60e51b8152602060048201526017602482015276145d595cdd1a5bdb88191bd95cc81b9bdd08195e1a5cdd604a1b6044820152606401610bc7565b6000828152600760208190526040909120015460ff16156115875760405162461bcd60e51b8152602060048201526014602482015273145d595cdd1a5bdb881a5cc81c995cdbdb1d995960621b6044820152606401610bc7565b60008151116115d15760405162461bcd60e51b8152602060048201526016602482015275416e737765722063616e6e6f7420626520656d70747960501b6044820152606401610bc7565b336000908152600e6020526040902054610708906115ef90426126e2565b101561163d5760405162461bcd60e51b815260206004820152601f60248201527f546f6f20736f6f6e20746f20706f737420616e6f7468657220616e73776572006044820152606401610bc7565b3360009081526010602052604090205460321161169c5760405162461bcd60e51b815260206004820152601a60248201527f4461696c7920616e73776572206c696d697420726561636865640000000000006044820152606401610bc7565b600580549060006116ac836126fb565b9091555050600554604080516101008101825282815260208082018681523383850190815260608401878152426080860152600060a0860181905260c0860181905260e08601819052878152600890945294909220835181559051600182015590516002820180546001600160a01b0319166001600160a01b03909216919091179055915190919060038201906117439082612763565b506080820151600482015560a0820151600582015560c0820151600682015560e0909101516007918201805460ff191691151591909117905560008481526020919091526040812060080180549161179a836126fb565b90915550503360009081526009602052604081206002018054916117bd836126fb565b9091555050336000818152600960209081526040808320426006909101819055600b8352818420805460018101825590855283852001869055938352600e82528083209390935560109052908120805491611817836126fb565b9190505550336001600160a01b031683827f203cd81921ba41181acd244c01f051f0b3cb6fbcccbc6683f614abee95757d6f85604051611857919061289e565b60405180910390a45061186960018055565b5050565b6060600c8260405161187f9190612839565b908152604080519182900360209081018320805480830285018301909352828452919083018282801561085557602002820191906000526020600020908154815260200190600101908083116108415750505050509050919050565b6118e3611f26565b600080546040516001600160a01b03909116914780156108fc02929091818181858888f1935050505015801561191d573d6000803e3d6000fd5b50565b60008060608060606000806000806000806000600760008e8152602001908152602001600020905080600001548160010160009054906101000a90046001600160a01b0316826002018360030184600401856005015486600601548760070160009054906101000a900460ff168860070160019054906101000a90046001600160a01b031689600801548a600901548880546119bb90612692565b80601f01602080910402602001604051908101604052809291908181526020018280546119e790612692565b8015611a345780601f10611a0957610100808354040283529160200191611a34565b820191906000526020600020905b815481529060010190602001808311611a1757829003601f168201915b50505050509850878054611a4790612692565b80601f0160208091040260200160405190810160405280929190818152602001828054611a7390612692565b8015611ac05780601f10611a9557610100808354040283529160200191611ac0565b820191906000526020600020905b815481529060010190602001808311611aa357829003601f168201915b5050505050975086805480602002602001604051908101604052809291908181526020016000905b82821015611b94578382906000526020600020018054611b0790612692565b80601f0160208091040260200160405190810160405280929190818152602001828054611b3390612692565b8015611b805780601f10611b5557610100808354040283529160200191611b80565b820191906000526020600020905b815481529060010190602001808311611b6357829003601f168201915b505050505081526020019060010190611ae8565b5050505096509b509b509b509b509b509b509b509b509b509b509b505091939597999b90929496989a50565b8151602081840181018051600c8252928201918501919091209190528054829081106109c057600080fd5b611bf3611f26565b6001600160a01b038116611c585760405162461bcd60e51b815260206004820152602660248201527f4f776e61626c653a206e6577206f776e657220697320746865207a65726f206160448201526564647265737360d01b6064820152608401610bc7565b61191d81611fd9565b6000828152600760205260409020600101546001600160a01b03163314611cca5760405162461bcd60e51b815260206004820152601f60248201527f4f6e6c79207175657374696f6e2061736b65722063616e20617070726f7665006044820152606401610bc7565b6000828152600760205260408120549003611d215760405162461bcd60e51b8152602060048201526017602482015276145d595cdd1a5bdb88191bd95cc81b9bdd08195e1a5cdd604a1b6044820152606401610bc7565b6000818152600860205260409020600101548214611d8b5760405162461bcd60e51b815260206004820152602160248201527f416e7377657220646f65736e27742062656c6f6e6720746f207175657374696f6044820152603760f91b6064820152608401610bc7565b6000828152600760208190526040909120015460ff1615611dee5760405162461bcd60e51b815260206004820152601960248201527f5175657374696f6e20616c7265616479207265736f6c766564000000000000006044820152606401610bc7565b600082815260076020818152604080842083018054600160ff1980831682178455888852600886528488206002810180546001600160a81b03199095166101006001600160a01b0396871602178417909555909601805490961617909455549092168352600990528120600401805460149290611e6c908490612855565b90915550506040513390829084907fe00c2d74241dff737fec8af60c5033479f9254ac0be931e2cd0cb9d3d781bdb890600090a46000818152600860209081526040808320600201546001600160a01b031680845260098352928190206004015481519081526014928101929092527f5b88a2e3fc1a53234357ab78c104df11c33ccfa79886793654565ad70b8afb6e910160405180910390a25050565b600b60205281600052604060002081815481106109c057600080fd5b6000546001600160a01b031633146110ff5760405162461bcd60e51b815260206004820181905260248201527f4f776e61626c653a2063616c6c6572206973206e6f7420746865206f776e65726044820152606401610bc7565b600260015403611fd25760405162461bcd60e51b815260206004820152601f60248201527f5265656e7472616e637947756172643a207265656e7472616e742063616c6c006044820152606401610bc7565b6002600155565b600080546001600160a01b038381166001600160a01b0319831681178455604051919092169283917f8be0079c531659141344cd1fd0a4f28419497f9722a3daafe3b4186f6b6457e09190a35050565b82805482825590600052602060002090810192821561206f579160200282015b8281111561206f578251829061205f9082612763565b5091602001919060010190612049565b5061207b92915061207f565b5090565b8082111561207b576000612093828261209c565b5060010161207f565b5080546120a890612692565b6000825580601f106120b8575050565b601f01602090049060005260206000209081019061191d91905b8082111561207b57600081556001016120d2565b80356001600160a01b03811681146120fd57600080fd5b919050565b60006020828403121561211457600080fd5b61211d826120e6565b9392505050565b6020808252825182820181905260009190848201906040850190845b8181101561215c57835183529284019291840191600101612140565b50909695505050505050565b60006020828403121561217a57600080fd5b5035919050565b60005b8381101561219c578181015183820152602001612184565b50506000910152565b600081518084526121bd816020860160208601612181565b601f01601f19169290920160200192915050565b888152602081018890526001600160a01b038716604082015261010060608201819052600090612203838201896121a5565b9150508560808301528460a08301528360c083015282151560e08301529998505050505050505050565b6000806040838503121561224057600080fd5b612249836120e6565b946020939093013593505050565b8a81526001600160a01b038a81166020830152610140604083018190526000916122838483018d6121a5565b91508382036060850152612297828c6121a5565b608085019a909a5260a0840198909852505093151560c08501529190931660e08301526101008201929092526101200152949350505050565b600080604083850312156122e357600080fd5b823591506122f3602084016120e6565b90509250929050565b634e487b7160e01b600052604160045260246000fd5b604051601f8201601f1916810167ffffffffffffffff8111828210171561233b5761233b6122fc565b604052919050565b600082601f83011261235457600080fd5b813567ffffffffffffffff81111561236e5761236e6122fc565b612381601f8201601f1916602001612312565b81815284602083860101111561239657600080fd5b816020850160208301376000918101602001919091529392505050565b600080600080608085870312156123c957600080fd5b843567ffffffffffffffff808211156123e157600080fd5b6123ed88838901612343565b955060209150818701358181111561240457600080fd5b61241089828a01612343565b95505060408701358181111561242557600080fd5b8701601f8101891361243657600080fd5b803582811115612448576124486122fc565b8060051b612457858201612312565b918252828101850191858101908c84111561247157600080fd5b86850192505b838310156124ad5782358681111561248f5760008081fd5b61249d8e8983890101612343565b8352509186019190860190612477565b999c989b50989960600135985050505050505050565b600080604083850312156124d657600080fd5b82359150602083013567ffffffffffffffff8111156124f457600080fd5b61250085828601612343565b9150509250929050565b60006020828403121561251c57600080fd5b813567ffffffffffffffff81111561253357600080fd5b61253f84828501612343565b949350505050565b600081518084526020808501808196508360051b8101915082860160005b8581101561258f57828403895261257d8483516121a5565b98850198935090840190600101612565565b5091979650505050505050565b8b81526001600160a01b038b81166020830152610160604083018190526000916125c88483018e6121a5565b915083820360608501526125dc828d6121a5565b915083820360808501526125f0828c612547565b60a085019a909a5260c0840198909852505093151560e085015291909316610100830152610120820192909252610140015295945050505050565b6000806040838503121561263e57600080fd5b823567ffffffffffffffff81111561265557600080fd5b61266185828601612343565b95602094909401359450505050565b6000806040838503121561268357600080fd5b50508035926020909101359150565b600181811c908216806126a657607f821691505b6020821081036126c657634e487b7160e01b600052602260045260246000fd5b50919050565b634e487b7160e01b600052601160045260246000fd5b818103818111156126f5576126f56126cc565b92915050565b60006001820161270d5761270d6126cc565b5060010190565b601f82111561275e57600081815260208120601f850160051c8101602086101561273b5750805b601f850160051c820191505b8181101561275a57828155600101612747565b5050505b505050565b815167ffffffffffffffff81111561277d5761277d6122fc565b6127918161278b8454612692565b84612714565b602080601f8311600181146127c657600084156127ae5750858301515b600019600386901b1c1916600185901b17855561275a565b600085815260208120601f198616915b828110156127f5578886015182559484019460019091019084016127d6565b50858210156128135787850151600019600388901b60f8161c191681555b5050505050600190811b01905550565b634e487b7160e01b600052603260045260246000fd5b6000825161284b818460208701612181565b9190910192915050565b808201808211156126f5576126f56126cc565b60608152600061287b60608301866121a5565b828103602084015261288d8186612547565b915050826040830152949350505050565b60208152600061211d60208301846121a556fea264697066735822122022bce62316dc4c8421c04df12ce9b59faa866f2aaa90d46516a26683ca883b7464736f6c63430008140033",
  "linkReferences": {},
  "deployedLinkReferences": {}
}