{
  "_format": "hh-sol-artifact-1",
  "contractName": "RewardSystem",
  "sourceName": "contracts/RewardSystem.sol",
  "abi": [
    {
      "inputs": [
        {
          "internalType": "address",
          "name": "_questionManager",
          "type": "address"
        }
      ],
      "stateMutability": "nonpayable",
      "type": "constructor"
    },
    {
      "anonymous": false,
      "inputs": [
        {
          "indexed": true,
          "internalType": "address",
          "name": "user",
          "type": "address"
        },
        {
          "indexed": false,
          "internalType": "uint256",
          "name": "newScore",
          "type": "uint256"
        },
        {
          "indexed": false,
          "internalType": "uint256",
          "name": "change",
          "type": "uint256"
        }
      ],
      "name": "EngagementScoreUpdated",
      "type": "event"
    },
    {
      "anonymous": false,
      "inputs": [
        {
          "indexed": true,
          "internalType": "address",
          "name": "previousOwner",
          "type": "address"
        },
        {
          "indexed": true,
          "internalType": "address",
          "name": "newOwner",
          "type": "address"
        }
      ],
      "name": "OwnershipTransferred",
      "type": "event"
    },
    {
      "anonymous": false,
      "inputs": [
        {
          "indexed": true,
          "internalType": "uint256",
          "name": "poolId",
          "type": "uint256"
        },
        {
          "indexed": false,
          "internalType": "uint256",
          "name": "totalAllocated",
          "type": "uint256"
        },
        {
          "indexed": false,
          "internalType": "uint256",
          "name": "startTime",
          "type": "uint256"
        },
        {
          "indexed": false,
          "internalType": "uint256",
          "name": "endTime",
          "type": "uint256"
        }
      ],
      "name": "RewardPoolCreated",
      "type": "event"
    },
    {
      "anonymous": false,
      "inputs": [
        {
          "indexed": true,
          "internalType": "address",
          "name": "user",
          "type": "address"
        },
        {
          "indexed": false,
          "internalType": "uint256",
          "name": "amount",
          "type": "uint256"
        },
        {
          "indexed": false,
          "internalType": "uint256",
          "name": "timestamp",
          "type": "uint256"
        }
      ],
      "name": "RewardsClaimed",
      "type": "event"
    },
    {
      "anonymous": false,
      "inputs": [
        {
          "indexed": true,
          "internalType": "address",
          "name": "user",
          "type": "address"
        },
        {
          "indexed": false,
          "internalType": "uint256",
          "name": "amount",
          "type": "uint256"
        },
        {
          "indexed": false,
          "internalType": "uint256",
          "name": "poolId",
          "type": "uint256"
        },
        {
          "indexed": false,
          "internalType": "string",
          "name": "reason",
          "type": "string"
        }
      ],
      "name": "RewardsDistributed",
      "type": "event"
    },
    {
      "inputs": [],
      "name": "APPROVED_ANSWER_MULTIPLIER",
      "outputs": [
        {
          "internalType": "uint256",
          "name": "",
          "type": "uint256"
        }
      ],
      "stateMutability": "view",
      "type": "function"
    },
    {
      "inputs": [],
      "name": "BASE_REWARD",
      "outputs": [
        {
          "internalType": "uint256",
          "name": "",
          "type": "uint256"
        }
      ],
      "stateMutability": "view",
      "type": "function"
    },
    {
      "inputs": [],
      "name": "HIGH_ENGAGEMENT_MULTIPLIER",
      "outputs": [
        {
          "internalType": "uint256",
          "name": "",
          "type": "uint256"
        }
      ],
      "stateMutability": "view",
      "type": "function"
    },
    {
      "inputs": [],
      "name": "MIN_REPUTATION_FOR_REWARDS",
      "outputs": [
        {
          "internalType": "uint256",
          "name": "",
          "type": "uint256"
        }
      ],
      "stateMutability": "view",
      "type": "function"
    },
    {
      "inputs": [],
      "name": "REWARD_CYCLE_DURATION",
      "outputs": [
        {
          "internalType": "uint256",
          "name": "",
          "type": "uint256"
        }
      ],
      "stateMutability": "view",
      "type": "function"
    },
    {
      "inputs": [],
      "name": "VERIFIED_USER_MULTIPLIER",
      "outputs": [
        {
          "internalType": "uint256",
          "name": "",
          "type": "uint256"
        }
      ],
      "stateMutability": "view",
      "type": "function"
    },
    {
      "inputs": [
        {
          "internalType": "address",
          "name": "user",
          "type": "address"
        }
      ],
      "name": "calculateEngagementScore",
      "outputs": [
        {
          "internalType": "uint256",
          "name": "",
          "type": "uint256"
        }
      ],
      "stateMutability": "view",
      "type": "function"
    },
    {
      "inputs": [],
      "name": "claimRewards",
      "outputs": [],
      "stateMutability": "nonpayable",
      "type": "function"
    },
    {
      "inputs": [
        {
          "internalType": "uint256",
          "name": "totalAllocated",
          "type": "uint256"
        }
      ],
      "name": "createRewardPool",
      "outputs": [],
      "stateMutability": "nonpayable",
      "type": "function"
    },
    {
      "inputs": [],
      "name": "currentPoolId",
      "outputs": [
        {
          "internalType": "uint256",
          "name": "",
          "type": "uint256"
        }
      ],
      "stateMutability": "view",
      "type": "function"
    },
    {
      "inputs": [
        {
          "internalType": "address",
          "name": "user",
          "type": "address"
        },
        {
          "internalType": "uint256",
          "name": "activityType",
          "type": "uint256"
        },
        {
          "internalType": "uint256",
          "name": "engagementScore",
          "type": "uint256"
        }
      ],
      "name": "distributeRewards",
      "outputs": [],
      "stateMutability": "nonpayable",
      "type": "function"
    },
    {
      "inputs": [],
      "name": "getCurrentRewardPool",
      "outputs": [
        {
          "internalType": "uint256",
          "name": "poolId",
          "type": "uint256"
        },
        {
          "internalType": "uint256",
          "name": "totalAllocated",
          "type": "uint256"
        },
        {
          "internalType": "uint256",
          "name": "distributed",
          "type": "uint256"
        },
        {
          "internalType": "uint256",
          "name": "remaining",
          "type": "uint256"
        },
        {
          "internalType": "uint256",
          "name": "startTime",
          "type": "uint256"
        },
        {
          "internalType": "uint256",
          "name": "endTime",
          "type": "uint256"
        },
        {
          "internalType": "bool",
          "name": "isActive",
          "type": "bool"
        }
      ],
      "stateMutability": "view",
      "type": "function"
    },
    {
      "inputs": [
        {
          "internalType": "uint256",
          "name": "limit",
          "type": "uint256"
        }
      ],
      "name": "getTopUsers",
      "outputs": [
        {
          "internalType": "address[]",
          "name": "users",
          "type": "address[]"
        },
        {
          "internalType": "uint256[]",
          "name": "scores",
          "type": "uint256[]"
        },
        {
          "internalType": "uint256[]",
          "name": "rewards",
          "type": "uint256[]"
        }
      ],
      "stateMutability": "view",
      "type": "function"
    },
    {
      "inputs": [
        {
          "internalType": "address",
          "name": "user",
          "type": "address"
        }
      ],
      "name": "getUserRewardInfo",
      "outputs": [
        {
          "internalType": "uint256",
          "name": "pendingRewards",
          "type": "uint256"
        },
        {
          "internalType": "uint256",
          "name": "totalEarned",
          "type": "uint256"
        },
        {
          "internalType": "uint256",
          "name": "lastClaimTime",
          "type": "uint256"
        },
        {
          "internalType": "uint256",
          "name": "engagementScore",
          "type": "uint256"
        },
        {
          "internalType": "uint256",
          "name": "reputationMultiplier",
          "type": "uint256"
        }
      ],
      "stateMutability": "view",
      "type": "function"
    },
    {
      "inputs": [],
      "name": "owner",
      "outputs": [
        {
          "internalType": "address",
          "name": "",
          "type": "address"
        }
      ],
      "stateMutability": "view",
      "type": "function"
    },
    {
      "inputs": [],
      "name": "pauseRewards",
      "outputs": [],
      "stateMutability": "nonpayable",
      "type": "function"
    },
    {
      "inputs": [],
      "name": "questionManager",
      "outputs": [
        {
          "internalType": "contract QuestionManager",
          "name": "",
          "type": "address"
        }
      ],
      "stateMutability": "view",
      "type": "function"
    },
    {
      "inputs": [],
      "name": "renounceOwnership",
      "outputs": [],
      "stateMutability": "nonpayable",
      "type": "function"
    },
    {
      "inputs": [],
      "name": "resumeRewards",
      "outputs": [],
      "stateMutability": "nonpayable",
      "type": "function"
    },
    {
      "inputs": [
        {
          "internalType": "uint256",
          "name": "",
          "type": "uint256"
        }
      ],
      "name": "rewardPools",
      "outputs": [
        {
          "internalType": "uint256",
          "name": "totalAllocated",
          "type": "uint256"
        },
        {
          "internalType": "uint256",
          "name": "distributed",
          "type": "uint256"
        },
        {
          "internalType": "uint256",
          "name": "startTime",
          "type": "uint256"
        },
        {
          "internalType": "uint256",
          "name": "endTime",
          "type": "uint256"
        },
        {
          "internalType": "bool",
          "name": "isActive",
          "type": "bool"
        }
      ],
      "stateMutability": "view",
      "type": "function"
    },
    {
      "inputs": [
        {
          "internalType": "address",
          "name": "newOwner",
          "type": "address"
        }
      ],
      "name": "transferOwnership",
      "outputs": [],
      "stateMutability": "nonpayable",
      "type": "function"
    },
    {
      "inputs": [
        {
          "internalType": "address",
          "name": "newQuestionManager",
          "type": "address"
        }
      ],
      "name": "updateQuestionManager",
      "outputs": [],
      "stateMutability": "nonpayable",
      "type": "function"
    },
    {
      "inputs": [
        {
          "internalType": "address",
          "name": "",
          "type": "address"
        }
      ],
      "name": "userEngagementScore",
      "outputs": [
        {
          "internalType": "uint256",
          "name": "",
          "type": "uint256"
        }
      ],
      "stateMutability": "view",
      "type": "function"
    },
    {
      "inputs": [
        {
          "internalType": "address",
          "name": "",
          "type": "address"
        }
      ],
      "name": "userRewards",
      "outputs": [
        {
          "internalType": "address",
          "name": "user",
          "type": "address"
        },
        {
          "internalType": "uint256",
          "name": "pendingRewards",
          "type": "uint256"
        },
        {
          "internalType": "uint256",
          "name": "totalEarned",
          "type": "uint256"
        },
        {
          "internalType": "uint256",
          "name": "lastClaimTime",
          "type": "uint256"
        },
        {
          "internalType": "uint256",
          "name": "reputationMultiplier",
          "type": "uint256"
        }
      ],
      "stateMutability": "view",
      "type": "function"
    }
  ],
  "bytecode": "0x608060405234801561001057600080fd5b506040516112b23803806112b283398101604081905261002f916100b1565b61003833610061565b60018055600280546001600160a01b0319166001600160a01b03929092169190911790556100e1565b600080546001600160a01b038381166001600160a01b0319831681178455604051919092169283917f8be0079c531659141344cd1fd0a4f28419497f9722a3daafe3b4186f6b6457e09190a35050565b6000602082840312156100c357600080fd5b81516001600160a01b03811681146100da57600080fd5b9392505050565b6111c2806100f06000396000f3fe608060405234801561001057600080fd5b50600436106101585760003560e01c806388b60064116100c3578063e19e73421161007c578063e19e7342146103e4578063e9e33c6d146103ec578063ebc5163b146103ff578063f2fde38b14610408578063f328ae4b1461041b578063f8ad6c911461042e57600080fd5b806388b60064146103235780638da5cb5b146103435780638dc3ec4d146103685780639b9fc3c61461037b578063a54dc7ab14610383578063de75aa6c146103c257600080fd5b8063401036ec11610115578063401036ec1461021657806346abf3911461021f5780635d4055b91461028a57806369517310146102925780636fa1570314610308578063715018a61461031b57600080fd5b806304a96d171461015d5780630660f1e8146101675780631f58abcd146101e657806322009af6146101fe578063248df73914610206578063372500ab1461020e575b600080fd5b610165610441565b005b6101af610175366004610f6a565b6004602081905260009182526040909120805460018201546002830154600384015493909401546001600160a01b03909216939092909185565b604080516001600160a01b0390961686526020860194909452928401919091526060830152608082015260a0015b60405180910390f35b6101f062093a8081565b6040519081526020016101dd565b6101f0606481565b6101f060c881565b610165610467565b6101f061012c81565b61026061022d366004610f8c565b60036020819052600091825260409091208054600182015460028301549383015460049093015491939092909160ff1685565b6040805195865260208601949094529284019190915260608301521515608082015260a0016101dd565b6101f0609681565b6102e06102a0366004610f6a565b6001600160a01b03166000908152600460208181526040808420600181015460028201546003830154600590955292909520549301549394909391929190565b604080519586526020860194909452928401919091526060830152608082015260a0016101dd565b610165610316366004610f8c565b61052a565b61016561060f565b6101f0610331366004610f6a565b60056020526000908152604090205481565b6000546001600160a01b03165b6040516001600160a01b0390911681526020016101dd565b610165610376366004610fa5565b610621565b6101f0603281565b61038b610af6565b604080519788526020880196909652948601939093526060850191909152608084015260a0830152151560c082015260e0016101dd565b6103d56103d0366004610f8c565b610b50565b6040516101dd93929190611013565b610165610c36565b6101f06103fa366004610f6a565b610c5f565b6101f060065481565b610165610416366004610f6a565b610da8565b600254610350906001600160a01b031681565b61016561043c366004610f6a565b610e21565b610449610e4b565b6006546000908152600360205260409020600401805460ff19169055565b61046f610ea5565b33600090815260046020526040902060018101546104c95760405162461bcd60e51b81526020600482015260126024820152714e6f2070656e64696e67207265776172647360701b60448201526064015b60405180910390fd5b6001810180546000909155426003830181905560405133917fdacbdde355ba930696a362ea6738feb9f8bd52dfb3d81947558fd3217e23e3259161051591858252602082015260400190565b60405180910390a2505061052860018055565b565b610532610e4b565b600680549060006105428361109e565b90915550429050600061055862093a80836110b7565b6040805160a0810182528581526000602080830182815283850188815260608086018881526001608088018181526006805489526003808952988b902099518a55955191890191909155925160028801555194860194909455516004909401805460ff1916941515949094179093559154835188815292830187905292820184905292935090917f733e95be7d4461810e0f7e62b849f66c225381d7691e003661480aad6d68ebab910160405180910390a2505050565b610617610e4b565b6105286000610efe565b6002546001600160a01b031633148061064457506000546001600160a01b031633145b6106ae5760405162461bcd60e51b815260206004820152603560248201527f4f6e6c79207175657374696f6e206d616e61676572206f72206f776e65722063604482015274616e2064697374726962757465207265776172647360581b60648201526084016104c0565b6006546000908152600360205260409020600481015460ff1661070b5760405162461bcd60e51b8152602060048201526015602482015274139bc81858dd1a5d99481c995dd85c99081c1bdbdb605a1b60448201526064016104c0565b80600301544211156107555760405162461bcd60e51b815260206004820152601360248201527214995dd85c99081c1bdbdb08195e1c1a5c9959606a1b60448201526064016104c0565b600254604051634c3f70ab60e11b81526001600160a01b038681166004830152600092169063987ee1569060240160c060405180830381865afa1580156107a0573d6000803e3d6000fd5b505050506040513d601f19601f820116820180604052508101906107c491906110d0565b5050935050505060328110156108285760405162461bcd60e51b815260206004820152602360248201527f496e73756666696369656e742072657075746174696f6e20666f72207265776160448201526272647360e81b60648201526084016104c0565b606480600186900361083d575061012c610849565b85600203610849575060c85b600254604051634c3f70ab60e11b81526001600160a01b038981166004830152600092169063987ee1569060240160c060405180830381865afa158015610894573d6000803e3d6000fd5b505050506040513d601f19601f820116820180604052508101906108b891906110d0565b5094505050505080156108df5760646108d260968461112a565b6108dc9190611141565b91505b6000612710876108ef858761112a565b6108f9919061112a565b6109039190611141565b9050856000015481876001015461091a91906110b7565b11156109605760405162461bcd60e51b815260206004820152601560248201527414995dd85c99081c1bdbdb08195e1a185d5cdd1959605a1b60448201526064016104c0565b6001600160a01b0389166000908152600460205260408120600101805483929061098b9084906110b7565b90915550506001600160a01b038916600090815260046020526040812060020180548392906109bb9084906110b7565b90915550506001600160a01b03891660009081526004602081905260408220018490556001870180548392906109f29084906110b7565b90915550506001600160a01b03891660009081526005602052604081208054899290610a1f9084906110b7565b90915550506006546040516001600160a01b038b16917f02b36122f7f970fa6dbecd52a1840d5dd984239d0f82ddca0ec601e8d04dd4a691610a90918582526020820152606060408201819052600f908201526e1058dd1a5d9a5d1e481c995dd85c99608a1b608082015260a00190565b60405180910390a26001600160a01b0389166000818152600560209081526040918290205482519081529081018a90527f1365b5cfc2fd209ba910eaab9caa2313cea18e9ab7b46184bb7d84d55107dd73910160405180910390a2505050505050505050565b60065460008181526003602052604081208054600182015492938493849384938493849384939290610b288183611163565b60028501546003860154600490960154949d939c50919a509850965091945060ff1692509050565b606080606060008467ffffffffffffffff811115610b7057610b70611176565b604051908082528060200260200182016040528015610b99578160200160208202803683370190505b50905060008567ffffffffffffffff811115610bb757610bb7611176565b604051908082528060200260200182016040528015610be0578160200160208202803683370190505b50905060008667ffffffffffffffff811115610bfe57610bfe611176565b604051908082528060200260200182016040528015610c27578160200160208202803683370190505b50929791965091945092505050565b610c3e610e4b565b6006546000908152600360205260409020600401805460ff19166001179055565b600254604051634c3f70ab60e11b81526001600160a01b038381166004830152600092839283929091169063987ee1569060240160c060405180830381865afa158015610cb0573d6000803e3d6000fd5b505050506040513d601f19601f82011682018060405250810190610cd491906110d0565b50509350935050506000816005610ceb919061112a565b610cf684600a61112a565b610d0091906110b7565b600254604051634c3f70ab60e11b81526001600160a01b0388811660048301529293506000929091169063987ee1569060240160c060405180830381865afa158015610d50573d6000803e3d6000fd5b505050506040513d601f19601f82011682018060405250810190610d7491906110d0565b95505050505050620151808142610d8b9190611163565b1015610d9f57610d9c6032836110b7565b91505b50949350505050565b610db0610e4b565b6001600160a01b038116610e155760405162461bcd60e51b815260206004820152602660248201527f4f776e61626c653a206e6577206f776e657220697320746865207a65726f206160448201526564647265737360d01b60648201526084016104c0565b610e1e81610efe565b50565b610e29610e4b565b600280546001600160a01b0319166001600160a01b0392909216919091179055565b6000546001600160a01b031633146105285760405162461bcd60e51b815260206004820181905260248201527f4f776e61626c653a2063616c6c6572206973206e6f7420746865206f776e657260448201526064016104c0565b600260015403610ef75760405162461bcd60e51b815260206004820152601f60248201527f5265656e7472616e637947756172643a207265656e7472616e742063616c6c0060448201526064016104c0565b6002600155565b600080546001600160a01b038381166001600160a01b0319831681178455604051919092169283917f8be0079c531659141344cd1fd0a4f28419497f9722a3daafe3b4186f6b6457e09190a35050565b80356001600160a01b0381168114610f6557600080fd5b919050565b600060208284031215610f7c57600080fd5b610f8582610f4e565b9392505050565b600060208284031215610f9e57600080fd5b5035919050565b600080600060608486031215610fba57600080fd5b610fc384610f4e565b95602085013595506040909401359392505050565b600081518084526020808501945080840160005b8381101561100857815187529582019590820190600101610fec565b509495945050505050565b606080825284519082018190526000906020906080840190828801845b828110156110555781516001600160a01b031684529284019290840190600101611030565b505050838103828501526110698187610fd8565b915050828103604084015261107e8185610fd8565b9695505050505050565b634e487b7160e01b600052601160045260246000fd5b6000600182016110b0576110b0611088565b5060010190565b808201808211156110ca576110ca611088565b92915050565b60008060008060008060c087890312156110e957600080fd5b865195506020870151945060408701519350606087015192506080870151801515811461111557600080fd5b8092505060a087015190509295509295509295565b80820281158282048414176110ca576110ca611088565b60008261115e57634e487b7160e01b600052601260045260246000fd5b500490565b818103818111156110ca576110ca611088565b634e487b7160e01b600052604160045260246000fdfea26469706673582212206f675db1c50164a64aba9bb206066ed295061977c2c50f9bcd54c5fe7c91833464736f6c63430008140033",
  "linkReferences": {},
  "deployedLinkReferences": {}
}